{
  "_format": "hh-sol-artifact-1",
  "contractName": "DeID",
  "sourceName": "contracts/DeID.sol",
  "abi": [
    {
      "inputs": [],
      "stateMutability": "nonpayable",
      "type": "constructor"
    },
    {
      "inputs": [
        {
          "internalType": "uint256",
          "name": "_id",
          "type": "uint256"
        }
      ],
      "name": "acceptDetails",
      "outputs": [],
      "stateMutability": "nonpayable",
      "type": "function"
    },
    {
      "inputs": [
        {
          "internalType": "uint256",
          "name": "_id",
          "type": "uint256"
        },
        {
          "internalType": "string",
          "name": "_hash",
          "type": "string"
        }
      ],
      "name": "addDocs",
      "outputs": [],
      "stateMutability": "nonpayable",
      "type": "function"
    },
    {
      "inputs": [
        {
          "internalType": "address",
          "name": "_address",
          "type": "address"
        }
      ],
      "name": "companyDetails",
      "outputs": [
        {
          "components": [
            {
              "internalType": "uint64",
              "name": "Phone",
              "type": "uint64"
            },
            {
              "internalType": "string",
              "name": "RegistrationId",
              "type": "string"
            },
            {
              "internalType": "string",
              "name": "Name",
              "type": "string"
            },
            {
              "internalType": "string",
              "name": "Image",
              "type": "string"
            },
            {
              "internalType": "string[]",
              "name": "Employee",
              "type": "string[]"
            }
          ],
          "internalType": "struct DeID.Company",
          "name": "",
          "type": "tuple"
        }
      ],
      "stateMutability": "view",
      "type": "function"
    },
    {
      "inputs": [
        {
          "internalType": "uint64",
          "name": "Phone",
          "type": "uint64"
        },
        {
          "internalType": "string",
          "name": "RegistrationId",
          "type": "string"
        },
        {
          "internalType": "string",
          "name": "Name",
          "type": "string"
        },
        {
          "internalType": "string",
          "name": "Image",
          "type": "string"
        }
      ],
      "name": "createCompany",
      "outputs": [],
      "stateMutability": "nonpayable",
      "type": "function"
    },
    {
      "inputs": [
        {
          "internalType": "string",
          "name": "DOB",
          "type": "string"
        },
        {
          "internalType": "uint64",
          "name": "Phone",
          "type": "uint64"
        },
        {
          "internalType": "string",
          "name": "Name",
          "type": "string"
        },
        {
          "internalType": "string",
          "name": "Image",
          "type": "string"
        }
      ],
      "name": "createUser",
      "outputs": [],
      "stateMutability": "nonpayable",
      "type": "function"
    },
    {
      "inputs": [],
      "name": "ifRegistered",
      "outputs": [
        {
          "internalType": "uint256",
          "name": "",
          "type": "uint256"
        }
      ],
      "stateMutability": "view",
      "type": "function"
    },
    {
      "inputs": [],
      "name": "owner",
      "outputs": [
        {
          "internalType": "address",
          "name": "",
          "type": "address"
        }
      ],
      "stateMutability": "view",
      "type": "function"
    },
    {
      "inputs": [
        {
          "internalType": "uint256",
          "name": "_id",
          "type": "uint256"
        }
      ],
      "name": "rejectDetails",
      "outputs": [],
      "stateMutability": "nonpayable",
      "type": "function"
    },
    {
      "inputs": [
        {
          "internalType": "address",
          "name": "_address",
          "type": "address"
        },
        {
          "internalType": "bool",
          "name": "DOB",
          "type": "bool"
        },
        {
          "internalType": "bool",
          "name": "Phone",
          "type": "bool"
        },
        {
          "internalType": "bool",
          "name": "Name",
          "type": "bool"
        },
        {
          "internalType": "bool",
          "name": "Image",
          "type": "bool"
        },
        {
          "internalType": "bool[]",
          "name": "_Folders",
          "type": "bool[]"
        }
      ],
      "name": "requestDetails",
      "outputs": [],
      "stateMutability": "nonpayable",
      "type": "function"
    },
    {
      "inputs": [
        {
          "internalType": "uint256",
          "name": "_id",
          "type": "uint256"
        }
      ],
      "name": "returnDocs",
      "outputs": [
        {
          "components": [
            {
              "internalType": "string",
              "name": "Hash",
              "type": "string"
            },
            {
              "internalType": "uint256",
              "name": "TimeAdded",
              "type": "uint256"
            }
          ],
          "internalType": "struct DeID.Documents[]",
          "name": "",
          "type": "tuple[]"
        }
      ],
      "stateMutability": "view",
      "type": "function"
    },
    {
      "inputs": [
        {
          "internalType": "address",
          "name": "Address",
          "type": "address"
        }
      ],
      "name": "returnUserDocs",
      "outputs": [
        {
          "components": [
            {
              "internalType": "string",
              "name": "Hash",
              "type": "string"
            },
            {
              "internalType": "uint256",
              "name": "TimeAdded",
              "type": "uint256"
            }
          ],
          "internalType": "struct DeID.Documents[]",
          "name": "",
          "type": "tuple[]"
        }
      ],
      "stateMutability": "view",
      "type": "function"
    },
    {
      "inputs": [],
      "name": "returnUserRequests",
      "outputs": [
        {
          "components": [
            {
              "internalType": "address",
              "name": "Address",
              "type": "address"
            },
            {
              "internalType": "bool",
              "name": "DOB",
              "type": "bool"
            },
            {
              "internalType": "bool",
              "name": "Phone",
              "type": "bool"
            },
            {
              "internalType": "bool",
              "name": "Name",
              "type": "bool"
            },
            {
              "internalType": "bool",
              "name": "Image",
              "type": "bool"
            },
            {
              "internalType": "bool[]",
              "name": "Folders",
              "type": "bool[]"
            }
          ],
          "internalType": "struct DeID.Request[]",
          "name": "",
          "type": "tuple[]"
        }
      ],
      "stateMutability": "view",
      "type": "function"
    },
    {
      "inputs": [],
      "name": "returnUsersData",
      "outputs": [
        {
          "components": [
            {
              "internalType": "string",
              "name": "DOB",
              "type": "string"
            },
            {
              "internalType": "uint64",
              "name": "_foldCount",
              "type": "uint64"
            },
            {
              "internalType": "uint64",
              "name": "Phone",
              "type": "uint64"
            },
            {
              "internalType": "address",
              "name": "Address",
              "type": "address"
            },
            {
              "internalType": "string",
              "name": "Name",
              "type": "string"
            },
            {
              "internalType": "string",
              "name": "Image",
              "type": "string"
            },
            {
              "internalType": "string[]",
              "name": "Folders",
              "type": "string[]"
            }
          ],
          "internalType": "struct DeID.User[]",
          "name": "",
          "type": "tuple[]"
        }
      ],
      "stateMutability": "view",
      "type": "function"
    },
    {
      "inputs": [
        {
          "internalType": "address",
          "name": "Address",
          "type": "address"
        }
      ],
      "name": "revokeAccess",
      "outputs": [],
      "stateMutability": "nonpayable",
      "type": "function"
    },
    {
      "inputs": [],
      "name": "userDetails",
      "outputs": [
        {
          "components": [
            {
              "internalType": "string",
              "name": "DOB",
              "type": "string"
            },
            {
              "internalType": "uint64",
              "name": "_foldCount",
              "type": "uint64"
            },
            {
              "internalType": "uint64",
              "name": "Phone",
              "type": "uint64"
            },
            {
              "internalType": "address",
              "name": "Address",
              "type": "address"
            },
            {
              "internalType": "string",
              "name": "Name",
              "type": "string"
            },
            {
              "internalType": "string",
              "name": "Image",
              "type": "string"
            },
            {
              "internalType": "string[]",
              "name": "Folders",
              "type": "string[]"
            }
          ],
          "internalType": "struct DeID.User",
          "name": "",
          "type": "tuple"
        }
      ],
      "stateMutability": "view",
      "type": "function"
    }
  ],
  "bytecode": "0x608060405234801561001057600080fd5b50336000806101000a81548173ffffffffffffffffffffffffffffffffffffffff021916908373ffffffffffffffffffffffffffffffffffffffff1602179055506154a7806100606000396000f3fe608060405234801561001057600080fd5b50600436106100f55760003560e01c80638da5cb5b11610097578063b9ceddb111610066578063b9ceddb11461024c578063df56fbe014610268578063e5851b0814610284578063efcc2029146102b4576100f5565b80638da5cb5b146101d857806394732e6f146101f65780639c3c593414610214578063a128a9dc14610230576100f5565b80632b46a9b9116100d35780632b46a9b91461015257806342f39804146101825780637b931cf31461019e57806385e68531146101bc576100f5565b80630882f03c146100fa5780630bccac01146101185780631c6ee06414610136575b600080fd5b6101026102e4565b60405161010f9190613f57565b60405180910390f35b61012061074f565b60405161012d9190613f92565b60405180910390f35b610150600480360381019061014b9190614048565b61080f565b005b61016c6004803603810190610167919061413d565b610a71565b6040516101799190614278565b60405180910390f35b61019c6004803603810190610197919061413d565b610bb6565b005b6101a6610ee9565b6040516101b3919061434b565b60405180910390f35b6101d660048036038101906101d19190614399565b61130f565b005b6101e06118c3565b6040516101ed91906143d5565b60405180910390f35b6101fe6118e7565b60405161020b9190614605565b60405180910390f35b61022e60048036038101906102299190614627565b611b4e565b005b61024a6004803603810190610245919061413d565b611fb4565b005b61026660048036038101906102619190614772565b612d9e565b005b610282600480360381019061027d9190614821565b6130d9565b005b61029e60048036038101906102999190614399565b6132b2565b6040516102ab919061490c565b60405180910390f35b6102ce60048036038101906102c99190614399565b6135c6565b6040516102db9190614278565b60405180910390f35b6060600660003373ffffffffffffffffffffffffffffffffffffffff1673ffffffffffffffffffffffffffffffffffffffff16815260200190815260200160002060009054906101000a900460ff16610372576040517f08c379a00000000000000000000000000000000000000000000000000000000081526004016103699061498b565b60405180910390fd5b600860003360405160200161038791906149f3565b604051602081830303815290604052805190602001208152602001908152602001600020805480602002602001604051908101604052809291908181526020016000905b8282101561074657838290600052602060002090600602016040518060e00160405290816000820180546103fe90614a3d565b80601f016020809104026020016040519081016040528092919081815260200182805461042a90614a3d565b80156104775780601f1061044c57610100808354040283529160200191610477565b820191906000526020600020905b81548152906001019060200180831161045a57829003601f168201915b505050505081526020016001820160009054906101000a900467ffffffffffffffff1667ffffffffffffffff1667ffffffffffffffff1681526020016001820160089054906101000a900467ffffffffffffffff1667ffffffffffffffff1667ffffffffffffffff1681526020016002820160009054906101000a900473ffffffffffffffffffffffffffffffffffffffff1673ffffffffffffffffffffffffffffffffffffffff1673ffffffffffffffffffffffffffffffffffffffff16815260200160038201805461054a90614a3d565b80601f016020809104026020016040519081016040528092919081815260200182805461057690614a3d565b80156105c35780601f10610598576101008083540402835291602001916105c3565b820191906000526020600020905b8154815290600101906020018083116105a657829003601f168201915b505050505081526020016004820180546105dc90614a3d565b80601f016020809104026020016040519081016040528092919081815260200182805461060890614a3d565b80156106555780601f1061062a57610100808354040283529160200191610655565b820191906000526020600020905b81548152906001019060200180831161063857829003601f168201915b5050505050815260200160058201805480602002602001604051908101604052809291908181526020016000905b8282101561072f5783829060005260206000200180546106a290614a3d565b80601f01602080910402602001604051908101604052809291908181526020018280546106ce90614a3d565b801561071b5780601f106106f05761010080835404028352916020019161071b565b820191906000526020600020905b8154815290600101906020018083116106fe57829003601f168201915b505050505081526020019060010190610683565b5050505081525050815260200190600101906103cb565b50505050905090565b6000600360003373ffffffffffffffffffffffffffffffffffffffff1673ffffffffffffffffffffffffffffffffffffffff16815260200190815260200160002060009054906101000a900460ff16156107ac576000905061080c565b600660003373ffffffffffffffffffffffffffffffffffffffff1673ffffffffffffffffffffffffffffffffffffffff16815260200190815260200160002060009054906101000a900460ff1615610807576001905061080c565b600290505b90565b60001515600360003373ffffffffffffffffffffffffffffffffffffffff1673ffffffffffffffffffffffffffffffffffffffff16815260200190815260200160002060009054906101000a900460ff161515146108a2576040517f08c379a000000000000000000000000000000000000000000000000000000000815260040161089990614aba565b60405180910390fd5b60001515600660003373ffffffffffffffffffffffffffffffffffffffff1673ffffffffffffffffffffffffffffffffffffffff16815260200190815260200160002060009054906101000a900460ff16151514610935576040517f08c379a000000000000000000000000000000000000000000000000000000000815260040161092c90614b26565b60405180910390fd5b60003360405160200161094891906149f3565b604051602081830303815290604052805190602001209050876004600083815260200190815260200160002060000160006101000a81548167ffffffffffffffff021916908367ffffffffffffffff16021790555086866004600084815260200190815260200160002060010191826109c2929190614d2c565b5084846004600084815260200190815260200160002060020191826109e8929190614d2c565b508282600460008481526020019081526020016000206003019182610a0e929190614d2c565b506001600660003373ffffffffffffffffffffffffffffffffffffffff1673ffffffffffffffffffffffffffffffffffffffff16815260200190815260200160002060006101000a81548160ff0219169083151502179055505050505050505050565b60606002600033604051602001610a8891906149f3565b6040516020818303038152906040528051906020012081526020019081526020016000206000838152602001908152602001600020805480602002602001604051908101604052809291908181526020016000905b82821015610bab5783829060005260206000209060020201604051806040016040529081600082018054610b1090614a3d565b80601f0160208091040260200160405190810160405280929190818152602001828054610b3c90614a3d565b8015610b895780601f10610b5e57610100808354040283529160200191610b89565b820191906000526020600020905b815481529060010190602001808311610b6c57829003601f168201915b5050505050815260200160018201548152505081526020019060010190610add565b505050509050919050565b600760003373ffffffffffffffffffffffffffffffffffffffff1673ffffffffffffffffffffffffffffffffffffffff1681526020019081526020016000206001600760003373ffffffffffffffffffffffffffffffffffffffff1673ffffffffffffffffffffffffffffffffffffffff16815260200190815260200160002080549050610c449190614e2b565b81548110610c5557610c54614e5f565b5b9060005260206000209060020201600760003373ffffffffffffffffffffffffffffffffffffffff1673ffffffffffffffffffffffffffffffffffffffff1681526020019081526020016000208281548110610cb457610cb3614e5f565b5b90600052602060002090600202016000820160009054906101000a900473ffffffffffffffffffffffffffffffffffffffff168160000160006101000a81548173ffffffffffffffffffffffffffffffffffffffff021916908373ffffffffffffffffffffffffffffffffffffffff1602179055506000820160149054906101000a900460ff168160000160146101000a81548160ff0219169083151502179055506000820160159054906101000a900460ff168160000160156101000a81548160ff0219169083151502179055506000820160169054906101000a900460ff168160000160166101000a81548160ff0219169083151502179055506000820160179054906101000a900460ff168160000160176101000a81548160ff0219169083151502179055506001820181600101908054610df392919061388c565b50905050600760003373ffffffffffffffffffffffffffffffffffffffff1673ffffffffffffffffffffffffffffffffffffffff168152602001908152602001600020805480610e4657610e45614e8e565b5b6001900381819060005260206000209060020201600080820160006101000a81549073ffffffffffffffffffffffffffffffffffffffff02191690556000820160146101000a81549060ff02191690556000820160156101000a81549060ff02191690556000820160166101000a81549060ff02191690556000820160176101000a81549060ff0219169055600182016000610ee291906138ec565b5050905550565b610ef1613914565b600360003373ffffffffffffffffffffffffffffffffffffffff1673ffffffffffffffffffffffffffffffffffffffff16815260200190815260200160002060009054906101000a900460ff16610f7d576040517f08c379a0000000000000000000000000000000000000000000000000000000008152600401610f7490614f09565b60405180910390fd5b6001600033604051602001610f9291906149f3565b6040516020818303038152906040528051906020012081526020019081526020016000206040518060e0016040529081600082018054610fd190614a3d565b80601f0160208091040260200160405190810160405280929190818152602001828054610ffd90614a3d565b801561104a5780601f1061101f5761010080835404028352916020019161104a565b820191906000526020600020905b81548152906001019060200180831161102d57829003601f168201915b505050505081526020016001820160009054906101000a900467ffffffffffffffff1667ffffffffffffffff1667ffffffffffffffff1681526020016001820160089054906101000a900467ffffffffffffffff1667ffffffffffffffff1667ffffffffffffffff1681526020016002820160009054906101000a900473ffffffffffffffffffffffffffffffffffffffff1673ffffffffffffffffffffffffffffffffffffffff1673ffffffffffffffffffffffffffffffffffffffff16815260200160038201805461111d90614a3d565b80601f016020809104026020016040519081016040528092919081815260200182805461114990614a3d565b80156111965780601f1061116b57610100808354040283529160200191611196565b820191906000526020600020905b81548152906001019060200180831161117957829003601f168201915b505050505081526020016004820180546111af90614a3d565b80601f01602080910402602001604051908101604052809291908181526020018280546111db90614a3d565b80156112285780601f106111fd57610100808354040283529160200191611228565b820191906000526020600020905b81548152906001019060200180831161120b57829003601f168201915b5050505050815260200160058201805480602002602001604051908101604052809291908181526020016000905b8282101561130257838290600052602060002001805461127590614a3d565b80601f01602080910402602001604051908101604052809291908181526020018280546112a190614a3d565b80156112ee5780601f106112c3576101008083540402835291602001916112ee565b820191906000526020600020905b8154815290600101906020018083116112d157829003601f168201915b505050505081526020019060010190611256565b5050505081525050905090565b600a60008273ffffffffffffffffffffffffffffffffffffffff1673ffffffffffffffffffffffffffffffffffffffff16815260200190815260200160002060003373ffffffffffffffffffffffffffffffffffffffff1673ffffffffffffffffffffffffffffffffffffffff16815260200190815260200160002060009054906101000a900460ff166113d8576040517f08c379a00000000000000000000000000000000000000000000000000000000081526004016113cf90614f75565b60405180910390fd5b6000600a60008373ffffffffffffffffffffffffffffffffffffffff1673ffffffffffffffffffffffffffffffffffffffff16815260200190815260200160002060003373ffffffffffffffffffffffffffffffffffffffff1673ffffffffffffffffffffffffffffffffffffffff16815260200190815260200160002060006101000a81548160ff02191690831515021790555060005b6001600960003373ffffffffffffffffffffffffffffffffffffffff1673ffffffffffffffffffffffffffffffffffffffff168152602001908152602001600020805490506114bf9190614e2b565b8110156118bf578173ffffffffffffffffffffffffffffffffffffffff16600960003373ffffffffffffffffffffffffffffffffffffffff1673ffffffffffffffffffffffffffffffffffffffff168152602001908152602001600020828154811061152e5761152d614e5f565b5b906000526020600020906002020160000160009054906101000a900473ffffffffffffffffffffffffffffffffffffffff1673ffffffffffffffffffffffffffffffffffffffff16036118ac57600960003373ffffffffffffffffffffffffffffffffffffffff1673ffffffffffffffffffffffffffffffffffffffff1681526020019081526020016000206001600960003373ffffffffffffffffffffffffffffffffffffffff1673ffffffffffffffffffffffffffffffffffffffff168152602001908152602001600020805490506116099190614e2b565b8154811061161a57611619614e5f565b5b9060005260206000209060020201600960003373ffffffffffffffffffffffffffffffffffffffff1673ffffffffffffffffffffffffffffffffffffffff168152602001908152602001600020828154811061167957611678614e5f565b5b90600052602060002090600202016000820160009054906101000a900473ffffffffffffffffffffffffffffffffffffffff168160000160006101000a81548173ffffffffffffffffffffffffffffffffffffffff021916908373ffffffffffffffffffffffffffffffffffffffff1602179055506000820160149054906101000a900460ff168160000160146101000a81548160ff0219169083151502179055506000820160159054906101000a900460ff168160000160156101000a81548160ff0219169083151502179055506000820160169054906101000a900460ff168160000160166101000a81548160ff0219169083151502179055506000820160179054906101000a900460ff168160000160176101000a81548160ff02191690831515021790555060018201816001019080546117b892919061388c565b50905050600960003373ffffffffffffffffffffffffffffffffffffffff1673ffffffffffffffffffffffffffffffffffffffff16815260200190815260200160002080548061180b5761180a614e8e565b5b6001900381819060005260206000209060020201600080820160006101000a81549073ffffffffffffffffffffffffffffffffffffffff02191690556000820160146101000a81549060ff02191690556000820160156101000a81549060ff02191690556000820160166101000a81549060ff02191690556000820160176101000a81549060ff02191690556001820160006118a791906138ec565b505090555b80806118b790614f95565b915050611470565b5050565b60008054906101000a900473ffffffffffffffffffffffffffffffffffffffff1681565b6060600360003373ffffffffffffffffffffffffffffffffffffffff1673ffffffffffffffffffffffffffffffffffffffff16815260200190815260200160002060009054906101000a900460ff16611975576040517f08c379a000000000000000000000000000000000000000000000000000000000815260040161196c90615029565b60405180910390fd5b600760003373ffffffffffffffffffffffffffffffffffffffff1673ffffffffffffffffffffffffffffffffffffffff168152602001908152602001600020805480602002602001604051908101604052809291908181526020016000905b82821015611b4557838290600052602060002090600202016040518060c00160405290816000820160009054906101000a900473ffffffffffffffffffffffffffffffffffffffff1673ffffffffffffffffffffffffffffffffffffffff1673ffffffffffffffffffffffffffffffffffffffff1681526020016000820160149054906101000a900460ff161515151581526020016000820160159054906101000a900460ff161515151581526020016000820160169054906101000a900460ff161515151581526020016000820160179054906101000a900460ff1615151515815260200160018201805480602002602001604051908101604052809291908181526020018280548015611b2d57602002820191906000526020600020906000905b82829054906101000a900460ff16151581526020019060010190602082600001049283019260010382029150808411611af75790505b505050505081525050815260200190600101906119d4565b50505050905090565b60001515600360003373ffffffffffffffffffffffffffffffffffffffff1673ffffffffffffffffffffffffffffffffffffffff16815260200190815260200160002060009054906101000a900460ff16151514611be1576040517f08c379a0000000000000000000000000000000000000000000000000000000008152600401611bd890615095565b60405180910390fd5b60001515600660003373ffffffffffffffffffffffffffffffffffffffff1673ffffffffffffffffffffffffffffffffffffffff16815260200190815260200160002060009054906101000a900460ff16151514611c74576040517f08c379a0000000000000000000000000000000000000000000000000000000008152600401611c6b90615101565b60405180910390fd5b600033604051602001611c8791906149f3565b6040516020818303038152906040528051906020012090508787600160008481526020019081526020016000206000019182611cc4929190614d2c565b5060036001600083815260200190815260200160002060010160006101000a81548167ffffffffffffffff021916908367ffffffffffffffff1602179055506001600082815260200190815260200160002060050180600181540180825580915050600190039060005260206000200160006040518060400160405280600781526020017f4d65646963616c0000000000000000000000000000000000000000000000000081525090919091509081611d7d9190615121565b506001600082815260200190815260200160002060050180600181540180825580915050600190039060005260206000200160006040518060400160405280600981526020017f41636164656d696373000000000000000000000000000000000000000000000081525090919091509081611df89190615121565b506001600082815260200190815260200160002060050180600181540180825580915050600190039060005260206000200160006040518060400160405280600481526020017f42616e6b0000000000000000000000000000000000000000000000000000000081525090919091509081611e739190615121565b50856001600083815260200190815260200160002060010160086101000a81548167ffffffffffffffff021916908367ffffffffffffffff1602179055508484600160008481526020019081526020016000206003019182611ed6929190614d2c565b50336001600083815260200190815260200160002060020160006101000a81548173ffffffffffffffffffffffffffffffffffffffff021916908373ffffffffffffffffffffffffffffffffffffffff1602179055508282600160008481526020019081526020016000206004019182611f51929190614d2c565b506001600360003373ffffffffffffffffffffffffffffffffffffffff1673ffffffffffffffffffffffffffffffffffffffff16815260200190815260200160002060006101000a81548160ff0219169083151502179055505050505050505050565b6000600760003373ffffffffffffffffffffffffffffffffffffffff1673ffffffffffffffffffffffffffffffffffffffff168152602001908152602001600020828154811061200757612006614e5f565b5b90600052602060002090600202016040518060c00160405290816000820160009054906101000a900473ffffffffffffffffffffffffffffffffffffffff1673ffffffffffffffffffffffffffffffffffffffff1673ffffffffffffffffffffffffffffffffffffffff1681526020016000820160149054906101000a900460ff161515151581526020016000820160159054906101000a900460ff161515151581526020016000820160169054906101000a900460ff161515151581526020016000820160179054906101000a900460ff161515151581526020016001820180548060200260200160405190810160405280929190818152602001828054801561215657602002820191906000526020600020906000905b82829054906101000a900460ff161515815260200190600101906020826000010492830192600103820291508084116121205790505b50505050508152505090506000600160003360405160200161217891906149f3565b6040516020818303038152906040528051906020012081526020019081526020016000206040518060e00160405290816000820180546121b790614a3d565b80601f01602080910402602001604051908101604052809291908181526020018280546121e390614a3d565b80156122305780601f1061220557610100808354040283529160200191612230565b820191906000526020600020905b81548152906001019060200180831161221357829003601f168201915b505050505081526020016001820160009054906101000a900467ffffffffffffffff1667ffffffffffffffff1667ffffffffffffffff1681526020016001820160089054906101000a900467ffffffffffffffff1667ffffffffffffffff1667ffffffffffffffff1681526020016002820160009054906101000a900473ffffffffffffffffffffffffffffffffffffffff1673ffffffffffffffffffffffffffffffffffffffff1673ffffffffffffffffffffffffffffffffffffffff16815260200160038201805461230390614a3d565b80601f016020809104026020016040519081016040528092919081815260200182805461232f90614a3d565b801561237c5780601f106123515761010080835404028352916020019161237c565b820191906000526020600020905b81548152906001019060200180831161235f57829003601f168201915b5050505050815260200160048201805461239590614a3d565b80601f01602080910402602001604051908101604052809291908181526020018280546123c190614a3d565b801561240e5780601f106123e35761010080835404028352916020019161240e565b820191906000526020600020905b8154815290600101906020018083116123f157829003601f168201915b5050505050815260200160058201805480602002602001604051908101604052809291908181526020016000905b828210156124e857838290600052602060002001805461245b90614a3d565b80601f016020809104026020016040519081016040528092919081815260200182805461248790614a3d565b80156124d45780601f106124a9576101008083540402835291602001916124d4565b820191906000526020600020905b8154815290600101906020018083116124b757829003601f168201915b50505050508152602001906001019061243c565b505050508152505090506124fa613914565b8160200151816020019067ffffffffffffffff16908167ffffffffffffffff16815250508160600151816060019073ffffffffffffffffffffffffffffffffffffffff16908173ffffffffffffffffffffffffffffffffffffffff16815250508160c001518160c0018190525082602001511561257f57816000015181600001819052505b8260400151156125ae578160400151816040019067ffffffffffffffff16908167ffffffffffffffff16815250505b8260600151156125c657816080015181608001819052505b8260800151156125de578160a001518160a001819052505b60005b600183602001516125f291906151f3565b67ffffffffffffffff16811015612712578360a00151818151811061261a57612619614e5f565b5b6020026020010151156126ff57600260003360405160200161263c91906149f3565b604051602081830303815290604052805190602001208152602001908152602001600020600082815260200190815260200160002060056000866000015160405160200161268a91906149f3565b60405160208183030381529060405280519060200120815260200190815260200160002060003373ffffffffffffffffffffffffffffffffffffffff1673ffffffffffffffffffffffffffffffffffffffff1681526020019081526020016000209080546126f992919061397b565b50612712565b808061270a90614f95565b9150506125e1565b5060086000846000015160405160200161272c91906149f3565b604051602081830303815290604052805190602001208152602001908152602001600020819080600181540180825580915050600190039060005260206000209060060201600090919091909150600082015181600001908161278f9190615121565b5060208201518160010160006101000a81548167ffffffffffffffff021916908367ffffffffffffffff16021790555060408201518160010160086101000a81548167ffffffffffffffff021916908367ffffffffffffffff16021790555060608201518160020160006101000a81548173ffffffffffffffffffffffffffffffffffffffff021916908373ffffffffffffffffffffffffffffffffffffffff160217905550608082015181600301908161284a9190615121565b5060a08201518160040190816128609190615121565b5060c082015181600501908051906020019061287d9291906139f2565b505050600960003373ffffffffffffffffffffffffffffffffffffffff1673ffffffffffffffffffffffffffffffffffffffff16815260200190815260200160002083908060018154018082558091505060019003906000526020600020906002020160009091909190915060008201518160000160006101000a81548173ffffffffffffffffffffffffffffffffffffffff021916908373ffffffffffffffffffffffffffffffffffffffff16021790555060208201518160000160146101000a81548160ff02191690831515021790555060408201518160000160156101000a81548160ff02191690831515021790555060608201518160000160166101000a81548160ff02191690831515021790555060808201518160000160176101000a81548160ff02191690831515021790555060a08201518160010190805190602001906129cc929190613a4b565b5050506001600a6000856000015173ffffffffffffffffffffffffffffffffffffffff1673ffffffffffffffffffffffffffffffffffffffff16815260200190815260200160002060003373ffffffffffffffffffffffffffffffffffffffff1673ffffffffffffffffffffffffffffffffffffffff16815260200190815260200160002060006101000a81548160ff021916908315150217905550600760003373ffffffffffffffffffffffffffffffffffffffff1673ffffffffffffffffffffffffffffffffffffffff1681526020019081526020016000206001600760003373ffffffffffffffffffffffffffffffffffffffff1673ffffffffffffffffffffffffffffffffffffffff16815260200190815260200160002080549050612af69190614e2b565b81548110612b0757612b06614e5f565b5b9060005260206000209060020201600760003373ffffffffffffffffffffffffffffffffffffffff1673ffffffffffffffffffffffffffffffffffffffff1681526020019081526020016000208581548110612b6657612b65614e5f565b5b90600052602060002090600202016000820160009054906101000a900473ffffffffffffffffffffffffffffffffffffffff168160000160006101000a81548173ffffffffffffffffffffffffffffffffffffffff021916908373ffffffffffffffffffffffffffffffffffffffff1602179055506000820160149054906101000a900460ff168160000160146101000a81548160ff0219169083151502179055506000820160159054906101000a900460ff168160000160156101000a81548160ff0219169083151502179055506000820160169054906101000a900460ff168160000160166101000a81548160ff0219169083151502179055506000820160179054906101000a900460ff168160000160176101000a81548160ff0219169083151502179055506001820181600101908054612ca592919061388c565b50905050600760003373ffffffffffffffffffffffffffffffffffffffff1673ffffffffffffffffffffffffffffffffffffffff168152602001908152602001600020805480612cf857612cf7614e8e565b5b6001900381819060005260206000209060020201600080820160006101000a81549073ffffffffffffffffffffffffffffffffffffffff02191690556000820160146101000a81549060ff02191690556000820160156101000a81549060ff02191690556000820160166101000a81549060ff02191690556000820160176101000a81549060ff0219169055600182016000612d9491906138ec565b5050905550505050565b600660003373ffffffffffffffffffffffffffffffffffffffff1673ffffffffffffffffffffffffffffffffffffffff16815260200190815260200160002060009054906101000a900460ff16612e2a576040517f08c379a0000000000000000000000000000000000000000000000000000000008152600401612e219061527b565b60405180910390fd5b600360008873ffffffffffffffffffffffffffffffffffffffff1673ffffffffffffffffffffffffffffffffffffffff16815260200190815260200160002060009054906101000a900460ff16612eb6576040517f08c379a0000000000000000000000000000000000000000000000000000000008152600401612ead906152e7565b60405180910390fd5b612ebe613af1565b33816000019073ffffffffffffffffffffffffffffffffffffffff16908173ffffffffffffffffffffffffffffffffffffffff168152505086816020019015159081151581525050858160400190151590811515815250508481606001901515908115158152505083816080019015159081151581525050828280806020026020016040519081016040528093929190818152602001838360200280828437600081840152601f19601f820116905080830192505050505050508160a00181905250600760008973ffffffffffffffffffffffffffffffffffffffff1673ffffffffffffffffffffffffffffffffffffffff16815260200190815260200160002081908060018154018082558091505060019003906000526020600020906002020160009091909190915060008201518160000160006101000a81548173ffffffffffffffffffffffffffffffffffffffff021916908373ffffffffffffffffffffffffffffffffffffffff16021790555060208201518160000160146101000a81548160ff02191690831515021790555060408201518160000160156101000a81548160ff02191690831515021790555060608201518160000160166101000a81548160ff02191690831515021790555060808201518160000160176101000a81548160ff02191690831515021790555060a08201518160010190805190602001906130cc929190613a4b565b5050505050505050505050565b600360003373ffffffffffffffffffffffffffffffffffffffff1673ffffffffffffffffffffffffffffffffffffffff16815260200190815260200160002060009054906101000a900460ff168061317a5750600660003373ffffffffffffffffffffffffffffffffffffffff1673ffffffffffffffffffffffffffffffffffffffff16815260200190815260200160002060009054906101000a900460ff165b6131b9576040517f08c379a00000000000000000000000000000000000000000000000000000000081526004016131b090614f09565b60405180910390fd5b6000604051806040016040528084848080601f016020809104026020016040519081016040528093929190818152602001838380828437600081840152601f19601f820116905080830192505050505050508152602001428152509050600260003360405160200161322b91906149f3565b6040516020818303038152906040528051906020012081526020019081526020016000206000858152602001908152602001600020819080600181540180825580915050600190039060005260206000209060020201600090919091909150600082015181600001908161329f9190615121565b5060208201518160010155505050505050565b6132ba613b45565b60046000836040516020016132cf91906149f3565b6040516020818303038152906040528051906020012081526020019081526020016000206040518060a00160405290816000820160009054906101000a900467ffffffffffffffff1667ffffffffffffffff1667ffffffffffffffff16815260200160018201805461334090614a3d565b80601f016020809104026020016040519081016040528092919081815260200182805461336c90614a3d565b80156133b95780601f1061338e576101008083540402835291602001916133b9565b820191906000526020600020905b81548152906001019060200180831161339c57829003601f168201915b505050505081526020016002820180546133d290614a3d565b80601f01602080910402602001604051908101604052809291908181526020018280546133fe90614a3d565b801561344b5780601f106134205761010080835404028352916020019161344b565b820191906000526020600020905b81548152906001019060200180831161342e57829003601f168201915b5050505050815260200160038201805461346490614a3d565b80601f016020809104026020016040519081016040528092919081815260200182805461349090614a3d565b80156134dd5780601f106134b2576101008083540402835291602001916134dd565b820191906000526020600020905b8154815290600101906020018083116134c057829003601f168201915b5050505050815260200160048201805480602002602001604051908101604052809291908181526020016000905b828210156135b757838290600052602060002001805461352a90614a3d565b80601f016020809104026020016040519081016040528092919081815260200182805461355690614a3d565b80156135a35780601f10613578576101008083540402835291602001916135a3565b820191906000526020600020905b81548152906001019060200180831161358657829003601f168201915b50505050508152602001906001019061350b565b50505050815250509050919050565b6060600660003373ffffffffffffffffffffffffffffffffffffffff1673ffffffffffffffffffffffffffffffffffffffff16815260200190815260200160002060009054906101000a900460ff16613654576040517f08c379a000000000000000000000000000000000000000000000000000000000815260040161364b9061498b565b60405180910390fd5b600a60003373ffffffffffffffffffffffffffffffffffffffff1673ffffffffffffffffffffffffffffffffffffffff16815260200190815260200160002060008373ffffffffffffffffffffffffffffffffffffffff1673ffffffffffffffffffffffffffffffffffffffff16815260200190815260200160002060009054906101000a900460ff1661371d576040517f08c379a000000000000000000000000000000000000000000000000000000000815260040161371490615353565b60405180910390fd5b600560003360405160200161373291906149f3565b60405160208183030381529060405280519060200120815260200190815260200160002060008373ffffffffffffffffffffffffffffffffffffffff1673ffffffffffffffffffffffffffffffffffffffff168152602001908152602001600020805480602002602001604051908101604052809291908181526020016000905b8282101561388157838290600052602060002090600202016040518060400160405290816000820180546137e690614a3d565b80601f016020809104026020016040519081016040528092919081815260200182805461381290614a3d565b801561385f5780601f106138345761010080835404028352916020019161385f565b820191906000526020600020905b81548152906001019060200180831161384257829003601f168201915b50505050508152602001600182015481525050815260200190600101906137b3565b505050509050919050565b82805482825590600052602060002090601f016020900481019282156138db57600052602060002091601f016020900482015b828111156138da5782548255916001019190600101906138bf565b5b5090506138e89190613b7e565b5090565b50805460008255601f0160209004906000526020600020908101906139119190613b7e565b50565b6040518060e0016040528060608152602001600067ffffffffffffffff168152602001600067ffffffffffffffff168152602001600073ffffffffffffffffffffffffffffffffffffffff1681526020016060815260200160608152602001606081525090565b8280548282559060005260206000209060020281019282156139e15760005260206000209160020282015b828111156139e0578282600082018160000190816139c49190615389565b50600182015481600101555050916002019190600201906139a6565b5b5090506139ee9190613b9b565b5090565b828054828255906000526020600020908101928215613a3a579160200282015b82811115613a39578251829081613a299190615121565b5091602001919060010190613a12565b5b509050613a479190613bca565b5090565b82805482825590600052602060002090601f01602090048101928215613ae05791602002820160005b83821115613ab157835183826101000a81548160ff0219169083151502179055509260200192600101602081600001049283019260010302613a74565b8015613ade5782816101000a81549060ff0219169055600101602081600001049283019260010302613ab1565b505b509050613aed9190613b7e565b5090565b6040518060c00160405280600073ffffffffffffffffffffffffffffffffffffffff168152602001600015158152602001600015158152602001600015158152602001600015158152602001606081525090565b6040518060a00160405280600067ffffffffffffffff168152602001606081526020016060815260200160608152602001606081525090565b5b80821115613b97576000816000905550600101613b7f565b5090565b5b80821115613bc65760008082016000613bb59190613bee565b600182016000905550600201613b9c565b5090565b5b80821115613bea5760008181613be19190613bee565b50600101613bcb565b5090565b508054613bfa90614a3d565b6000825580601f10613c0c5750613c2b565b601f016020900490600052602060002090810190613c2a9190613b7e565b5b50565b600081519050919050565b600082825260208201905092915050565b6000819050602082019050919050565b600081519050919050565b600082825260208201905092915050565b60005b83811015613c94578082015181840152602081019050613c79565b60008484015250505050565b6000601f19601f8301169050919050565b6000613cbc82613c5a565b613cc68185613c65565b9350613cd6818560208601613c76565b613cdf81613ca0565b840191505092915050565b600067ffffffffffffffff82169050919050565b613d0781613cea565b82525050565b600073ffffffffffffffffffffffffffffffffffffffff82169050919050565b6000613d3882613d0d565b9050919050565b613d4881613d2d565b82525050565b600081519050919050565b600082825260208201905092915050565b6000819050602082019050919050565b6000613d868383613cb1565b905092915050565b6000602082019050919050565b6000613da682613d4e565b613db08185613d59565b935083602082028501613dc285613d6a565b8060005b85811015613dfe5784840389528151613ddf8582613d7a565b9450613dea83613d8e565b925060208a01995050600181019050613dc6565b50829750879550505050505092915050565b600060e0830160008301518482036000860152613e2d8282613cb1565b9150506020830151613e426020860182613cfe565b506040830151613e556040860182613cfe565b506060830151613e686060860182613d3f565b5060808301518482036080860152613e808282613cb1565b91505060a083015184820360a0860152613e9a8282613cb1565b91505060c083015184820360c0860152613eb48282613d9b565b9150508091505092915050565b6000613ecd8383613e10565b905092915050565b6000602082019050919050565b6000613eed82613c2e565b613ef78185613c39565b935083602082028501613f0985613c4a565b8060005b85811015613f455784840389528151613f268582613ec1565b9450613f3183613ed5565b925060208a01995050600181019050613f0d565b50829750879550505050505092915050565b60006020820190508181036000830152613f718184613ee2565b905092915050565b6000819050919050565b613f8c81613f79565b82525050565b6000602082019050613fa76000830184613f83565b92915050565b600080fd5b600080fd5b613fc081613cea565b8114613fcb57600080fd5b50565b600081359050613fdd81613fb7565b92915050565b600080fd5b600080fd5b600080fd5b60008083601f84011261400857614007613fe3565b5b8235905067ffffffffffffffff81111561402557614024613fe8565b5b60208301915083600182028301111561404157614040613fed565b5b9250929050565b60008060008060008060006080888a03121561406757614066613fad565b5b60006140758a828b01613fce565b975050602088013567ffffffffffffffff81111561409657614095613fb2565b5b6140a28a828b01613ff2565b9650965050604088013567ffffffffffffffff8111156140c5576140c4613fb2565b5b6140d18a828b01613ff2565b9450945050606088013567ffffffffffffffff8111156140f4576140f3613fb2565b5b6141008a828b01613ff2565b925092505092959891949750929550565b61411a81613f79565b811461412557600080fd5b50565b60008135905061413781614111565b92915050565b60006020828403121561415357614152613fad565b5b600061416184828501614128565b91505092915050565b600081519050919050565b600082825260208201905092915050565b6000819050602082019050919050565b61419f81613f79565b82525050565b600060408301600083015184820360008601526141c28282613cb1565b91505060208301516141d76020860182614196565b508091505092915050565b60006141ee83836141a5565b905092915050565b6000602082019050919050565b600061420e8261416a565b6142188185614175565b93508360208202850161422a85614186565b8060005b85811015614266578484038952815161424785826141e2565b9450614252836141f6565b925060208a0199505060018101905061422e565b50829750879550505050505092915050565b600060208201905081810360008301526142928184614203565b905092915050565b600060e08301600083015184820360008601526142b78282613cb1565b91505060208301516142cc6020860182613cfe565b5060408301516142df6040860182613cfe565b5060608301516142f26060860182613d3f565b506080830151848203608086015261430a8282613cb1565b91505060a083015184820360a08601526143248282613cb1565b91505060c083015184820360c086015261433e8282613d9b565b9150508091505092915050565b60006020820190508181036000830152614365818461429a565b905092915050565b61437681613d2d565b811461438157600080fd5b50565b6000813590506143938161436d565b92915050565b6000602082840312156143af576143ae613fad565b5b60006143bd84828501614384565b91505092915050565b6143cf81613d2d565b82525050565b60006020820190506143ea60008301846143c6565b92915050565b600081519050919050565b600082825260208201905092915050565b6000819050602082019050919050565b60008115159050919050565b6144318161441c565b82525050565b600081519050919050565b600082825260208201905092915050565b6000819050602082019050919050565b600061446f8383614428565b60208301905092915050565b6000602082019050919050565b600061449382614437565b61449d8185614442565b93506144a883614453565b8060005b838110156144d95781516144c08882614463565b97506144cb8361447b565b9250506001810190506144ac565b5085935050505092915050565b600060c0830160008301516144fe6000860182613d3f565b5060208301516145116020860182614428565b5060408301516145246040860182614428565b5060608301516145376060860182614428565b50608083015161454a6080860182614428565b5060a083015184820360a08601526145628282614488565b9150508091505092915050565b600061457b83836144e6565b905092915050565b6000602082019050919050565b600061459b826143f0565b6145a581856143fb565b9350836020820285016145b78561440c565b8060005b858110156145f357848403895281516145d4858261456f565b94506145df83614583565b925060208a019950506001810190506145bb565b50829750879550505050505092915050565b6000602082019050818103600083015261461f8184614590565b905092915050565b60008060008060008060006080888a03121561464657614645613fad565b5b600088013567ffffffffffffffff81111561466457614663613fb2565b5b6146708a828b01613ff2565b975097505060206146838a828b01613fce565b955050604088013567ffffffffffffffff8111156146a4576146a3613fb2565b5b6146b08a828b01613ff2565b9450945050606088013567ffffffffffffffff8111156146d3576146d2613fb2565b5b6146df8a828b01613ff2565b925092505092959891949750929550565b6146f98161441c565b811461470457600080fd5b50565b600081359050614716816146f0565b92915050565b60008083601f84011261473257614731613fe3565b5b8235905067ffffffffffffffff81111561474f5761474e613fe8565b5b60208301915083602082028301111561476b5761476a613fed565b5b9250929050565b600080600080600080600060c0888a03121561479157614790613fad565b5b600061479f8a828b01614384565b97505060206147b08a828b01614707565b96505060406147c18a828b01614707565b95505060606147d28a828b01614707565b94505060806147e38a828b01614707565b93505060a088013567ffffffffffffffff81111561480457614803613fb2565b5b6148108a828b0161471c565b925092505092959891949750929550565b60008060006040848603121561483a57614839613fad565b5b600061484886828701614128565b935050602084013567ffffffffffffffff81111561486957614868613fb2565b5b61487586828701613ff2565b92509250509250925092565b600060a0830160008301516148996000860182613cfe565b50602083015184820360208601526148b18282613cb1565b915050604083015184820360408601526148cb8282613cb1565b915050606083015184820360608601526148e58282613cb1565b915050608083015184820360808601526148ff8282613d9b565b9150508091505092915050565b600060208201905081810360008301526149268184614881565b905092915050565b600082825260208201905092915050565b7f4e6f742061205265676973746572656420436f6d70616e790000000000000000600082015250565b600061497560188361492e565b91506149808261493f565b602082019050919050565b600060208201905081810360008301526149a481614968565b9050919050565b60008160601b9050919050565b60006149c3826149ab565b9050919050565b60006149d5826149b8565b9050919050565b6149ed6149e882613d2d565b6149ca565b82525050565b60006149ff82846149dc565b60148201915081905092915050565b7f4e487b7100000000000000000000000000000000000000000000000000000000600052602260045260246000fd5b60006002820490506001821680614a5557607f821691505b602082108103614a6857614a67614a0e565b5b50919050565b7f436f6d70616e7920416c72656164792052656769737465726564000000000000600082015250565b6000614aa4601a8361492e565b9150614aaf82614a6e565b602082019050919050565b60006020820190508181036000830152614ad381614a97565b9050919050565b7f5265676973746572656420617320557365720000000000000000000000000000600082015250565b6000614b1060128361492e565b9150614b1b82614ada565b602082019050919050565b60006020820190508181036000830152614b3f81614b03565b9050919050565b600082905092915050565b7f4e487b7100000000000000000000000000000000000000000000000000000000600052604160045260246000fd5b60008190508160005260206000209050919050565b60006020601f8301049050919050565b600082821b905092915050565b600060088302614be27fffffffffffffffffffffffffffffffffffffffffffffffffffffffffffffffff82614ba5565b614bec8683614ba5565b95508019841693508086168417925050509392505050565b6000819050919050565b6000614c29614c24614c1f84613f79565b614c04565b613f79565b9050919050565b6000819050919050565b614c4383614c0e565b614c57614c4f82614c30565b848454614bb2565b825550505050565b600090565b614c6c614c5f565b614c77818484614c3a565b505050565b5b81811015614c9b57614c90600082614c64565b600181019050614c7d565b5050565b601f821115614ce057614cb181614b80565b614cba84614b95565b81016020851015614cc9578190505b614cdd614cd585614b95565b830182614c7c565b50505b505050565b600082821c905092915050565b6000614d0360001984600802614ce5565b1980831691505092915050565b6000614d1c8383614cf2565b9150826002028217905092915050565b614d368383614b46565b67ffffffffffffffff811115614d4f57614d4e614b51565b5b614d598254614a3d565b614d64828285614c9f565b6000601f831160018114614d935760008415614d81578287013590505b614d8b8582614d10565b865550614df3565b601f198416614da186614b80565b60005b82811015614dc957848901358255600182019150602085019450602081019050614da4565b86831015614de65784890135614de2601f891682614cf2565b8355505b6001600288020188555050505b50505050505050565b7f4e487b7100000000000000000000000000000000000000000000000000000000600052601160045260246000fd5b6000614e3682613f79565b9150614e4183613f79565b9250828203905081811115614e5957614e58614dfc565b5b92915050565b7f4e487b7100000000000000000000000000000000000000000000000000000000600052603260045260246000fd5b7f4e487b7100000000000000000000000000000000000000000000000000000000600052603160045260246000fd5b7f4e6f742052656769737465726564000000000000000000000000000000000000600082015250565b6000614ef3600e8361492e565b9150614efe82614ebd565b602082019050919050565b60006020820190508181036000830152614f2281614ee6565b9050919050565b7f41636365737320416c7265616479205265766f6b656400000000000000000000600082015250565b6000614f5f60168361492e565b9150614f6a82614f29565b602082019050919050565b60006020820190508181036000830152614f8e81614f52565b9050919050565b6000614fa082613f79565b91507fffffffffffffffffffffffffffffffffffffffffffffffffffffffffffffffff8203614fd257614fd1614dfc565b5b600182019050919050565b7f5265676973746572206173205573657200000000000000000000000000000000600082015250565b600061501360108361492e565b915061501e82614fdd565b602082019050919050565b6000602082019050818103600083015261504281615006565b9050919050565b7f5573657220416c72656164792052656769737465726564000000000000000000600082015250565b600061507f60178361492e565b915061508a82615049565b602082019050919050565b600060208201905081810360008301526150ae81615072565b9050919050565b7f5265676973746572656420617320636f6d70616e790000000000000000000000600082015250565b60006150eb60158361492e565b91506150f6826150b5565b602082019050919050565b6000602082019050818103600083015261511a816150de565b9050919050565b61512a82613c5a565b67ffffffffffffffff81111561514357615142614b51565b5b61514d8254614a3d565b615158828285614c9f565b600060209050601f83116001811461518b5760008415615179578287015190505b6151838582614d10565b8655506151eb565b601f19841661519986614b80565b60005b828110156151c15784890151825560018201915060208501945060208101905061519c565b868310156151de57848901516151da601f891682614cf2565b8355505b6001600288020188555050505b505050505050565b60006151fe82613cea565b915061520983613cea565b9250828203905067ffffffffffffffff81111561522957615228614dfc565b5b92915050565b7f4f6e6c7920436f6d70616e6965732043616e2052657175657374000000000000600082015250565b6000615265601a8361492e565b91506152708261522f565b602082019050919050565b6000602082019050818103600083015261529481615258565b9050919050565b7f55736572204e6f74207265676973746572656400000000000000000000000000600082015250565b60006152d160138361492e565b91506152dc8261529b565b602082019050919050565b60006020820190508181036000830152615300816152c4565b9050919050565b7f596f7520446f6e277420486176652041636365737320746f2055736572000000600082015250565b600061533d601d8361492e565b915061534882615307565b602082019050919050565b6000602082019050818103600083015261536c81615330565b9050919050565b60008154905061538281614a3d565b9050919050565b81810361539757505061546f565b6153a082615373565b67ffffffffffffffff8111156153b9576153b8614b51565b5b6153c38254614a3d565b6153ce828285614c9f565b6000601f8311600181146153fd57600084156153eb578287015490505b6153f58582614d10565b865550615468565b601f19841661540b87614b80565b965061541686614b80565b60005b8281101561543e57848901548255600182019150600185019450602081019050615419565b8683101561545b5784890154615457601f891682614cf2565b8355505b6001600288020188555050505b5050505050505b56fea2646970667358221220b4852ebd4033b146c08749e86fdc410510ef0b8afa6e0813f0055ef068d21dc464736f6c63430008130033",
  "linkReferences": {},
  "deployedLinkReferences": {}
}