{
  "_format": "hh-sol-artifact-1",
  "contractName": "DeID",
  "sourceName": "contracts/DeID.sol",
  "abi": [
    {
      "inputs": [],
      "stateMutability": "nonpayable",
      "type": "constructor"
    },
    {
      "inputs": [
        {
          "internalType": "uint256",
          "name": "_id",
          "type": "uint256"
        }
      ],
      "name": "acceptDetails",
      "outputs": [],
      "stateMutability": "nonpayable",
      "type": "function"
    },
    {
      "inputs": [],
      "name": "accessedCompanies",
      "outputs": [
        {
          "components": [
            {
              "internalType": "address",
              "name": "Address",
              "type": "address"
            },
            {
              "internalType": "bool",
              "name": "DOB",
              "type": "bool"
            },
            {
              "internalType": "bool",
              "name": "Phone",
              "type": "bool"
            },
            {
              "internalType": "bool",
              "name": "Name",
              "type": "bool"
            },
            {
              "internalType": "bool",
              "name": "Image",
              "type": "bool"
            },
            {
              "internalType": "bool[]",
              "name": "Folders",
              "type": "bool[]"
            }
          ],
          "internalType": "struct DeID.Request[]",
          "name": "",
          "type": "tuple[]"
        }
      ],
      "stateMutability": "view",
      "type": "function"
    },
    {
      "inputs": [
        {
          "internalType": "uint256",
          "name": "_id",
          "type": "uint256"
        },
        {
          "internalType": "string",
          "name": "_hash",
          "type": "string"
        }
      ],
      "name": "addDocs",
      "outputs": [],
      "stateMutability": "nonpayable",
      "type": "function"
    },
    {
      "inputs": [
        {
          "internalType": "address",
          "name": "_address",
          "type": "address"
        }
      ],
      "name": "companyDetails",
      "outputs": [
        {
          "components": [
            {
              "internalType": "uint64",
              "name": "Phone",
              "type": "uint64"
            },
            {
              "internalType": "string",
              "name": "RegistrationId",
              "type": "string"
            },
            {
              "internalType": "string",
              "name": "Name",
              "type": "string"
            },
            {
              "internalType": "string",
              "name": "Image",
              "type": "string"
            },
            {
              "internalType": "string[]",
              "name": "Employee",
              "type": "string[]"
            }
          ],
          "internalType": "struct DeID.Company",
          "name": "",
          "type": "tuple"
        }
      ],
      "stateMutability": "view",
      "type": "function"
    },
    {
      "inputs": [
        {
          "internalType": "uint64",
          "name": "Phone",
          "type": "uint64"
        },
        {
          "internalType": "string",
          "name": "RegistrationId",
          "type": "string"
        },
        {
          "internalType": "string",
          "name": "Name",
          "type": "string"
        },
        {
          "internalType": "string",
          "name": "Image",
          "type": "string"
        }
      ],
      "name": "createCompany",
      "outputs": [],
      "stateMutability": "nonpayable",
      "type": "function"
    },
    {
      "inputs": [
        {
          "internalType": "string",
          "name": "DOB",
          "type": "string"
        },
        {
          "internalType": "uint64",
          "name": "Phone",
          "type": "uint64"
        },
        {
          "internalType": "string",
          "name": "Name",
          "type": "string"
        },
        {
          "internalType": "string",
          "name": "Image",
          "type": "string"
        }
      ],
      "name": "createUser",
      "outputs": [],
      "stateMutability": "nonpayable",
      "type": "function"
    },
    {
      "inputs": [],
      "name": "ifRegistered",
      "outputs": [
        {
          "internalType": "uint256",
          "name": "",
          "type": "uint256"
        }
      ],
      "stateMutability": "view",
      "type": "function"
    },
    {
      "inputs": [],
      "name": "owner",
      "outputs": [
        {
          "internalType": "address",
          "name": "",
          "type": "address"
        }
      ],
      "stateMutability": "view",
      "type": "function"
    },
    {
      "inputs": [
        {
          "internalType": "uint256",
          "name": "_id",
          "type": "uint256"
        }
      ],
      "name": "rejectDetails",
      "outputs": [],
      "stateMutability": "nonpayable",
      "type": "function"
    },
    {
      "inputs": [
        {
          "internalType": "address",
          "name": "_address",
          "type": "address"
        },
        {
          "internalType": "bool",
          "name": "DOB",
          "type": "bool"
        },
        {
          "internalType": "bool",
          "name": "Phone",
          "type": "bool"
        },
        {
          "internalType": "bool",
          "name": "Name",
          "type": "bool"
        },
        {
          "internalType": "bool",
          "name": "Image",
          "type": "bool"
        },
        {
          "internalType": "bool[]",
          "name": "_Folders",
          "type": "bool[]"
        }
      ],
      "name": "requestDetails",
      "outputs": [],
      "stateMutability": "nonpayable",
      "type": "function"
    },
    {
      "inputs": [
        {
          "internalType": "uint256",
          "name": "_id",
          "type": "uint256"
        }
      ],
      "name": "returnDocs",
      "outputs": [
        {
          "components": [
            {
              "internalType": "string",
              "name": "Hash",
              "type": "string"
            },
            {
              "internalType": "uint256",
              "name": "TimeAdded",
              "type": "uint256"
            }
          ],
          "internalType": "struct DeID.Documents[]",
          "name": "",
          "type": "tuple[]"
        }
      ],
      "stateMutability": "view",
      "type": "function"
    },
    {
      "inputs": [
        {
          "internalType": "address",
          "name": "Address",
          "type": "address"
        }
      ],
      "name": "returnUserDocs",
      "outputs": [
        {
          "components": [
            {
              "internalType": "string",
              "name": "Hash",
              "type": "string"
            },
            {
              "internalType": "uint256",
              "name": "TimeAdded",
              "type": "uint256"
            }
          ],
          "internalType": "struct DeID.Documents[]",
          "name": "",
          "type": "tuple[]"
        }
      ],
      "stateMutability": "view",
      "type": "function"
    },
    {
      "inputs": [],
      "name": "returnUserRequests",
      "outputs": [
        {
          "components": [
            {
              "internalType": "address",
              "name": "Address",
              "type": "address"
            },
            {
              "internalType": "bool",
              "name": "DOB",
              "type": "bool"
            },
            {
              "internalType": "bool",
              "name": "Phone",
              "type": "bool"
            },
            {
              "internalType": "bool",
              "name": "Name",
              "type": "bool"
            },
            {
              "internalType": "bool",
              "name": "Image",
              "type": "bool"
            },
            {
              "internalType": "bool[]",
              "name": "Folders",
              "type": "bool[]"
            }
          ],
          "internalType": "struct DeID.Request[]",
          "name": "",
          "type": "tuple[]"
        }
      ],
      "stateMutability": "view",
      "type": "function"
    },
    {
      "inputs": [],
      "name": "returnUsersData",
      "outputs": [
        {
          "components": [
            {
              "internalType": "string",
              "name": "DOB",
              "type": "string"
            },
            {
              "internalType": "uint64",
              "name": "_foldCount",
              "type": "uint64"
            },
            {
              "internalType": "uint64",
              "name": "Phone",
              "type": "uint64"
            },
            {
              "internalType": "address",
              "name": "Address",
              "type": "address"
            },
            {
              "internalType": "string",
              "name": "Name",
              "type": "string"
            },
            {
              "internalType": "string",
              "name": "Image",
              "type": "string"
            },
            {
              "internalType": "string[]",
              "name": "Folders",
              "type": "string[]"
            }
          ],
          "internalType": "struct DeID.User[]",
          "name": "",
          "type": "tuple[]"
        }
      ],
      "stateMutability": "view",
      "type": "function"
    },
    {
      "inputs": [
        {
          "internalType": "address",
          "name": "Address",
          "type": "address"
        }
      ],
      "name": "revokeAccess",
      "outputs": [],
      "stateMutability": "nonpayable",
      "type": "function"
    },
    {
      "inputs": [],
      "name": "userDetails",
      "outputs": [
        {
          "components": [
            {
              "internalType": "string",
              "name": "DOB",
              "type": "string"
            },
            {
              "internalType": "uint64",
              "name": "_foldCount",
              "type": "uint64"
            },
            {
              "internalType": "uint64",
              "name": "Phone",
              "type": "uint64"
            },
            {
              "internalType": "address",
              "name": "Address",
              "type": "address"
            },
            {
              "internalType": "string",
              "name": "Name",
              "type": "string"
            },
            {
              "internalType": "string",
              "name": "Image",
              "type": "string"
            },
            {
              "internalType": "string[]",
              "name": "Folders",
              "type": "string[]"
            }
          ],
          "internalType": "struct DeID.User",
          "name": "",
          "type": "tuple"
        }
      ],
      "stateMutability": "view",
      "type": "function"
    }
  ],
  "bytecode": "0x608060405234801561001057600080fd5b50336000806101000a81548173ffffffffffffffffffffffffffffffffffffffff021916908373ffffffffffffffffffffffffffffffffffffffff160217905550615eaa80620000616000396000f3fe608060405234801561001057600080fd5b50600436106101005760003560e01c80638da5cb5b11610097578063b9ceddb111610066578063b9ceddb114610275578063df56fbe014610291578063e5851b08146102ad578063efcc2029146102dd57610100565b80638da5cb5b1461020157806394732e6f1461021f5780639c3c59341461023d578063a128a9dc1461025957610100565b806342f39804116100d357806342f398041461018d5780635129514b146101a95780637b931cf3146101c757806385e68531146101e557610100565b80630882f03c146101055780630bccac01146101235780631c6ee064146101415780632b46a9b91461015d575b600080fd5b61010d61030d565b60405161011a91906148ee565b60405180910390f35b61012b610778565b6040516101389190614929565b60405180910390f35b61015b600480360381019061015691906149df565b610838565b005b61017760048036038101906101729190614ad4565b610a9a565b6040516101849190614c0f565b60405180910390f35b6101a760048036038101906101a29190614ad4565b610bdf565b005b6101b1610f12565b6040516101be9190614e46565b60405180910390f35b6101cf6110ed565b6040516101dc9190614f19565b60405180910390f35b6101ff60048036038101906101fa9190614f67565b611513565b005b61020961210c565b6040516102169190614fa3565b60405180910390f35b610227612130565b6040516102349190614e46565b60405180910390f35b61025760048036038101906102529190614fbe565b612397565b005b610273600480360381019061026e9190614ad4565b6127fd565b005b61028f600480360381019061028a9190615109565b6135e7565b005b6102ab60048036038101906102a691906151b8565b6139f2565b005b6102c760048036038101906102c29190614f67565b613bcb565b6040516102d491906152a3565b60405180910390f35b6102f760048036038101906102f29190614f67565b613edf565b6040516103049190614c0f565b60405180910390f35b6060600660003373ffffffffffffffffffffffffffffffffffffffff1673ffffffffffffffffffffffffffffffffffffffff16815260200190815260200160002060009054906101000a900460ff1661039b576040517f08c379a000000000000000000000000000000000000000000000000000000000815260040161039290615322565b60405180910390fd5b60086000336040516020016103b0919061538a565b604051602081830303815290604052805190602001208152602001908152602001600020805480602002602001604051908101604052809291908181526020016000905b8282101561076f57838290600052602060002090600602016040518060e0016040529081600082018054610427906153d4565b80601f0160208091040260200160405190810160405280929190818152602001828054610453906153d4565b80156104a05780601f10610475576101008083540402835291602001916104a0565b820191906000526020600020905b81548152906001019060200180831161048357829003601f168201915b505050505081526020016001820160009054906101000a900467ffffffffffffffff1667ffffffffffffffff1667ffffffffffffffff1681526020016001820160089054906101000a900467ffffffffffffffff1667ffffffffffffffff1667ffffffffffffffff1681526020016002820160009054906101000a900473ffffffffffffffffffffffffffffffffffffffff1673ffffffffffffffffffffffffffffffffffffffff1673ffffffffffffffffffffffffffffffffffffffff168152602001600382018054610573906153d4565b80601f016020809104026020016040519081016040528092919081815260200182805461059f906153d4565b80156105ec5780601f106105c1576101008083540402835291602001916105ec565b820191906000526020600020905b8154815290600101906020018083116105cf57829003601f168201915b50505050508152602001600482018054610605906153d4565b80601f0160208091040260200160405190810160405280929190818152602001828054610631906153d4565b801561067e5780601f106106535761010080835404028352916020019161067e565b820191906000526020600020905b81548152906001019060200180831161066157829003601f168201915b5050505050815260200160058201805480602002602001604051908101604052809291908181526020016000905b828210156107585783829060005260206000200180546106cb906153d4565b80601f01602080910402602001604051908101604052809291908181526020018280546106f7906153d4565b80156107445780601f1061071957610100808354040283529160200191610744565b820191906000526020600020905b81548152906001019060200180831161072757829003601f168201915b5050505050815260200190600101906106ac565b5050505081525050815260200190600101906103f4565b50505050905090565b6000600360003373ffffffffffffffffffffffffffffffffffffffff1673ffffffffffffffffffffffffffffffffffffffff16815260200190815260200160002060009054906101000a900460ff16156107d55760009050610835565b600660003373ffffffffffffffffffffffffffffffffffffffff1673ffffffffffffffffffffffffffffffffffffffff16815260200190815260200160002060009054906101000a900460ff16156108305760019050610835565b600290505b90565b60001515600360003373ffffffffffffffffffffffffffffffffffffffff1673ffffffffffffffffffffffffffffffffffffffff16815260200190815260200160002060009054906101000a900460ff161515146108cb576040517f08c379a00000000000000000000000000000000000000000000000000000000081526004016108c290615451565b60405180910390fd5b60001515600660003373ffffffffffffffffffffffffffffffffffffffff1673ffffffffffffffffffffffffffffffffffffffff16815260200190815260200160002060009054906101000a900460ff1615151461095e576040517f08c379a0000000000000000000000000000000000000000000000000000000008152600401610955906154bd565b60405180910390fd5b600033604051602001610971919061538a565b604051602081830303815290604052805190602001209050876004600083815260200190815260200160002060000160006101000a81548167ffffffffffffffff021916908367ffffffffffffffff16021790555086866004600084815260200190815260200160002060010191826109eb9291906156c3565b508484600460008481526020019081526020016000206002019182610a119291906156c3565b508282600460008481526020019081526020016000206003019182610a379291906156c3565b506001600660003373ffffffffffffffffffffffffffffffffffffffff1673ffffffffffffffffffffffffffffffffffffffff16815260200190815260200160002060006101000a81548160ff0219169083151502179055505050505050505050565b60606002600033604051602001610ab1919061538a565b6040516020818303038152906040528051906020012081526020019081526020016000206000838152602001908152602001600020805480602002602001604051908101604052809291908181526020016000905b82821015610bd45783829060005260206000209060020201604051806040016040529081600082018054610b39906153d4565b80601f0160208091040260200160405190810160405280929190818152602001828054610b65906153d4565b8015610bb25780601f10610b8757610100808354040283529160200191610bb2565b820191906000526020600020905b815481529060010190602001808311610b9557829003601f168201915b5050505050815260200160018201548152505081526020019060010190610b06565b505050509050919050565b600760003373ffffffffffffffffffffffffffffffffffffffff1673ffffffffffffffffffffffffffffffffffffffff1681526020019081526020016000206001600760003373ffffffffffffffffffffffffffffffffffffffff1673ffffffffffffffffffffffffffffffffffffffff16815260200190815260200160002080549050610c6d91906157c2565b81548110610c7e57610c7d6157f6565b5b9060005260206000209060020201600760003373ffffffffffffffffffffffffffffffffffffffff1673ffffffffffffffffffffffffffffffffffffffff1681526020019081526020016000208281548110610cdd57610cdc6157f6565b5b90600052602060002090600202016000820160009054906101000a900473ffffffffffffffffffffffffffffffffffffffff168160000160006101000a81548173ffffffffffffffffffffffffffffffffffffffff021916908373ffffffffffffffffffffffffffffffffffffffff1602179055506000820160149054906101000a900460ff168160000160146101000a81548160ff0219169083151502179055506000820160159054906101000a900460ff168160000160156101000a81548160ff0219169083151502179055506000820160169054906101000a900460ff168160000160166101000a81548160ff0219169083151502179055506000820160179054906101000a900460ff168160000160176101000a81548160ff0219169083151502179055506001820181600101908054610e1c9291906141a5565b50905050600760003373ffffffffffffffffffffffffffffffffffffffff1673ffffffffffffffffffffffffffffffffffffffff168152602001908152602001600020805480610e6f57610e6e615825565b5b6001900381819060005260206000209060020201600080820160006101000a81549073ffffffffffffffffffffffffffffffffffffffff02191690556000820160146101000a81549060ff02191690556000820160156101000a81549060ff02191690556000820160166101000a81549060ff02191690556000820160176101000a81549060ff0219169055600182016000610f0b9190614205565b5050905550565b6060600960003373ffffffffffffffffffffffffffffffffffffffff1673ffffffffffffffffffffffffffffffffffffffff168152602001908152602001600020805480602002602001604051908101604052809291908181526020016000905b828210156110e457838290600052602060002090600202016040518060c00160405290816000820160009054906101000a900473ffffffffffffffffffffffffffffffffffffffff1673ffffffffffffffffffffffffffffffffffffffff1673ffffffffffffffffffffffffffffffffffffffff1681526020016000820160149054906101000a900460ff161515151581526020016000820160159054906101000a900460ff161515151581526020016000820160169054906101000a900460ff161515151581526020016000820160179054906101000a900460ff16151515158152602001600182018054806020026020016040519081016040528092919081815260200182805480156110cc57602002820191906000526020600020906000905b82829054906101000a900460ff161515815260200190600101906020826000010492830192600103820291508084116110965790505b50505050508152505081526020019060010190610f73565b50505050905090565b6110f561422d565b600360003373ffffffffffffffffffffffffffffffffffffffff1673ffffffffffffffffffffffffffffffffffffffff16815260200190815260200160002060009054906101000a900460ff16611181576040517f08c379a0000000000000000000000000000000000000000000000000000000008152600401611178906158a0565b60405180910390fd5b6001600033604051602001611196919061538a565b6040516020818303038152906040528051906020012081526020019081526020016000206040518060e00160405290816000820180546111d5906153d4565b80601f0160208091040260200160405190810160405280929190818152602001828054611201906153d4565b801561124e5780601f106112235761010080835404028352916020019161124e565b820191906000526020600020905b81548152906001019060200180831161123157829003601f168201915b505050505081526020016001820160009054906101000a900467ffffffffffffffff1667ffffffffffffffff1667ffffffffffffffff1681526020016001820160089054906101000a900467ffffffffffffffff1667ffffffffffffffff1667ffffffffffffffff1681526020016002820160009054906101000a900473ffffffffffffffffffffffffffffffffffffffff1673ffffffffffffffffffffffffffffffffffffffff1673ffffffffffffffffffffffffffffffffffffffff168152602001600382018054611321906153d4565b80601f016020809104026020016040519081016040528092919081815260200182805461134d906153d4565b801561139a5780601f1061136f5761010080835404028352916020019161139a565b820191906000526020600020905b81548152906001019060200180831161137d57829003601f168201915b505050505081526020016004820180546113b3906153d4565b80601f01602080910402602001604051908101604052809291908181526020018280546113df906153d4565b801561142c5780601f106114015761010080835404028352916020019161142c565b820191906000526020600020905b81548152906001019060200180831161140f57829003601f168201915b5050505050815260200160058201805480602002602001604051908101604052809291908181526020016000905b82821015611506578382906000526020600020018054611479906153d4565b80601f01602080910402602001604051908101604052809291908181526020018280546114a5906153d4565b80156114f25780601f106114c7576101008083540402835291602001916114f2565b820191906000526020600020905b8154815290600101906020018083116114d557829003601f168201915b50505050508152602001906001019061145a565b5050505081525050905090565b600a60008273ffffffffffffffffffffffffffffffffffffffff1673ffffffffffffffffffffffffffffffffffffffff16815260200190815260200160002060003373ffffffffffffffffffffffffffffffffffffffff1673ffffffffffffffffffffffffffffffffffffffff16815260200190815260200160002060009054906101000a900460ff166115dc576040517f08c379a00000000000000000000000000000000000000000000000000000000081526004016115d39061590c565b60405180910390fd5b6000600a60008373ffffffffffffffffffffffffffffffffffffffff1673ffffffffffffffffffffffffffffffffffffffff16815260200190815260200160002060003373ffffffffffffffffffffffffffffffffffffffff1673ffffffffffffffffffffffffffffffffffffffff16815260200190815260200160002060006101000a81548160ff02191690831515021790555060005b6001600960003373ffffffffffffffffffffffffffffffffffffffff1673ffffffffffffffffffffffffffffffffffffffff168152602001908152602001600020805490506116c391906157c2565b811015611cbe578173ffffffffffffffffffffffffffffffffffffffff16600960003373ffffffffffffffffffffffffffffffffffffffff1673ffffffffffffffffffffffffffffffffffffffff1681526020019081526020016000208281548110611732576117316157f6565b5b906000526020600020906002020160000160009054906101000a900473ffffffffffffffffffffffffffffffffffffffff1673ffffffffffffffffffffffffffffffffffffffff1603611cab57600b60003373ffffffffffffffffffffffffffffffffffffffff1673ffffffffffffffffffffffffffffffffffffffff168152602001908152602001600020600960003373ffffffffffffffffffffffffffffffffffffffff1673ffffffffffffffffffffffffffffffffffffffff168152602001908152602001600020828154811061180f5761180e6157f6565b5b906000526020600020906002020190806001815401808255809150506001900390600052602060002090600202016000909190919091506000820160009054906101000a900473ffffffffffffffffffffffffffffffffffffffff168160000160006101000a81548173ffffffffffffffffffffffffffffffffffffffff021916908373ffffffffffffffffffffffffffffffffffffffff1602179055506000820160149054906101000a900460ff168160000160146101000a81548160ff0219169083151502179055506000820160159054906101000a900460ff168160000160156101000a81548160ff0219169083151502179055506000820160169054906101000a900460ff168160000160166101000a81548160ff0219169083151502179055506000820160179054906101000a900460ff168160000160176101000a81548160ff02191690831515021790555060018201816001019080546119779291906141a5565b505050600960003373ffffffffffffffffffffffffffffffffffffffff1673ffffffffffffffffffffffffffffffffffffffff1681526020019081526020016000206001600960003373ffffffffffffffffffffffffffffffffffffffff1673ffffffffffffffffffffffffffffffffffffffff16815260200190815260200160002080549050611a0891906157c2565b81548110611a1957611a186157f6565b5b9060005260206000209060020201600960003373ffffffffffffffffffffffffffffffffffffffff1673ffffffffffffffffffffffffffffffffffffffff1681526020019081526020016000208281548110611a7857611a776157f6565b5b90600052602060002090600202016000820160009054906101000a900473ffffffffffffffffffffffffffffffffffffffff168160000160006101000a81548173ffffffffffffffffffffffffffffffffffffffff021916908373ffffffffffffffffffffffffffffffffffffffff1602179055506000820160149054906101000a900460ff168160000160146101000a81548160ff0219169083151502179055506000820160159054906101000a900460ff168160000160156101000a81548160ff0219169083151502179055506000820160169054906101000a900460ff168160000160166101000a81548160ff0219169083151502179055506000820160179054906101000a900460ff168160000160176101000a81548160ff0219169083151502179055506001820181600101908054611bb79291906141a5565b50905050600960003373ffffffffffffffffffffffffffffffffffffffff1673ffffffffffffffffffffffffffffffffffffffff168152602001908152602001600020805480611c0a57611c09615825565b5b6001900381819060005260206000209060020201600080820160006101000a81549073ffffffffffffffffffffffffffffffffffffffff02191690556000820160146101000a81549060ff02191690556000820160156101000a81549060ff02191690556000820160166101000a81549060ff02191690556000820160176101000a81549060ff0219169055600182016000611ca69190614205565b505090555b8080611cb69061592c565b915050611674565b5060005b6008600083604051602001611cd7919061538a565b60405160208183030381529060405280519060200120815260200190815260200160002080549050811015612108573373ffffffffffffffffffffffffffffffffffffffff166008600084604051602001611d32919061538a565b6040516020818303038152906040528051906020012081526020019081526020016000208281548110611d6857611d676157f6565b5b906000526020600020906006020160020160009054906101000a900473ffffffffffffffffffffffffffffffffffffffff1673ffffffffffffffffffffffffffffffffffffffff16036120f5576008600083604051602001611dca919061538a565b60405160208183030381529060405280519060200120815260200190815260200160002060016008600085604051602001611e05919061538a565b60405160208183030381529060405280519060200120815260200190815260200160002080549050611e3791906157c2565b81548110611e4857611e476157f6565b5b90600052602060002090600602016008600084604051602001611e6b919061538a565b6040516020818303038152906040528051906020012081526020019081526020016000208281548110611ea157611ea06157f6565b5b906000526020600020906006020160008201816000019081611ec3919061598a565b506001820160009054906101000a900467ffffffffffffffff168160010160006101000a81548167ffffffffffffffff021916908367ffffffffffffffff1602179055506001820160089054906101000a900467ffffffffffffffff168160010160086101000a81548167ffffffffffffffff021916908367ffffffffffffffff1602179055506002820160009054906101000a900473ffffffffffffffffffffffffffffffffffffffff168160020160006101000a81548173ffffffffffffffffffffffffffffffffffffffff021916908373ffffffffffffffffffffffffffffffffffffffff16021790555060038201816003019081611fc5919061598a565b5060048201816004019081611fda919061598a565b506005820181600501908054611ff1929190614294565b50905050600860008360405160200161200a919061538a565b60405160208183030381529060405280519060200120815260200190815260200160002080548061203e5761203d615825565b5b60019003818190600052602060002090600602016000808201600061206391906142f1565b6001820160006101000a81549067ffffffffffffffff02191690556001820160086101000a81549067ffffffffffffffff02191690556002820160006101000a81549073ffffffffffffffffffffffffffffffffffffffff02191690556003820160006120d091906142f1565b6004820160006120e091906142f1565b6005820160006120f09190614331565b505090555b80806121009061592c565b915050611cc2565b5050565b60008054906101000a900473ffffffffffffffffffffffffffffffffffffffff1681565b6060600360003373ffffffffffffffffffffffffffffffffffffffff1673ffffffffffffffffffffffffffffffffffffffff16815260200190815260200160002060009054906101000a900460ff166121be576040517f08c379a00000000000000000000000000000000000000000000000000000000081526004016121b590615abe565b60405180910390fd5b600760003373ffffffffffffffffffffffffffffffffffffffff1673ffffffffffffffffffffffffffffffffffffffff168152602001908152602001600020805480602002602001604051908101604052809291908181526020016000905b8282101561238e57838290600052602060002090600202016040518060c00160405290816000820160009054906101000a900473ffffffffffffffffffffffffffffffffffffffff1673ffffffffffffffffffffffffffffffffffffffff1673ffffffffffffffffffffffffffffffffffffffff1681526020016000820160149054906101000a900460ff161515151581526020016000820160159054906101000a900460ff161515151581526020016000820160169054906101000a900460ff161515151581526020016000820160179054906101000a900460ff161515151581526020016001820180548060200260200160405190810160405280929190818152602001828054801561237657602002820191906000526020600020906000905b82829054906101000a900460ff161515815260200190600101906020826000010492830192600103820291508084116123405790505b5050505050815250508152602001906001019061221d565b50505050905090565b60001515600360003373ffffffffffffffffffffffffffffffffffffffff1673ffffffffffffffffffffffffffffffffffffffff16815260200190815260200160002060009054906101000a900460ff1615151461242a576040517f08c379a000000000000000000000000000000000000000000000000000000000815260040161242190615b2a565b60405180910390fd5b60001515600660003373ffffffffffffffffffffffffffffffffffffffff1673ffffffffffffffffffffffffffffffffffffffff16815260200190815260200160002060009054906101000a900460ff161515146124bd576040517f08c379a00000000000000000000000000000000000000000000000000000000081526004016124b490615b96565b60405180910390fd5b6000336040516020016124d0919061538a565b604051602081830303815290604052805190602001209050878760016000848152602001908152602001600020600001918261250d9291906156c3565b5060036001600083815260200190815260200160002060010160006101000a81548167ffffffffffffffff021916908367ffffffffffffffff1602179055506001600082815260200190815260200160002060050180600181540180825580915050600190039060005260206000200160006040518060400160405280600781526020017f4d65646963616c00000000000000000000000000000000000000000000000000815250909190915090816125c69190615bb6565b506001600082815260200190815260200160002060050180600181540180825580915050600190039060005260206000200160006040518060400160405280600981526020017f41636164656d6963730000000000000000000000000000000000000000000000815250909190915090816126419190615bb6565b506001600082815260200190815260200160002060050180600181540180825580915050600190039060005260206000200160006040518060400160405280600481526020017f42616e6b00000000000000000000000000000000000000000000000000000000815250909190915090816126bc9190615bb6565b50856001600083815260200190815260200160002060010160086101000a81548167ffffffffffffffff021916908367ffffffffffffffff160217905550848460016000848152602001908152602001600020600301918261271f9291906156c3565b50336001600083815260200190815260200160002060020160006101000a81548173ffffffffffffffffffffffffffffffffffffffff021916908373ffffffffffffffffffffffffffffffffffffffff160217905550828260016000848152602001908152602001600020600401918261279a9291906156c3565b506001600360003373ffffffffffffffffffffffffffffffffffffffff1673ffffffffffffffffffffffffffffffffffffffff16815260200190815260200160002060006101000a81548160ff0219169083151502179055505050505050505050565b6000600760003373ffffffffffffffffffffffffffffffffffffffff1673ffffffffffffffffffffffffffffffffffffffff16815260200190815260200160002082815481106128505761284f6157f6565b5b90600052602060002090600202016040518060c00160405290816000820160009054906101000a900473ffffffffffffffffffffffffffffffffffffffff1673ffffffffffffffffffffffffffffffffffffffff1673ffffffffffffffffffffffffffffffffffffffff1681526020016000820160149054906101000a900460ff161515151581526020016000820160159054906101000a900460ff161515151581526020016000820160169054906101000a900460ff161515151581526020016000820160179054906101000a900460ff161515151581526020016001820180548060200260200160405190810160405280929190818152602001828054801561299f57602002820191906000526020600020906000905b82829054906101000a900460ff161515815260200190600101906020826000010492830192600103820291508084116129695790505b5050505050815250509050600060016000336040516020016129c1919061538a565b6040516020818303038152906040528051906020012081526020019081526020016000206040518060e0016040529081600082018054612a00906153d4565b80601f0160208091040260200160405190810160405280929190818152602001828054612a2c906153d4565b8015612a795780601f10612a4e57610100808354040283529160200191612a79565b820191906000526020600020905b815481529060010190602001808311612a5c57829003601f168201915b505050505081526020016001820160009054906101000a900467ffffffffffffffff1667ffffffffffffffff1667ffffffffffffffff1681526020016001820160089054906101000a900467ffffffffffffffff1667ffffffffffffffff1667ffffffffffffffff1681526020016002820160009054906101000a900473ffffffffffffffffffffffffffffffffffffffff1673ffffffffffffffffffffffffffffffffffffffff1673ffffffffffffffffffffffffffffffffffffffff168152602001600382018054612b4c906153d4565b80601f0160208091040260200160405190810160405280929190818152602001828054612b78906153d4565b8015612bc55780601f10612b9a57610100808354040283529160200191612bc5565b820191906000526020600020905b815481529060010190602001808311612ba857829003601f168201915b50505050508152602001600482018054612bde906153d4565b80601f0160208091040260200160405190810160405280929190818152602001828054612c0a906153d4565b8015612c575780601f10612c2c57610100808354040283529160200191612c57565b820191906000526020600020905b815481529060010190602001808311612c3a57829003601f168201915b5050505050815260200160058201805480602002602001604051908101604052809291908181526020016000905b82821015612d31578382906000526020600020018054612ca4906153d4565b80601f0160208091040260200160405190810160405280929190818152602001828054612cd0906153d4565b8015612d1d5780601f10612cf257610100808354040283529160200191612d1d565b820191906000526020600020905b815481529060010190602001808311612d0057829003601f168201915b505050505081526020019060010190612c85565b50505050815250509050612d4361422d565b8160200151816020019067ffffffffffffffff16908167ffffffffffffffff16815250508160600151816060019073ffffffffffffffffffffffffffffffffffffffff16908173ffffffffffffffffffffffffffffffffffffffff16815250508160c001518160c00181905250826020015115612dc857816000015181600001819052505b826040015115612df7578160400151816040019067ffffffffffffffff16908167ffffffffffffffff16815250505b826060015115612e0f57816080015181608001819052505b826080015115612e27578160a001518160a001819052505b60005b60018360200151612e3b9190615c88565b67ffffffffffffffff16811015612f5b578360a001518181518110612e6357612e626157f6565b5b602002602001015115612f48576002600033604051602001612e85919061538a565b6040516020818303038152906040528051906020012081526020019081526020016000206000828152602001908152602001600020600560008660000151604051602001612ed3919061538a565b60405160208183030381529060405280519060200120815260200190815260200160002060003373ffffffffffffffffffffffffffffffffffffffff1673ffffffffffffffffffffffffffffffffffffffff168152602001908152602001600020908054612f42929190614352565b50612f5b565b8080612f539061592c565b915050612e2a565b50600860008460000151604051602001612f75919061538a565b6040516020818303038152906040528051906020012081526020019081526020016000208190806001815401808255809150506001900390600052602060002090600602016000909190919091506000820151816000019081612fd89190615bb6565b5060208201518160010160006101000a81548167ffffffffffffffff021916908367ffffffffffffffff16021790555060408201518160010160086101000a81548167ffffffffffffffff021916908367ffffffffffffffff16021790555060608201518160020160006101000a81548173ffffffffffffffffffffffffffffffffffffffff021916908373ffffffffffffffffffffffffffffffffffffffff16021790555060808201518160030190816130939190615bb6565b5060a08201518160040190816130a99190615bb6565b5060c08201518160050190805190602001906130c69291906143c9565b505050600960003373ffffffffffffffffffffffffffffffffffffffff1673ffffffffffffffffffffffffffffffffffffffff16815260200190815260200160002083908060018154018082558091505060019003906000526020600020906002020160009091909190915060008201518160000160006101000a81548173ffffffffffffffffffffffffffffffffffffffff021916908373ffffffffffffffffffffffffffffffffffffffff16021790555060208201518160000160146101000a81548160ff02191690831515021790555060408201518160000160156101000a81548160ff02191690831515021790555060608201518160000160166101000a81548160ff02191690831515021790555060808201518160000160176101000a81548160ff02191690831515021790555060a0820151816001019080519060200190613215929190614422565b5050506001600a6000856000015173ffffffffffffffffffffffffffffffffffffffff1673ffffffffffffffffffffffffffffffffffffffff16815260200190815260200160002060003373ffffffffffffffffffffffffffffffffffffffff1673ffffffffffffffffffffffffffffffffffffffff16815260200190815260200160002060006101000a81548160ff021916908315150217905550600760003373ffffffffffffffffffffffffffffffffffffffff1673ffffffffffffffffffffffffffffffffffffffff1681526020019081526020016000206001600760003373ffffffffffffffffffffffffffffffffffffffff1673ffffffffffffffffffffffffffffffffffffffff1681526020019081526020016000208054905061333f91906157c2565b815481106133505761334f6157f6565b5b9060005260206000209060020201600760003373ffffffffffffffffffffffffffffffffffffffff1673ffffffffffffffffffffffffffffffffffffffff16815260200190815260200160002085815481106133af576133ae6157f6565b5b90600052602060002090600202016000820160009054906101000a900473ffffffffffffffffffffffffffffffffffffffff168160000160006101000a81548173ffffffffffffffffffffffffffffffffffffffff021916908373ffffffffffffffffffffffffffffffffffffffff1602179055506000820160149054906101000a900460ff168160000160146101000a81548160ff0219169083151502179055506000820160159054906101000a900460ff168160000160156101000a81548160ff0219169083151502179055506000820160169054906101000a900460ff168160000160166101000a81548160ff0219169083151502179055506000820160179054906101000a900460ff168160000160176101000a81548160ff02191690831515021790555060018201816001019080546134ee9291906141a5565b50905050600760003373ffffffffffffffffffffffffffffffffffffffff1673ffffffffffffffffffffffffffffffffffffffff16815260200190815260200160002080548061354157613540615825565b5b6001900381819060005260206000209060020201600080820160006101000a81549073ffffffffffffffffffffffffffffffffffffffff02191690556000820160146101000a81549060ff02191690556000820160156101000a81549060ff02191690556000820160166101000a81549060ff02191690556000820160176101000a81549060ff02191690556001820160006135dd9190614205565b5050905550505050565b600660003373ffffffffffffffffffffffffffffffffffffffff1673ffffffffffffffffffffffffffffffffffffffff16815260200190815260200160002060009054906101000a900460ff16613673576040517f08c379a000000000000000000000000000000000000000000000000000000000815260040161366a90615d10565b60405180910390fd5b600360008873ffffffffffffffffffffffffffffffffffffffff1673ffffffffffffffffffffffffffffffffffffffff16815260200190815260200160002060009054906101000a900460ff166136ff576040517f08c379a00000000000000000000000000000000000000000000000000000000081526004016136f690615d7c565b60405180910390fd5b60001515600a60003373ffffffffffffffffffffffffffffffffffffffff1673ffffffffffffffffffffffffffffffffffffffff16815260200190815260200160002060008973ffffffffffffffffffffffffffffffffffffffff1673ffffffffffffffffffffffffffffffffffffffff16815260200190815260200160002060009054906101000a900460ff161515146137cf576040517f08c379a00000000000000000000000000000000000000000000000000000000081526004016137c690615de8565b60405180910390fd5b6137d76144c8565b33816000019073ffffffffffffffffffffffffffffffffffffffff16908173ffffffffffffffffffffffffffffffffffffffff168152505086816020019015159081151581525050858160400190151590811515815250508481606001901515908115158152505083816080019015159081151581525050828280806020026020016040519081016040528093929190818152602001838360200280828437600081840152601f19601f820116905080830192505050505050508160a00181905250600760008973ffffffffffffffffffffffffffffffffffffffff1673ffffffffffffffffffffffffffffffffffffffff16815260200190815260200160002081908060018154018082558091505060019003906000526020600020906002020160009091909190915060008201518160000160006101000a81548173ffffffffffffffffffffffffffffffffffffffff021916908373ffffffffffffffffffffffffffffffffffffffff16021790555060208201518160000160146101000a81548160ff02191690831515021790555060408201518160000160156101000a81548160ff02191690831515021790555060608201518160000160166101000a81548160ff02191690831515021790555060808201518160000160176101000a81548160ff02191690831515021790555060a08201518160010190805190602001906139e5929190614422565b5050505050505050505050565b600360003373ffffffffffffffffffffffffffffffffffffffff1673ffffffffffffffffffffffffffffffffffffffff16815260200190815260200160002060009054906101000a900460ff1680613a935750600660003373ffffffffffffffffffffffffffffffffffffffff1673ffffffffffffffffffffffffffffffffffffffff16815260200190815260200160002060009054906101000a900460ff165b613ad2576040517f08c379a0000000000000000000000000000000000000000000000000000000008152600401613ac9906158a0565b60405180910390fd5b6000604051806040016040528084848080601f016020809104026020016040519081016040528093929190818152602001838380828437600081840152601f19601f8201169050808301925050505050505081526020014281525090506002600033604051602001613b44919061538a565b60405160208183030381529060405280519060200120815260200190815260200160002060008581526020019081526020016000208190806001815401808255809150506001900390600052602060002090600202016000909190919091506000820151816000019081613bb89190615bb6565b5060208201518160010155505050505050565b613bd361451c565b6004600083604051602001613be8919061538a565b6040516020818303038152906040528051906020012081526020019081526020016000206040518060a00160405290816000820160009054906101000a900467ffffffffffffffff1667ffffffffffffffff1667ffffffffffffffff168152602001600182018054613c59906153d4565b80601f0160208091040260200160405190810160405280929190818152602001828054613c85906153d4565b8015613cd25780601f10613ca757610100808354040283529160200191613cd2565b820191906000526020600020905b815481529060010190602001808311613cb557829003601f168201915b50505050508152602001600282018054613ceb906153d4565b80601f0160208091040260200160405190810160405280929190818152602001828054613d17906153d4565b8015613d645780601f10613d3957610100808354040283529160200191613d64565b820191906000526020600020905b815481529060010190602001808311613d4757829003601f168201915b50505050508152602001600382018054613d7d906153d4565b80601f0160208091040260200160405190810160405280929190818152602001828054613da9906153d4565b8015613df65780601f10613dcb57610100808354040283529160200191613df6565b820191906000526020600020905b815481529060010190602001808311613dd957829003601f168201915b5050505050815260200160048201805480602002602001604051908101604052809291908181526020016000905b82821015613ed0578382906000526020600020018054613e43906153d4565b80601f0160208091040260200160405190810160405280929190818152602001828054613e6f906153d4565b8015613ebc5780601f10613e9157610100808354040283529160200191613ebc565b820191906000526020600020905b815481529060010190602001808311613e9f57829003601f168201915b505050505081526020019060010190613e24565b50505050815250509050919050565b6060600660003373ffffffffffffffffffffffffffffffffffffffff1673ffffffffffffffffffffffffffffffffffffffff16815260200190815260200160002060009054906101000a900460ff16613f6d576040517f08c379a0000000000000000000000000000000000000000000000000000000008152600401613f6490615322565b60405180910390fd5b600a60003373ffffffffffffffffffffffffffffffffffffffff1673ffffffffffffffffffffffffffffffffffffffff16815260200190815260200160002060008373ffffffffffffffffffffffffffffffffffffffff1673ffffffffffffffffffffffffffffffffffffffff16815260200190815260200160002060009054906101000a900460ff16614036576040517f08c379a000000000000000000000000000000000000000000000000000000000815260040161402d90615e54565b60405180910390fd5b600560003360405160200161404b919061538a565b60405160208183030381529060405280519060200120815260200190815260200160002060008373ffffffffffffffffffffffffffffffffffffffff1673ffffffffffffffffffffffffffffffffffffffff168152602001908152602001600020805480602002602001604051908101604052809291908181526020016000905b8282101561419a57838290600052602060002090600202016040518060400160405290816000820180546140ff906153d4565b80601f016020809104026020016040519081016040528092919081815260200182805461412b906153d4565b80156141785780601f1061414d57610100808354040283529160200191614178565b820191906000526020600020905b81548152906001019060200180831161415b57829003601f168201915b50505050508152602001600182015481525050815260200190600101906140cc565b505050509050919050565b82805482825590600052602060002090601f016020900481019282156141f457600052602060002091601f016020900482015b828111156141f35782548255916001019190600101906141d8565b5b5090506142019190614555565b5090565b50805460008255601f01602090049060005260206000209081019061422a9190614555565b50565b6040518060e0016040528060608152602001600067ffffffffffffffff168152602001600067ffffffffffffffff168152602001600073ffffffffffffffffffffffffffffffffffffffff1681526020016060815260200160608152602001606081525090565b8280548282559060005260206000209081019282156142e05760005260206000209182015b828111156142df57828290816142cf919061598a565b50916001019190600101906142b9565b5b5090506142ed9190614572565b5090565b5080546142fd906153d4565b6000825580601f1061430f575061432e565b601f01602090049060005260206000209081019061432d9190614555565b5b50565b508054600082559060005260206000209081019061434f9190614572565b50565b8280548282559060005260206000209060020281019282156143b85760005260206000209160020282015b828111156143b75782826000820181600001908161439b919061598a565b506001820154816001015550509160020191906002019061437d565b5b5090506143c59190614596565b5090565b828054828255906000526020600020908101928215614411579160200282015b828111156144105782518290816144009190615bb6565b50916020019190600101906143e9565b5b50905061441e9190614572565b5090565b82805482825590600052602060002090601f016020900481019282156144b75791602002820160005b8382111561448857835183826101000a81548160ff021916908315150217905550926020019260010160208160000104928301926001030261444b565b80156144b55782816101000a81549060ff0219169055600101602081600001049283019260010302614488565b505b5090506144c49190614555565b5090565b6040518060c00160405280600073ffffffffffffffffffffffffffffffffffffffff168152602001600015158152602001600015158152602001600015158152602001600015158152602001606081525090565b6040518060a00160405280600067ffffffffffffffff168152602001606081526020016060815260200160608152602001606081525090565b5b8082111561456e576000816000905550600101614556565b5090565b5b80821115614592576000818161458991906142f1565b50600101614573565b5090565b5b808211156145c157600080820160006145b091906142f1565b600182016000905550600201614597565b5090565b600081519050919050565b600082825260208201905092915050565b6000819050602082019050919050565b600081519050919050565b600082825260208201905092915050565b60005b8381101561462b578082015181840152602081019050614610565b60008484015250505050565b6000601f19601f8301169050919050565b6000614653826145f1565b61465d81856145fc565b935061466d81856020860161460d565b61467681614637565b840191505092915050565b600067ffffffffffffffff82169050919050565b61469e81614681565b82525050565b600073ffffffffffffffffffffffffffffffffffffffff82169050919050565b60006146cf826146a4565b9050919050565b6146df816146c4565b82525050565b600081519050919050565b600082825260208201905092915050565b6000819050602082019050919050565b600061471d8383614648565b905092915050565b6000602082019050919050565b600061473d826146e5565b61474781856146f0565b93508360208202850161475985614701565b8060005b8581101561479557848403895281516147768582614711565b945061478183614725565b925060208a0199505060018101905061475d565b50829750879550505050505092915050565b600060e08301600083015184820360008601526147c48282614648565b91505060208301516147d96020860182614695565b5060408301516147ec6040860182614695565b5060608301516147ff60608601826146d6565b50608083015184820360808601526148178282614648565b91505060a083015184820360a08601526148318282614648565b91505060c083015184820360c086015261484b8282614732565b9150508091505092915050565b600061486483836147a7565b905092915050565b6000602082019050919050565b6000614884826145c5565b61488e81856145d0565b9350836020820285016148a0856145e1565b8060005b858110156148dc57848403895281516148bd8582614858565b94506148c88361486c565b925060208a019950506001810190506148a4565b50829750879550505050505092915050565b600060208201905081810360008301526149088184614879565b905092915050565b6000819050919050565b61492381614910565b82525050565b600060208201905061493e600083018461491a565b92915050565b600080fd5b600080fd5b61495781614681565b811461496257600080fd5b50565b6000813590506149748161494e565b92915050565b600080fd5b600080fd5b600080fd5b60008083601f84011261499f5761499e61497a565b5b8235905067ffffffffffffffff8111156149bc576149bb61497f565b5b6020830191508360018202830111156149d8576149d7614984565b5b9250929050565b60008060008060008060006080888a0312156149fe576149fd614944565b5b6000614a0c8a828b01614965565b975050602088013567ffffffffffffffff811115614a2d57614a2c614949565b5b614a398a828b01614989565b9650965050604088013567ffffffffffffffff811115614a5c57614a5b614949565b5b614a688a828b01614989565b9450945050606088013567ffffffffffffffff811115614a8b57614a8a614949565b5b614a978a828b01614989565b925092505092959891949750929550565b614ab181614910565b8114614abc57600080fd5b50565b600081359050614ace81614aa8565b92915050565b600060208284031215614aea57614ae9614944565b5b6000614af884828501614abf565b91505092915050565b600081519050919050565b600082825260208201905092915050565b6000819050602082019050919050565b614b3681614910565b82525050565b60006040830160008301518482036000860152614b598282614648565b9150506020830151614b6e6020860182614b2d565b508091505092915050565b6000614b858383614b3c565b905092915050565b6000602082019050919050565b6000614ba582614b01565b614baf8185614b0c565b935083602082028501614bc185614b1d565b8060005b85811015614bfd5784840389528151614bde8582614b79565b9450614be983614b8d565b925060208a01995050600181019050614bc5565b50829750879550505050505092915050565b60006020820190508181036000830152614c298184614b9a565b905092915050565b600081519050919050565b600082825260208201905092915050565b6000819050602082019050919050565b60008115159050919050565b614c7281614c5d565b82525050565b600081519050919050565b600082825260208201905092915050565b6000819050602082019050919050565b6000614cb08383614c69565b60208301905092915050565b6000602082019050919050565b6000614cd482614c78565b614cde8185614c83565b9350614ce983614c94565b8060005b83811015614d1a578151614d018882614ca4565b9750614d0c83614cbc565b925050600181019050614ced565b5085935050505092915050565b600060c083016000830151614d3f60008601826146d6565b506020830151614d526020860182614c69565b506040830151614d656040860182614c69565b506060830151614d786060860182614c69565b506080830151614d8b6080860182614c69565b5060a083015184820360a0860152614da38282614cc9565b9150508091505092915050565b6000614dbc8383614d27565b905092915050565b6000602082019050919050565b6000614ddc82614c31565b614de68185614c3c565b935083602082028501614df885614c4d565b8060005b85811015614e345784840389528151614e158582614db0565b9450614e2083614dc4565b925060208a01995050600181019050614dfc565b50829750879550505050505092915050565b60006020820190508181036000830152614e608184614dd1565b905092915050565b600060e0830160008301518482036000860152614e858282614648565b9150506020830151614e9a6020860182614695565b506040830151614ead6040860182614695565b506060830151614ec060608601826146d6565b5060808301518482036080860152614ed88282614648565b91505060a083015184820360a0860152614ef28282614648565b91505060c083015184820360c0860152614f0c8282614732565b9150508091505092915050565b60006020820190508181036000830152614f338184614e68565b905092915050565b614f44816146c4565b8114614f4f57600080fd5b50565b600081359050614f6181614f3b565b92915050565b600060208284031215614f7d57614f7c614944565b5b6000614f8b84828501614f52565b91505092915050565b614f9d816146c4565b82525050565b6000602082019050614fb86000830184614f94565b92915050565b60008060008060008060006080888a031215614fdd57614fdc614944565b5b600088013567ffffffffffffffff811115614ffb57614ffa614949565b5b6150078a828b01614989565b9750975050602061501a8a828b01614965565b955050604088013567ffffffffffffffff81111561503b5761503a614949565b5b6150478a828b01614989565b9450945050606088013567ffffffffffffffff81111561506a57615069614949565b5b6150768a828b01614989565b925092505092959891949750929550565b61509081614c5d565b811461509b57600080fd5b50565b6000813590506150ad81615087565b92915050565b60008083601f8401126150c9576150c861497a565b5b8235905067ffffffffffffffff8111156150e6576150e561497f565b5b60208301915083602082028301111561510257615101614984565b5b9250929050565b600080600080600080600060c0888a03121561512857615127614944565b5b60006151368a828b01614f52565b97505060206151478a828b0161509e565b96505060406151588a828b0161509e565b95505060606151698a828b0161509e565b945050608061517a8a828b0161509e565b93505060a088013567ffffffffffffffff81111561519b5761519a614949565b5b6151a78a828b016150b3565b925092505092959891949750929550565b6000806000604084860312156151d1576151d0614944565b5b60006151df86828701614abf565b935050602084013567ffffffffffffffff811115615200576151ff614949565b5b61520c86828701614989565b92509250509250925092565b600060a0830160008301516152306000860182614695565b50602083015184820360208601526152488282614648565b915050604083015184820360408601526152628282614648565b9150506060830151848203606086015261527c8282614648565b915050608083015184820360808601526152968282614732565b9150508091505092915050565b600060208201905081810360008301526152bd8184615218565b905092915050565b600082825260208201905092915050565b7f4e6f742061205265676973746572656420436f6d70616e790000000000000000600082015250565b600061530c6018836152c5565b9150615317826152d6565b602082019050919050565b6000602082019050818103600083015261533b816152ff565b9050919050565b60008160601b9050919050565b600061535a82615342565b9050919050565b600061536c8261534f565b9050919050565b61538461537f826146c4565b615361565b82525050565b60006153968284615373565b60148201915081905092915050565b7f4e487b7100000000000000000000000000000000000000000000000000000000600052602260045260246000fd5b600060028204905060018216806153ec57607f821691505b6020821081036153ff576153fe6153a5565b5b50919050565b7f436f6d70616e7920416c72656164792052656769737465726564000000000000600082015250565b600061543b601a836152c5565b915061544682615405565b602082019050919050565b6000602082019050818103600083015261546a8161542e565b9050919050565b7f5265676973746572656420617320557365720000000000000000000000000000600082015250565b60006154a76012836152c5565b91506154b282615471565b602082019050919050565b600060208201905081810360008301526154d68161549a565b9050919050565b600082905092915050565b7f4e487b7100000000000000000000000000000000000000000000000000000000600052604160045260246000fd5b60008190508160005260206000209050919050565b60006020601f8301049050919050565b600082821b905092915050565b6000600883026155797fffffffffffffffffffffffffffffffffffffffffffffffffffffffffffffffff8261553c565b615583868361553c565b95508019841693508086168417925050509392505050565b6000819050919050565b60006155c06155bb6155b684614910565b61559b565b614910565b9050919050565b6000819050919050565b6155da836155a5565b6155ee6155e6826155c7565b848454615549565b825550505050565b600090565b6156036155f6565b61560e8184846155d1565b505050565b5b81811015615632576156276000826155fb565b600181019050615614565b5050565b601f8211156156775761564881615517565b6156518461552c565b81016020851015615660578190505b61567461566c8561552c565b830182615613565b50505b505050565b600082821c905092915050565b600061569a6000198460080261567c565b1980831691505092915050565b60006156b38383615689565b9150826002028217905092915050565b6156cd83836154dd565b67ffffffffffffffff8111156156e6576156e56154e8565b5b6156f082546153d4565b6156fb828285615636565b6000601f83116001811461572a5760008415615718578287013590505b61572285826156a7565b86555061578a565b601f19841661573886615517565b60005b828110156157605784890135825560018201915060208501945060208101905061573b565b8683101561577d5784890135615779601f891682615689565b8355505b6001600288020188555050505b50505050505050565b7f4e487b7100000000000000000000000000000000000000000000000000000000600052601160045260246000fd5b60006157cd82614910565b91506157d883614910565b92508282039050818111156157f0576157ef615793565b5b92915050565b7f4e487b7100000000000000000000000000000000000000000000000000000000600052603260045260246000fd5b7f4e487b7100000000000000000000000000000000000000000000000000000000600052603160045260246000fd5b7f4e6f742052656769737465726564000000000000000000000000000000000000600082015250565b600061588a600e836152c5565b915061589582615854565b602082019050919050565b600060208201905081810360008301526158b98161587d565b9050919050565b7f41636365737320416c7265616479205265766f6b656400000000000000000000600082015250565b60006158f66016836152c5565b9150615901826158c0565b602082019050919050565b60006020820190508181036000830152615925816158e9565b9050919050565b600061593782614910565b91507fffffffffffffffffffffffffffffffffffffffffffffffffffffffffffffffff820361596957615968615793565b5b600182019050919050565b600081549050615983816153d4565b9050919050565b818103615998575050615a70565b6159a182615974565b67ffffffffffffffff8111156159ba576159b96154e8565b5b6159c482546153d4565b6159cf828285615636565b6000601f8311600181146159fe57600084156159ec578287015490505b6159f685826156a7565b865550615a69565b601f198416615a0c87615517565b9650615a1786615517565b60005b82811015615a3f57848901548255600182019150600185019450602081019050615a1a565b86831015615a5c5784890154615a58601f891682615689565b8355505b6001600288020188555050505b5050505050505b565b7f5265676973746572206173205573657200000000000000000000000000000000600082015250565b6000615aa86010836152c5565b9150615ab382615a72565b602082019050919050565b60006020820190508181036000830152615ad781615a9b565b9050919050565b7f5573657220416c72656164792052656769737465726564000000000000000000600082015250565b6000615b146017836152c5565b9150615b1f82615ade565b602082019050919050565b60006020820190508181036000830152615b4381615b07565b9050919050565b7f5265676973746572656420617320636f6d70616e790000000000000000000000600082015250565b6000615b806015836152c5565b9150615b8b82615b4a565b602082019050919050565b60006020820190508181036000830152615baf81615b73565b9050919050565b615bbf826145f1565b67ffffffffffffffff811115615bd857615bd76154e8565b5b615be282546153d4565b615bed828285615636565b600060209050601f831160018114615c205760008415615c0e578287015190505b615c1885826156a7565b865550615c80565b601f198416615c2e86615517565b60005b82811015615c5657848901518255600182019150602085019450602081019050615c31565b86831015615c735784890151615c6f601f891682615689565b8355505b6001600288020188555050505b505050505050565b6000615c9382614681565b9150615c9e83614681565b9250828203905067ffffffffffffffff811115615cbe57615cbd615793565b5b92915050565b7f4f6e6c7920436f6d70616e6965732043616e2052657175657374000000000000600082015250565b6000615cfa601a836152c5565b9150615d0582615cc4565b602082019050919050565b60006020820190508181036000830152615d2981615ced565b9050919050565b7f55736572204e6f74207265676973746572656400000000000000000000000000600082015250565b6000615d666013836152c5565b9150615d7182615d30565b602082019050919050565b60006020820190508181036000830152615d9581615d59565b9050919050565b7f43616e7400000000000000000000000000000000000000000000000000000000600082015250565b6000615dd26004836152c5565b9150615ddd82615d9c565b602082019050919050565b60006020820190508181036000830152615e0181615dc5565b9050919050565b7f596f7520446f6e277420486176652041636365737320746f2055736572000000600082015250565b6000615e3e601d836152c5565b9150615e4982615e08565b602082019050919050565b60006020820190508181036000830152615e6d81615e31565b905091905056fea26469706673582212205f0b8471116c3496e6312f709bf9397bc0c0fd0fb4c6299a743e0adf818f686764736f6c63430008130033",
  "linkReferences": {},
  "deployedLinkReferences": {}
}