{
  "_format": "hh-sol-artifact-1",
  "contractName": "DeID",
  "sourceName": "contracts/DeID.sol",
  "abi": [
    {
      "inputs": [],
      "stateMutability": "nonpayable",
      "type": "constructor"
    },
    {
      "inputs": [
        {
          "internalType": "uint256",
          "name": "_id",
          "type": "uint256"
        }
      ],
      "name": "acceptDetails",
      "outputs": [],
      "stateMutability": "nonpayable",
      "type": "function"
    },
    {
      "inputs": [
        {
          "internalType": "uint256",
          "name": "_id",
          "type": "uint256"
        },
        {
          "internalType": "string",
          "name": "_hash",
          "type": "string"
        }
      ],
      "name": "addDocs",
      "outputs": [],
      "stateMutability": "nonpayable",
      "type": "function"
    },
    {
      "inputs": [
        {
          "internalType": "address",
          "name": "_address",
          "type": "address"
        }
      ],
      "name": "companyDetails",
      "outputs": [
        {
          "components": [
            {
              "internalType": "uint64",
              "name": "Phone",
              "type": "uint64"
            },
            {
              "internalType": "uint64",
              "name": "RegistrationId",
              "type": "uint64"
            },
            {
              "internalType": "string",
              "name": "Name",
              "type": "string"
            },
            {
              "internalType": "string",
              "name": "Image",
              "type": "string"
            },
            {
              "internalType": "string[]",
              "name": "Employee",
              "type": "string[]"
            }
          ],
          "internalType": "struct DeID.Company",
          "name": "",
          "type": "tuple"
        }
      ],
      "stateMutability": "view",
      "type": "function"
    },
    {
      "inputs": [
        {
          "internalType": "uint64",
          "name": "Phone",
          "type": "uint64"
        },
        {
          "internalType": "uint64",
          "name": "RegistrationId",
          "type": "uint64"
        },
        {
          "internalType": "string",
          "name": "Name",
          "type": "string"
        },
        {
          "internalType": "string",
          "name": "Image",
          "type": "string"
        }
      ],
      "name": "createCompany",
      "outputs": [],
      "stateMutability": "nonpayable",
      "type": "function"
    },
    {
      "inputs": [
        {
          "internalType": "uint128",
          "name": "DOB",
          "type": "uint128"
        },
        {
          "internalType": "uint64",
          "name": "Phone",
          "type": "uint64"
        },
        {
          "internalType": "string",
          "name": "Name",
          "type": "string"
        },
        {
          "internalType": "string",
          "name": "Image",
          "type": "string"
        }
      ],
      "name": "createUser",
      "outputs": [],
      "stateMutability": "nonpayable",
      "type": "function"
    },
    {
      "inputs": [],
      "name": "owner",
      "outputs": [
        {
          "internalType": "address",
          "name": "",
          "type": "address"
        }
      ],
      "stateMutability": "view",
      "type": "function"
    },
    {
      "inputs": [
        {
          "internalType": "uint256",
          "name": "_id",
          "type": "uint256"
        }
      ],
      "name": "rejectDetails",
      "outputs": [],
      "stateMutability": "nonpayable",
      "type": "function"
    },
    {
      "inputs": [
        {
          "internalType": "address",
          "name": "_address",
          "type": "address"
        },
        {
          "internalType": "bool",
          "name": "DOB",
          "type": "bool"
        },
        {
          "internalType": "bool",
          "name": "Phone",
          "type": "bool"
        },
        {
          "internalType": "bool",
          "name": "Name",
          "type": "bool"
        },
        {
          "internalType": "bool",
          "name": "Image",
          "type": "bool"
        },
        {
          "internalType": "bool[]",
          "name": "_Folders",
          "type": "bool[]"
        }
      ],
      "name": "requestDetails",
      "outputs": [],
      "stateMutability": "nonpayable",
      "type": "function"
    },
    {
      "inputs": [
        {
          "internalType": "uint256",
          "name": "_id",
          "type": "uint256"
        }
      ],
      "name": "returnDocs",
      "outputs": [
        {
          "components": [
            {
              "internalType": "string",
              "name": "Hash",
              "type": "string"
            },
            {
              "internalType": "uint256",
              "name": "TimeAdded",
              "type": "uint256"
            }
          ],
          "internalType": "struct DeID.Documents[]",
          "name": "",
          "type": "tuple[]"
        }
      ],
      "stateMutability": "view",
      "type": "function"
    },
    {
      "inputs": [
        {
          "internalType": "address",
          "name": "Address",
          "type": "address"
        }
      ],
      "name": "returnUserDocs",
      "outputs": [
        {
          "components": [
            {
              "internalType": "string",
              "name": "Hash",
              "type": "string"
            },
            {
              "internalType": "uint256",
              "name": "TimeAdded",
              "type": "uint256"
            }
          ],
          "internalType": "struct DeID.Documents[]",
          "name": "",
          "type": "tuple[]"
        }
      ],
      "stateMutability": "view",
      "type": "function"
    },
    {
      "inputs": [],
      "name": "returnUserRequests",
      "outputs": [
        {
          "components": [
            {
              "internalType": "address",
              "name": "Address",
              "type": "address"
            },
            {
              "internalType": "bool",
              "name": "DOB",
              "type": "bool"
            },
            {
              "internalType": "bool",
              "name": "Phone",
              "type": "bool"
            },
            {
              "internalType": "bool",
              "name": "Name",
              "type": "bool"
            },
            {
              "internalType": "bool",
              "name": "Image",
              "type": "bool"
            },
            {
              "internalType": "bool[]",
              "name": "Folders",
              "type": "bool[]"
            }
          ],
          "internalType": "struct DeID.Request[]",
          "name": "",
          "type": "tuple[]"
        }
      ],
      "stateMutability": "view",
      "type": "function"
    },
    {
      "inputs": [],
      "name": "returnUsersData",
      "outputs": [
        {
          "components": [
            {
              "internalType": "uint128",
              "name": "DOB",
              "type": "uint128"
            },
            {
              "internalType": "uint64",
              "name": "_foldCount",
              "type": "uint64"
            },
            {
              "internalType": "uint64",
              "name": "Phone",
              "type": "uint64"
            },
            {
              "internalType": "address",
              "name": "Address",
              "type": "address"
            },
            {
              "internalType": "string",
              "name": "Name",
              "type": "string"
            },
            {
              "internalType": "string",
              "name": "Image",
              "type": "string"
            },
            {
              "internalType": "string[]",
              "name": "Folders",
              "type": "string[]"
            }
          ],
          "internalType": "struct DeID.User[]",
          "name": "",
          "type": "tuple[]"
        }
      ],
      "stateMutability": "view",
      "type": "function"
    },
    {
      "inputs": [
        {
          "internalType": "address",
          "name": "Address",
          "type": "address"
        }
      ],
      "name": "revokeAccess",
      "outputs": [],
      "stateMutability": "nonpayable",
      "type": "function"
    },
    {
      "inputs": [],
      "name": "userDetails",
      "outputs": [
        {
          "components": [
            {
              "internalType": "uint128",
              "name": "DOB",
              "type": "uint128"
            },
            {
              "internalType": "uint64",
              "name": "_foldCount",
              "type": "uint64"
            },
            {
              "internalType": "uint64",
              "name": "Phone",
              "type": "uint64"
            },
            {
              "internalType": "address",
              "name": "Address",
              "type": "address"
            },
            {
              "internalType": "string",
              "name": "Name",
              "type": "string"
            },
            {
              "internalType": "string",
              "name": "Image",
              "type": "string"
            },
            {
              "internalType": "string[]",
              "name": "Folders",
              "type": "string[]"
            }
          ],
          "internalType": "struct DeID.User",
          "name": "",
          "type": "tuple"
        }
      ],
      "stateMutability": "view",
      "type": "function"
    }
  ],
  "bytecode": "0x608060405234801561001057600080fd5b50336000806101000a81548173ffffffffffffffffffffffffffffffffffffffff021916908373ffffffffffffffffffffffffffffffffffffffff160217905550615302806100606000396000f3fe608060405234801561001057600080fd5b50600436106100ea5760003560e01c80638da5cb5b1161008c578063b9ceddb111610066578063b9ceddb114610223578063df56fbe01461023f578063e5851b081461025b578063efcc20291461028b576100ea565b80638da5cb5b146101cb57806394732e6f146101e9578063a128a9dc14610207576100ea565b80634c5e5b54116100c85780634c5e5b54146101595780637b931cf31461017557806385e68531146101935780638a0a2b94146101af576100ea565b80630882f03c146100ef5780632b46a9b91461010d57806342f398041461013d575b600080fd5b6100f76102bb565b6040516101049190613e02565b60405180910390f35b61012760048036038101906101229190613e64565b6106de565b6040516101349190613f9f565b60405180910390f35b61015760048036038101906101529190613e64565b610823565b005b610173600480360381019061016e919061407e565b610b56565b005b61017d610fe2565b60405161018a91906141cf565b60405180910390f35b6101ad60048036038101906101a8919061421d565b6113c0565b005b6101c960048036038101906101c4919061424a565b611974565b005b6101d3611bec565b6040516101e09190614300565b60405180910390f35b6101f1611c10565b6040516101fe9190614530565b60405180910390f35b610221600480360381019061021c9190613e64565b611e77565b005b61023d600480360381019061023891906145d4565b612c69565b005b61025960048036038101906102549190614683565b612fa4565b005b6102756004803603810190610270919061421d565b61317d565b6040516102829190614767565b60405180910390f35b6102a560048036038101906102a0919061421d565b613431565b6040516102b29190613f9f565b60405180910390f35b6060600660003373ffffffffffffffffffffffffffffffffffffffff1673ffffffffffffffffffffffffffffffffffffffff16815260200190815260200160002060009054906101000a900460ff16610349576040517f08c379a0000000000000000000000000000000000000000000000000000000008152600401610340906147e6565b60405180910390fd5b600860003360405160200161035e919061484e565b604051602081830303815290604052805190602001208152602001908152602001600020805480602002602001604051908101604052809291908181526020016000905b828210156106d557838290600052602060002090600502016040518060e00160405290816000820160009054906101000a90046fffffffffffffffffffffffffffffffff166fffffffffffffffffffffffffffffffff166fffffffffffffffffffffffffffffffff1681526020016000820160109054906101000a900467ffffffffffffffff1667ffffffffffffffff1667ffffffffffffffff1681526020016000820160189054906101000a900467ffffffffffffffff1667ffffffffffffffff1667ffffffffffffffff1681526020016001820160009054906101000a900473ffffffffffffffffffffffffffffffffffffffff1673ffffffffffffffffffffffffffffffffffffffff1673ffffffffffffffffffffffffffffffffffffffff1681526020016002820180546104d990614898565b80601f016020809104026020016040519081016040528092919081815260200182805461050590614898565b80156105525780601f1061052757610100808354040283529160200191610552565b820191906000526020600020905b81548152906001019060200180831161053557829003601f168201915b5050505050815260200160038201805461056b90614898565b80601f016020809104026020016040519081016040528092919081815260200182805461059790614898565b80156105e45780601f106105b9576101008083540402835291602001916105e4565b820191906000526020600020905b8154815290600101906020018083116105c757829003601f168201915b5050505050815260200160048201805480602002602001604051908101604052809291908181526020016000905b828210156106be57838290600052602060002001805461063190614898565b80601f016020809104026020016040519081016040528092919081815260200182805461065d90614898565b80156106aa5780601f1061067f576101008083540402835291602001916106aa565b820191906000526020600020905b81548152906001019060200180831161068d57829003601f168201915b505050505081526020019060010190610612565b5050505081525050815260200190600101906103a2565b50505050905090565b606060026000336040516020016106f5919061484e565b6040516020818303038152906040528051906020012081526020019081526020016000206000838152602001908152602001600020805480602002602001604051908101604052809291908181526020016000905b82821015610818578382906000526020600020906002020160405180604001604052908160008201805461077d90614898565b80601f01602080910402602001604051908101604052809291908181526020018280546107a990614898565b80156107f65780601f106107cb576101008083540402835291602001916107f6565b820191906000526020600020905b8154815290600101906020018083116107d957829003601f168201915b505050505081526020016001820154815250508152602001906001019061074a565b505050509050919050565b600760003373ffffffffffffffffffffffffffffffffffffffff1673ffffffffffffffffffffffffffffffffffffffff1681526020019081526020016000206001600760003373ffffffffffffffffffffffffffffffffffffffff1673ffffffffffffffffffffffffffffffffffffffff168152602001908152602001600020805490506108b191906148f8565b815481106108c2576108c161492c565b5b9060005260206000209060020201600760003373ffffffffffffffffffffffffffffffffffffffff1673ffffffffffffffffffffffffffffffffffffffff16815260200190815260200160002082815481106109215761092061492c565b5b90600052602060002090600202016000820160009054906101000a900473ffffffffffffffffffffffffffffffffffffffff168160000160006101000a81548173ffffffffffffffffffffffffffffffffffffffff021916908373ffffffffffffffffffffffffffffffffffffffff1602179055506000820160149054906101000a900460ff168160000160146101000a81548160ff0219169083151502179055506000820160159054906101000a900460ff168160000160156101000a81548160ff0219169083151502179055506000820160169054906101000a900460ff168160000160166101000a81548160ff0219169083151502179055506000820160179054906101000a900460ff168160000160176101000a81548160ff0219169083151502179055506001820181600101908054610a609291906136f7565b50905050600760003373ffffffffffffffffffffffffffffffffffffffff1673ffffffffffffffffffffffffffffffffffffffff168152602001908152602001600020805480610ab357610ab261495b565b5b6001900381819060005260206000209060020201600080820160006101000a81549073ffffffffffffffffffffffffffffffffffffffff02191690556000820160146101000a81549060ff02191690556000820160156101000a81549060ff02191690556000820160166101000a81549060ff02191690556000820160176101000a81549060ff0219169055600182016000610b4f9190613757565b5050905550565b60001515600360003373ffffffffffffffffffffffffffffffffffffffff1673ffffffffffffffffffffffffffffffffffffffff16815260200190815260200160002060009054906101000a900460ff16151514610be9576040517f08c379a0000000000000000000000000000000000000000000000000000000008152600401610be0906149d6565b60405180910390fd5b60001515600660003373ffffffffffffffffffffffffffffffffffffffff1673ffffffffffffffffffffffffffffffffffffffff16815260200190815260200160002060009054906101000a900460ff16151514610c7c576040517f08c379a0000000000000000000000000000000000000000000000000000000008152600401610c7390614a42565b60405180910390fd5b600033604051602001610c8f919061484e565b604051602081830303815290604052805190602001209050866001600083815260200190815260200160002060000160006101000a8154816fffffffffffffffffffffffffffffffff02191690836fffffffffffffffffffffffffffffffff16021790555060036001600083815260200190815260200160002060000160106101000a81548167ffffffffffffffff021916908367ffffffffffffffff1602179055506001600082815260200190815260200160002060040180600181540180825580915050600190039060005260206000200160006040518060400160405280600781526020017f4d65646963616c0000000000000000000000000000000000000000000000000081525090919091509081610dac9190614c3d565b506001600082815260200190815260200160002060040180600181540180825580915050600190039060005260206000200160006040518060400160405280600981526020017f41636164656d696373000000000000000000000000000000000000000000000081525090919091509081610e279190614c3d565b506001600082815260200190815260200160002060040180600181540180825580915050600190039060005260206000200160006040518060400160405280600481526020017f42616e6b0000000000000000000000000000000000000000000000000000000081525090919091509081610ea29190614c3d565b50856001600083815260200190815260200160002060000160186101000a81548167ffffffffffffffff021916908367ffffffffffffffff1602179055508484600160008481526020019081526020016000206002019182610f05929190614d1a565b50336001600083815260200190815260200160002060010160006101000a81548173ffffffffffffffffffffffffffffffffffffffff021916908373ffffffffffffffffffffffffffffffffffffffff1602179055508282600160008481526020019081526020016000206003019182610f80929190614d1a565b506001600360003373ffffffffffffffffffffffffffffffffffffffff1673ffffffffffffffffffffffffffffffffffffffff16815260200190815260200160002060006101000a81548160ff02191690831515021790555050505050505050565b610fea61377f565b600360003373ffffffffffffffffffffffffffffffffffffffff1673ffffffffffffffffffffffffffffffffffffffff16815260200190815260200160002060009054906101000a900460ff16611076576040517f08c379a000000000000000000000000000000000000000000000000000000000815260040161106d90614e36565b60405180910390fd5b600160003360405160200161108b919061484e565b6040516020818303038152906040528051906020012081526020019081526020016000206040518060e00160405290816000820160009054906101000a90046fffffffffffffffffffffffffffffffff166fffffffffffffffffffffffffffffffff166fffffffffffffffffffffffffffffffff1681526020016000820160109054906101000a900467ffffffffffffffff1667ffffffffffffffff1667ffffffffffffffff1681526020016000820160189054906101000a900467ffffffffffffffff1667ffffffffffffffff1667ffffffffffffffff1681526020016001820160009054906101000a900473ffffffffffffffffffffffffffffffffffffffff1673ffffffffffffffffffffffffffffffffffffffff1673ffffffffffffffffffffffffffffffffffffffff1681526020016002820180546111ce90614898565b80601f01602080910402602001604051908101604052809291908181526020018280546111fa90614898565b80156112475780601f1061121c57610100808354040283529160200191611247565b820191906000526020600020905b81548152906001019060200180831161122a57829003601f168201915b5050505050815260200160038201805461126090614898565b80601f016020809104026020016040519081016040528092919081815260200182805461128c90614898565b80156112d95780601f106112ae576101008083540402835291602001916112d9565b820191906000526020600020905b8154815290600101906020018083116112bc57829003601f168201915b5050505050815260200160048201805480602002602001604051908101604052809291908181526020016000905b828210156113b357838290600052602060002001805461132690614898565b80601f016020809104026020016040519081016040528092919081815260200182805461135290614898565b801561139f5780601f106113745761010080835404028352916020019161139f565b820191906000526020600020905b81548152906001019060200180831161138257829003601f168201915b505050505081526020019060010190611307565b5050505081525050905090565b600a60008273ffffffffffffffffffffffffffffffffffffffff1673ffffffffffffffffffffffffffffffffffffffff16815260200190815260200160002060003373ffffffffffffffffffffffffffffffffffffffff1673ffffffffffffffffffffffffffffffffffffffff16815260200190815260200160002060009054906101000a900460ff16611489576040517f08c379a000000000000000000000000000000000000000000000000000000000815260040161148090614ea2565b60405180910390fd5b6000600a60008373ffffffffffffffffffffffffffffffffffffffff1673ffffffffffffffffffffffffffffffffffffffff16815260200190815260200160002060003373ffffffffffffffffffffffffffffffffffffffff1673ffffffffffffffffffffffffffffffffffffffff16815260200190815260200160002060006101000a81548160ff02191690831515021790555060005b6001600960003373ffffffffffffffffffffffffffffffffffffffff1673ffffffffffffffffffffffffffffffffffffffff1681526020019081526020016000208054905061157091906148f8565b811015611970578173ffffffffffffffffffffffffffffffffffffffff16600960003373ffffffffffffffffffffffffffffffffffffffff1673ffffffffffffffffffffffffffffffffffffffff16815260200190815260200160002082815481106115df576115de61492c565b5b906000526020600020906002020160000160009054906101000a900473ffffffffffffffffffffffffffffffffffffffff1673ffffffffffffffffffffffffffffffffffffffff160361195d57600960003373ffffffffffffffffffffffffffffffffffffffff1673ffffffffffffffffffffffffffffffffffffffff1681526020019081526020016000206001600960003373ffffffffffffffffffffffffffffffffffffffff1673ffffffffffffffffffffffffffffffffffffffff168152602001908152602001600020805490506116ba91906148f8565b815481106116cb576116ca61492c565b5b9060005260206000209060020201600960003373ffffffffffffffffffffffffffffffffffffffff1673ffffffffffffffffffffffffffffffffffffffff168152602001908152602001600020828154811061172a5761172961492c565b5b90600052602060002090600202016000820160009054906101000a900473ffffffffffffffffffffffffffffffffffffffff168160000160006101000a81548173ffffffffffffffffffffffffffffffffffffffff021916908373ffffffffffffffffffffffffffffffffffffffff1602179055506000820160149054906101000a900460ff168160000160146101000a81548160ff0219169083151502179055506000820160159054906101000a900460ff168160000160156101000a81548160ff0219169083151502179055506000820160169054906101000a900460ff168160000160166101000a81548160ff0219169083151502179055506000820160179054906101000a900460ff168160000160176101000a81548160ff02191690831515021790555060018201816001019080546118699291906136f7565b50905050600960003373ffffffffffffffffffffffffffffffffffffffff1673ffffffffffffffffffffffffffffffffffffffff1681526020019081526020016000208054806118bc576118bb61495b565b5b6001900381819060005260206000209060020201600080820160006101000a81549073ffffffffffffffffffffffffffffffffffffffff02191690556000820160146101000a81549060ff02191690556000820160156101000a81549060ff02191690556000820160166101000a81549060ff02191690556000820160176101000a81549060ff02191690556001820160006119589190613757565b505090555b808061196890614ec2565b915050611521565b5050565b60001515600360003373ffffffffffffffffffffffffffffffffffffffff1673ffffffffffffffffffffffffffffffffffffffff16815260200190815260200160002060009054906101000a900460ff16151514611a07576040517f08c379a00000000000000000000000000000000000000000000000000000000081526004016119fe90614f56565b60405180910390fd5b60001515600660003373ffffffffffffffffffffffffffffffffffffffff1673ffffffffffffffffffffffffffffffffffffffff16815260200190815260200160002060009054906101000a900460ff16151514611a9a576040517f08c379a0000000000000000000000000000000000000000000000000000000008152600401611a9190614fc2565b60405180910390fd5b600033604051602001611aad919061484e565b604051602081830303815290604052805190602001209050866004600083815260200190815260200160002060000160006101000a81548167ffffffffffffffff021916908367ffffffffffffffff160217905550856004600083815260200190815260200160002060000160086101000a81548167ffffffffffffffff021916908367ffffffffffffffff1602179055508484600460008481526020019081526020016000206001019182611b64929190614d1a565b508282600460008481526020019081526020016000206002019182611b8a929190614d1a565b506001600660003373ffffffffffffffffffffffffffffffffffffffff1673ffffffffffffffffffffffffffffffffffffffff16815260200190815260200160002060006101000a81548160ff02191690831515021790555050505050505050565b60008054906101000a900473ffffffffffffffffffffffffffffffffffffffff1681565b6060600360003373ffffffffffffffffffffffffffffffffffffffff1673ffffffffffffffffffffffffffffffffffffffff16815260200190815260200160002060009054906101000a900460ff16611c9e576040517f08c379a0000000000000000000000000000000000000000000000000000000008152600401611c959061502e565b60405180910390fd5b600760003373ffffffffffffffffffffffffffffffffffffffff1673ffffffffffffffffffffffffffffffffffffffff168152602001908152602001600020805480602002602001604051908101604052809291908181526020016000905b82821015611e6e57838290600052602060002090600202016040518060c00160405290816000820160009054906101000a900473ffffffffffffffffffffffffffffffffffffffff1673ffffffffffffffffffffffffffffffffffffffff1673ffffffffffffffffffffffffffffffffffffffff1681526020016000820160149054906101000a900460ff161515151581526020016000820160159054906101000a900460ff161515151581526020016000820160169054906101000a900460ff161515151581526020016000820160179054906101000a900460ff1615151515815260200160018201805480602002602001604051908101604052809291908181526020018280548015611e5657602002820191906000526020600020906000905b82829054906101000a900460ff16151581526020019060010190602082600001049283019260010382029150808411611e205790505b50505050508152505081526020019060010190611cfd565b50505050905090565b6000600760003373ffffffffffffffffffffffffffffffffffffffff1673ffffffffffffffffffffffffffffffffffffffff1681526020019081526020016000208281548110611eca57611ec961492c565b5b90600052602060002090600202016040518060c00160405290816000820160009054906101000a900473ffffffffffffffffffffffffffffffffffffffff1673ffffffffffffffffffffffffffffffffffffffff1673ffffffffffffffffffffffffffffffffffffffff1681526020016000820160149054906101000a900460ff161515151581526020016000820160159054906101000a900460ff161515151581526020016000820160169054906101000a900460ff161515151581526020016000820160179054906101000a900460ff161515151581526020016001820180548060200260200160405190810160405280929190818152602001828054801561201957602002820191906000526020600020906000905b82829054906101000a900460ff16151581526020019060010190602082600001049283019260010382029150808411611fe35790505b50505050508152505090506000600160003360405160200161203b919061484e565b6040516020818303038152906040528051906020012081526020019081526020016000206040518060e00160405290816000820160009054906101000a90046fffffffffffffffffffffffffffffffff166fffffffffffffffffffffffffffffffff166fffffffffffffffffffffffffffffffff1681526020016000820160109054906101000a900467ffffffffffffffff1667ffffffffffffffff1667ffffffffffffffff1681526020016000820160189054906101000a900467ffffffffffffffff1667ffffffffffffffff1667ffffffffffffffff1681526020016001820160009054906101000a900473ffffffffffffffffffffffffffffffffffffffff1673ffffffffffffffffffffffffffffffffffffffff1673ffffffffffffffffffffffffffffffffffffffff16815260200160028201805461217e90614898565b80601f01602080910402602001604051908101604052809291908181526020018280546121aa90614898565b80156121f75780601f106121cc576101008083540402835291602001916121f7565b820191906000526020600020905b8154815290600101906020018083116121da57829003601f168201915b5050505050815260200160038201805461221090614898565b80601f016020809104026020016040519081016040528092919081815260200182805461223c90614898565b80156122895780601f1061225e57610100808354040283529160200191612289565b820191906000526020600020905b81548152906001019060200180831161226c57829003601f168201915b5050505050815260200160048201805480602002602001604051908101604052809291908181526020016000905b828210156123635783829060005260206000200180546122d690614898565b80601f016020809104026020016040519081016040528092919081815260200182805461230290614898565b801561234f5780601f106123245761010080835404028352916020019161234f565b820191906000526020600020905b81548152906001019060200180831161233257829003601f168201915b5050505050815260200190600101906122b7565b5050505081525050905061237561377f565b8160200151816020019067ffffffffffffffff16908167ffffffffffffffff16815250508160600151816060019073ffffffffffffffffffffffffffffffffffffffff16908173ffffffffffffffffffffffffffffffffffffffff16815250508160c001518160c0018190525082602001511561242157816000015181600001906fffffffffffffffffffffffffffffffff1690816fffffffffffffffffffffffffffffffff16815250505b826040015115612450578160400151816040019067ffffffffffffffff16908167ffffffffffffffff16815250505b82606001511561246857816080015181608001819052505b826080015115612480578160a001518160a001819052505b60005b60018360200151612494919061504e565b67ffffffffffffffff168110156125b4578360a0015181815181106124bc576124bb61492c565b5b6020026020010151156125a15760026000336040516020016124de919061484e565b604051602081830303815290604052805190602001208152602001908152602001600020600082815260200190815260200160002060056000866000015160405160200161252c919061484e565b60405160208183030381529060405280519060200120815260200190815260200160002060003373ffffffffffffffffffffffffffffffffffffffff1673ffffffffffffffffffffffffffffffffffffffff16815260200190815260200160002090805461259b9291906137f8565b506125b4565b80806125ac90614ec2565b915050612483565b506008600084600001516040516020016125ce919061484e565b60405160208183030381529060405280519060200120815260200190815260200160002081908060018154018082558091505060019003906000526020600020906005020160009091909190915060008201518160000160006101000a8154816fffffffffffffffffffffffffffffffff02191690836fffffffffffffffffffffffffffffffff16021790555060208201518160000160106101000a81548167ffffffffffffffff021916908367ffffffffffffffff16021790555060408201518160000160186101000a81548167ffffffffffffffff021916908367ffffffffffffffff16021790555060608201518160010160006101000a81548173ffffffffffffffffffffffffffffffffffffffff021916908373ffffffffffffffffffffffffffffffffffffffff16021790555060808201518160020190816127159190614c3d565b5060a082015181600301908161272b9190614c3d565b5060c082015181600401908051906020019061274892919061386f565b505050600960003373ffffffffffffffffffffffffffffffffffffffff1673ffffffffffffffffffffffffffffffffffffffff16815260200190815260200160002083908060018154018082558091505060019003906000526020600020906002020160009091909190915060008201518160000160006101000a81548173ffffffffffffffffffffffffffffffffffffffff021916908373ffffffffffffffffffffffffffffffffffffffff16021790555060208201518160000160146101000a81548160ff02191690831515021790555060408201518160000160156101000a81548160ff02191690831515021790555060608201518160000160166101000a81548160ff02191690831515021790555060808201518160000160176101000a81548160ff02191690831515021790555060a08201518160010190805190602001906128979291906138c8565b5050506001600a6000856000015173ffffffffffffffffffffffffffffffffffffffff1673ffffffffffffffffffffffffffffffffffffffff16815260200190815260200160002060003373ffffffffffffffffffffffffffffffffffffffff1673ffffffffffffffffffffffffffffffffffffffff16815260200190815260200160002060006101000a81548160ff021916908315150217905550600760003373ffffffffffffffffffffffffffffffffffffffff1673ffffffffffffffffffffffffffffffffffffffff1681526020019081526020016000206001600760003373ffffffffffffffffffffffffffffffffffffffff1673ffffffffffffffffffffffffffffffffffffffff168152602001908152602001600020805490506129c191906148f8565b815481106129d2576129d161492c565b5b9060005260206000209060020201600760003373ffffffffffffffffffffffffffffffffffffffff1673ffffffffffffffffffffffffffffffffffffffff1681526020019081526020016000208581548110612a3157612a3061492c565b5b90600052602060002090600202016000820160009054906101000a900473ffffffffffffffffffffffffffffffffffffffff168160000160006101000a81548173ffffffffffffffffffffffffffffffffffffffff021916908373ffffffffffffffffffffffffffffffffffffffff1602179055506000820160149054906101000a900460ff168160000160146101000a81548160ff0219169083151502179055506000820160159054906101000a900460ff168160000160156101000a81548160ff0219169083151502179055506000820160169054906101000a900460ff168160000160166101000a81548160ff0219169083151502179055506000820160179054906101000a900460ff168160000160176101000a81548160ff0219169083151502179055506001820181600101908054612b709291906136f7565b50905050600760003373ffffffffffffffffffffffffffffffffffffffff1673ffffffffffffffffffffffffffffffffffffffff168152602001908152602001600020805480612bc357612bc261495b565b5b6001900381819060005260206000209060020201600080820160006101000a81549073ffffffffffffffffffffffffffffffffffffffff02191690556000820160146101000a81549060ff02191690556000820160156101000a81549060ff02191690556000820160166101000a81549060ff02191690556000820160176101000a81549060ff0219169055600182016000612c5f9190613757565b5050905550505050565b600660003373ffffffffffffffffffffffffffffffffffffffff1673ffffffffffffffffffffffffffffffffffffffff16815260200190815260200160002060009054906101000a900460ff16612cf5576040517f08c379a0000000000000000000000000000000000000000000000000000000008152600401612cec906150d6565b60405180910390fd5b600360008873ffffffffffffffffffffffffffffffffffffffff1673ffffffffffffffffffffffffffffffffffffffff16815260200190815260200160002060009054906101000a900460ff16612d81576040517f08c379a0000000000000000000000000000000000000000000000000000000008152600401612d7890615142565b60405180910390fd5b612d8961396e565b33816000019073ffffffffffffffffffffffffffffffffffffffff16908173ffffffffffffffffffffffffffffffffffffffff168152505086816020019015159081151581525050858160400190151590811515815250508481606001901515908115158152505083816080019015159081151581525050828280806020026020016040519081016040528093929190818152602001838360200280828437600081840152601f19601f820116905080830192505050505050508160a00181905250600760008973ffffffffffffffffffffffffffffffffffffffff1673ffffffffffffffffffffffffffffffffffffffff16815260200190815260200160002081908060018154018082558091505060019003906000526020600020906002020160009091909190915060008201518160000160006101000a81548173ffffffffffffffffffffffffffffffffffffffff021916908373ffffffffffffffffffffffffffffffffffffffff16021790555060208201518160000160146101000a81548160ff02191690831515021790555060408201518160000160156101000a81548160ff02191690831515021790555060608201518160000160166101000a81548160ff02191690831515021790555060808201518160000160176101000a81548160ff02191690831515021790555060a0820151816001019080519060200190612f979291906138c8565b5050505050505050505050565b600360003373ffffffffffffffffffffffffffffffffffffffff1673ffffffffffffffffffffffffffffffffffffffff16815260200190815260200160002060009054906101000a900460ff16806130455750600660003373ffffffffffffffffffffffffffffffffffffffff1673ffffffffffffffffffffffffffffffffffffffff16815260200190815260200160002060009054906101000a900460ff165b613084576040517f08c379a000000000000000000000000000000000000000000000000000000000815260040161307b90614e36565b60405180910390fd5b6000604051806040016040528084848080601f016020809104026020016040519081016040528093929190818152602001838380828437600081840152601f19601f82011690508083019250505050505050815260200142815250905060026000336040516020016130f6919061484e565b6040516020818303038152906040528051906020012081526020019081526020016000206000858152602001908152602001600020819080600181540180825580915050600190039060005260206000209060020201600090919091909150600082015181600001908161316a9190614c3d565b5060208201518160010155505050505050565b6131856139c2565b600460008360405160200161319a919061484e565b6040516020818303038152906040528051906020012081526020019081526020016000206040518060a00160405290816000820160009054906101000a900467ffffffffffffffff1667ffffffffffffffff1667ffffffffffffffff1681526020016000820160089054906101000a900467ffffffffffffffff1667ffffffffffffffff1667ffffffffffffffff16815260200160018201805461323d90614898565b80601f016020809104026020016040519081016040528092919081815260200182805461326990614898565b80156132b65780601f1061328b576101008083540402835291602001916132b6565b820191906000526020600020905b81548152906001019060200180831161329957829003601f168201915b505050505081526020016002820180546132cf90614898565b80601f01602080910402602001604051908101604052809291908181526020018280546132fb90614898565b80156133485780601f1061331d57610100808354040283529160200191613348565b820191906000526020600020905b81548152906001019060200180831161332b57829003601f168201915b5050505050815260200160038201805480602002602001604051908101604052809291908181526020016000905b8282101561342257838290600052602060002001805461339590614898565b80601f01602080910402602001604051908101604052809291908181526020018280546133c190614898565b801561340e5780601f106133e35761010080835404028352916020019161340e565b820191906000526020600020905b8154815290600101906020018083116133f157829003601f168201915b505050505081526020019060010190613376565b50505050815250509050919050565b6060600660003373ffffffffffffffffffffffffffffffffffffffff1673ffffffffffffffffffffffffffffffffffffffff16815260200190815260200160002060009054906101000a900460ff166134bf576040517f08c379a00000000000000000000000000000000000000000000000000000000081526004016134b6906147e6565b60405180910390fd5b600a60003373ffffffffffffffffffffffffffffffffffffffff1673ffffffffffffffffffffffffffffffffffffffff16815260200190815260200160002060008373ffffffffffffffffffffffffffffffffffffffff1673ffffffffffffffffffffffffffffffffffffffff16815260200190815260200160002060009054906101000a900460ff16613588576040517f08c379a000000000000000000000000000000000000000000000000000000000815260040161357f906151ae565b60405180910390fd5b600560003360405160200161359d919061484e565b60405160208183030381529060405280519060200120815260200190815260200160002060008373ffffffffffffffffffffffffffffffffffffffff1673ffffffffffffffffffffffffffffffffffffffff168152602001908152602001600020805480602002602001604051908101604052809291908181526020016000905b828210156136ec578382906000526020600020906002020160405180604001604052908160008201805461365190614898565b80601f016020809104026020016040519081016040528092919081815260200182805461367d90614898565b80156136ca5780601f1061369f576101008083540402835291602001916136ca565b820191906000526020600020905b8154815290600101906020018083116136ad57829003601f168201915b505050505081526020016001820154815250508152602001906001019061361e565b505050509050919050565b82805482825590600052602060002090601f0160209004810192821561374657600052602060002091601f016020900482015b8281111561374557825482559160010191906001019061372a565b5b5090506137539190613a05565b5090565b50805460008255601f01602090049060005260206000209081019061377c9190613a05565b50565b6040518060e0016040528060006fffffffffffffffffffffffffffffffff168152602001600067ffffffffffffffff168152602001600067ffffffffffffffff168152602001600073ffffffffffffffffffffffffffffffffffffffff1681526020016060815260200160608152602001606081525090565b82805482825590600052602060002090600202810192821561385e5760005260206000209160020282015b8281111561385d5782826000820181600001908161384191906151e4565b5060018201548160010155505091600201919060020190613823565b5b50905061386b9190613a22565b5090565b8280548282559060005260206000209081019282156138b7579160200282015b828111156138b65782518290816138a69190614c3d565b509160200191906001019061388f565b5b5090506138c49190613a51565b5090565b82805482825590600052602060002090601f0160209004810192821561395d5791602002820160005b8382111561392e57835183826101000a81548160ff02191690831515021790555092602001926001016020816000010492830192600103026138f1565b801561395b5782816101000a81549060ff021916905560010160208160000104928301926001030261392e565b505b50905061396a9190613a05565b5090565b6040518060c00160405280600073ffffffffffffffffffffffffffffffffffffffff168152602001600015158152602001600015158152602001600015158152602001600015158152602001606081525090565b6040518060a00160405280600067ffffffffffffffff168152602001600067ffffffffffffffff1681526020016060815260200160608152602001606081525090565b5b80821115613a1e576000816000905550600101613a06565b5090565b5b80821115613a4d5760008082016000613a3c9190613a75565b600182016000905550600201613a23565b5090565b5b80821115613a715760008181613a689190613a75565b50600101613a52565b5090565b508054613a8190614898565b6000825580601f10613a935750613ab2565b601f016020900490600052602060002090810190613ab19190613a05565b5b50565b600081519050919050565b600082825260208201905092915050565b6000819050602082019050919050565b60006fffffffffffffffffffffffffffffffff82169050919050565b613b0681613ae1565b82525050565b600067ffffffffffffffff82169050919050565b613b2981613b0c565b82525050565b600073ffffffffffffffffffffffffffffffffffffffff82169050919050565b6000613b5a82613b2f565b9050919050565b613b6a81613b4f565b82525050565b600081519050919050565b600082825260208201905092915050565b60005b83811015613baa578082015181840152602081019050613b8f565b60008484015250505050565b6000601f19601f8301169050919050565b6000613bd282613b70565b613bdc8185613b7b565b9350613bec818560208601613b8c565b613bf581613bb6565b840191505092915050565b600081519050919050565b600082825260208201905092915050565b6000819050602082019050919050565b6000613c388383613bc7565b905092915050565b6000602082019050919050565b6000613c5882613c00565b613c628185613c0b565b935083602082028501613c7485613c1c565b8060005b85811015613cb05784840389528151613c918582613c2c565b9450613c9c83613c40565b925060208a01995050600181019050613c78565b50829750879550505050505092915050565b600060e083016000830151613cda6000860182613afd565b506020830151613ced6020860182613b20565b506040830151613d006040860182613b20565b506060830151613d136060860182613b61565b5060808301518482036080860152613d2b8282613bc7565b91505060a083015184820360a0860152613d458282613bc7565b91505060c083015184820360c0860152613d5f8282613c4d565b9150508091505092915050565b6000613d788383613cc2565b905092915050565b6000602082019050919050565b6000613d9882613ab5565b613da28185613ac0565b935083602082028501613db485613ad1565b8060005b85811015613df05784840389528151613dd18582613d6c565b9450613ddc83613d80565b925060208a01995050600181019050613db8565b50829750879550505050505092915050565b60006020820190508181036000830152613e1c8184613d8d565b905092915050565b600080fd5b600080fd5b6000819050919050565b613e4181613e2e565b8114613e4c57600080fd5b50565b600081359050613e5e81613e38565b92915050565b600060208284031215613e7a57613e79613e24565b5b6000613e8884828501613e4f565b91505092915050565b600081519050919050565b600082825260208201905092915050565b6000819050602082019050919050565b613ec681613e2e565b82525050565b60006040830160008301518482036000860152613ee98282613bc7565b9150506020830151613efe6020860182613ebd565b508091505092915050565b6000613f158383613ecc565b905092915050565b6000602082019050919050565b6000613f3582613e91565b613f3f8185613e9c565b935083602082028501613f5185613ead565b8060005b85811015613f8d5784840389528151613f6e8582613f09565b9450613f7983613f1d565b925060208a01995050600181019050613f55565b50829750879550505050505092915050565b60006020820190508181036000830152613fb98184613f2a565b905092915050565b613fca81613ae1565b8114613fd557600080fd5b50565b600081359050613fe781613fc1565b92915050565b613ff681613b0c565b811461400157600080fd5b50565b60008135905061401381613fed565b92915050565b600080fd5b600080fd5b600080fd5b60008083601f84011261403e5761403d614019565b5b8235905067ffffffffffffffff81111561405b5761405a61401e565b5b60208301915083600182028301111561407757614076614023565b5b9250929050565b6000806000806000806080878903121561409b5761409a613e24565b5b60006140a989828a01613fd8565b96505060206140ba89828a01614004565b955050604087013567ffffffffffffffff8111156140db576140da613e29565b5b6140e789828a01614028565b9450945050606087013567ffffffffffffffff81111561410a57614109613e29565b5b61411689828a01614028565b92509250509295509295509295565b600060e08301600083015161413d6000860182613afd565b5060208301516141506020860182613b20565b5060408301516141636040860182613b20565b5060608301516141766060860182613b61565b506080830151848203608086015261418e8282613bc7565b91505060a083015184820360a08601526141a88282613bc7565b91505060c083015184820360c08601526141c28282613c4d565b9150508091505092915050565b600060208201905081810360008301526141e98184614125565b905092915050565b6141fa81613b4f565b811461420557600080fd5b50565b600081359050614217816141f1565b92915050565b60006020828403121561423357614232613e24565b5b600061424184828501614208565b91505092915050565b6000806000806000806080878903121561426757614266613e24565b5b600061427589828a01614004565b965050602061428689828a01614004565b955050604087013567ffffffffffffffff8111156142a7576142a6613e29565b5b6142b389828a01614028565b9450945050606087013567ffffffffffffffff8111156142d6576142d5613e29565b5b6142e289828a01614028565b92509250509295509295509295565b6142fa81613b4f565b82525050565b600060208201905061431560008301846142f1565b92915050565b600081519050919050565b600082825260208201905092915050565b6000819050602082019050919050565b60008115159050919050565b61435c81614347565b82525050565b600081519050919050565b600082825260208201905092915050565b6000819050602082019050919050565b600061439a8383614353565b60208301905092915050565b6000602082019050919050565b60006143be82614362565b6143c8818561436d565b93506143d38361437e565b8060005b838110156144045781516143eb888261438e565b97506143f6836143a6565b9250506001810190506143d7565b5085935050505092915050565b600060c0830160008301516144296000860182613b61565b50602083015161443c6020860182614353565b50604083015161444f6040860182614353565b5060608301516144626060860182614353565b5060808301516144756080860182614353565b5060a083015184820360a086015261448d82826143b3565b9150508091505092915050565b60006144a68383614411565b905092915050565b6000602082019050919050565b60006144c68261431b565b6144d08185614326565b9350836020820285016144e285614337565b8060005b8581101561451e57848403895281516144ff858261449a565b945061450a836144ae565b925060208a019950506001810190506144e6565b50829750879550505050505092915050565b6000602082019050818103600083015261454a81846144bb565b905092915050565b61455b81614347565b811461456657600080fd5b50565b60008135905061457881614552565b92915050565b60008083601f84011261459457614593614019565b5b8235905067ffffffffffffffff8111156145b1576145b061401e565b5b6020830191508360208202830111156145cd576145cc614023565b5b9250929050565b600080600080600080600060c0888a0312156145f3576145f2613e24565b5b60006146018a828b01614208565b97505060206146128a828b01614569565b96505060406146238a828b01614569565b95505060606146348a828b01614569565b94505060806146458a828b01614569565b93505060a088013567ffffffffffffffff81111561466657614665613e29565b5b6146728a828b0161457e565b925092505092959891949750929550565b60008060006040848603121561469c5761469b613e24565b5b60006146aa86828701613e4f565b935050602084013567ffffffffffffffff8111156146cb576146ca613e29565b5b6146d786828701614028565b92509250509250925092565b600060a0830160008301516146fb6000860182613b20565b50602083015161470e6020860182613b20565b50604083015184820360408601526147268282613bc7565b915050606083015184820360608601526147408282613bc7565b9150506080830151848203608086015261475a8282613c4d565b9150508091505092915050565b6000602082019050818103600083015261478181846146e3565b905092915050565b600082825260208201905092915050565b7f4e6f742061205265676973746572656420436f6d70616e790000000000000000600082015250565b60006147d0601883614789565b91506147db8261479a565b602082019050919050565b600060208201905081810360008301526147ff816147c3565b9050919050565b60008160601b9050919050565b600061481e82614806565b9050919050565b600061483082614813565b9050919050565b61484861484382613b4f565b614825565b82525050565b600061485a8284614837565b60148201915081905092915050565b7f4e487b7100000000000000000000000000000000000000000000000000000000600052602260045260246000fd5b600060028204905060018216806148b057607f821691505b6020821081036148c3576148c2614869565b5b50919050565b7f4e487b7100000000000000000000000000000000000000000000000000000000600052601160045260246000fd5b600061490382613e2e565b915061490e83613e2e565b9250828203905081811115614926576149256148c9565b5b92915050565b7f4e487b7100000000000000000000000000000000000000000000000000000000600052603260045260246000fd5b7f4e487b7100000000000000000000000000000000000000000000000000000000600052603160045260246000fd5b7f5573657220416c72656164792052656769737465726564000000000000000000600082015250565b60006149c0601783614789565b91506149cb8261498a565b602082019050919050565b600060208201905081810360008301526149ef816149b3565b9050919050565b7f5265676973746572656420617320636f6d70616e790000000000000000000000600082015250565b6000614a2c601583614789565b9150614a37826149f6565b602082019050919050565b60006020820190508181036000830152614a5b81614a1f565b9050919050565b7f4e487b7100000000000000000000000000000000000000000000000000000000600052604160045260246000fd5b60008190508160005260206000209050919050565b60006020601f8301049050919050565b600082821b905092915050565b600060088302614af37fffffffffffffffffffffffffffffffffffffffffffffffffffffffffffffffff82614ab6565b614afd8683614ab6565b95508019841693508086168417925050509392505050565b6000819050919050565b6000614b3a614b35614b3084613e2e565b614b15565b613e2e565b9050919050565b6000819050919050565b614b5483614b1f565b614b68614b6082614b41565b848454614ac3565b825550505050565b600090565b614b7d614b70565b614b88818484614b4b565b505050565b5b81811015614bac57614ba1600082614b75565b600181019050614b8e565b5050565b601f821115614bf157614bc281614a91565b614bcb84614aa6565b81016020851015614bda578190505b614bee614be685614aa6565b830182614b8d565b50505b505050565b600082821c905092915050565b6000614c1460001984600802614bf6565b1980831691505092915050565b6000614c2d8383614c03565b9150826002028217905092915050565b614c4682613b70565b67ffffffffffffffff811115614c5f57614c5e614a62565b5b614c698254614898565b614c74828285614bb0565b600060209050601f831160018114614ca75760008415614c95578287015190505b614c9f8582614c21565b865550614d07565b601f198416614cb586614a91565b60005b82811015614cdd57848901518255600182019150602085019450602081019050614cb8565b86831015614cfa5784890151614cf6601f891682614c03565b8355505b6001600288020188555050505b505050505050565b600082905092915050565b614d248383614d0f565b67ffffffffffffffff811115614d3d57614d3c614a62565b5b614d478254614898565b614d52828285614bb0565b6000601f831160018114614d815760008415614d6f578287013590505b614d798582614c21565b865550614de1565b601f198416614d8f86614a91565b60005b82811015614db757848901358255600182019150602085019450602081019050614d92565b86831015614dd45784890135614dd0601f891682614c03565b8355505b6001600288020188555050505b50505050505050565b7f4e6f742052656769737465726564000000000000000000000000000000000000600082015250565b6000614e20600e83614789565b9150614e2b82614dea565b602082019050919050565b60006020820190508181036000830152614e4f81614e13565b9050919050565b7f41636365737320416c7265616479205265766f6b656400000000000000000000600082015250565b6000614e8c601683614789565b9150614e9782614e56565b602082019050919050565b60006020820190508181036000830152614ebb81614e7f565b9050919050565b6000614ecd82613e2e565b91507fffffffffffffffffffffffffffffffffffffffffffffffffffffffffffffffff8203614eff57614efe6148c9565b5b600182019050919050565b7f436f6d70616e7920416c72656164792052656769737465726564000000000000600082015250565b6000614f40601a83614789565b9150614f4b82614f0a565b602082019050919050565b60006020820190508181036000830152614f6f81614f33565b9050919050565b7f5265676973746572656420617320557365720000000000000000000000000000600082015250565b6000614fac601283614789565b9150614fb782614f76565b602082019050919050565b60006020820190508181036000830152614fdb81614f9f565b9050919050565b7f5265676973746572206173205573657200000000000000000000000000000000600082015250565b6000615018601083614789565b915061502382614fe2565b602082019050919050565b600060208201905081810360008301526150478161500b565b9050919050565b600061505982613b0c565b915061506483613b0c565b9250828203905067ffffffffffffffff811115615084576150836148c9565b5b92915050565b7f4f6e6c7920436f6d70616e6965732043616e2052657175657374000000000000600082015250565b60006150c0601a83614789565b91506150cb8261508a565b602082019050919050565b600060208201905081810360008301526150ef816150b3565b9050919050565b7f55736572204e6f74207265676973746572656400000000000000000000000000600082015250565b600061512c601383614789565b9150615137826150f6565b602082019050919050565b6000602082019050818103600083015261515b8161511f565b9050919050565b7f596f7520446f6e277420486176652041636365737320746f2055736572000000600082015250565b6000615198601d83614789565b91506151a382615162565b602082019050919050565b600060208201905081810360008301526151c78161518b565b9050919050565b6000815490506151dd81614898565b9050919050565b8181036151f25750506152ca565b6151fb826151ce565b67ffffffffffffffff81111561521457615213614a62565b5b61521e8254614898565b615229828285614bb0565b6000601f8311600181146152585760008415615246578287015490505b6152508582614c21565b8655506152c3565b601f19841661526687614a91565b965061527186614a91565b60005b8281101561529957848901548255600182019150600185019450602081019050615274565b868310156152b657848901546152b2601f891682614c03565b8355505b6001600288020188555050505b5050505050505b56fea264697066735822122075cf289a9a710d7d9c0a4951efea074c45cb08bc9d2f8327b99b5f66fdb9781f64736f6c63430008130033",
  "linkReferences": {},
  "deployedLinkReferences": {}
}