{
  "_format": "hh-sol-artifact-1",
  "contractName": "DeID",
  "sourceName": "contracts/DeID.sol",
  "abi": [
    {
      "inputs": [],
      "stateMutability": "nonpayable",
      "type": "constructor"
    },
    {
      "inputs": [
        {
          "internalType": "uint256",
          "name": "_id",
          "type": "uint256"
        }
      ],
      "name": "acceptDetails",
      "outputs": [],
      "stateMutability": "nonpayable",
      "type": "function"
    },
    {
      "inputs": [
        {
          "internalType": "uint256",
          "name": "_id",
          "type": "uint256"
        },
        {
          "internalType": "string",
          "name": "_hash",
          "type": "string"
        }
      ],
      "name": "addDocs",
      "outputs": [],
      "stateMutability": "nonpayable",
      "type": "function"
    },
    {
      "inputs": [
        {
          "internalType": "address",
          "name": "_address",
          "type": "address"
        }
      ],
      "name": "companyDetails",
      "outputs": [
        {
          "components": [
            {
              "internalType": "uint64",
              "name": "Phone",
              "type": "uint64"
            },
            {
              "internalType": "string",
              "name": "RegistrationId",
              "type": "string"
            },
            {
              "internalType": "string",
              "name": "Name",
              "type": "string"
            },
            {
              "internalType": "string",
              "name": "Image",
              "type": "string"
            },
            {
              "internalType": "string[]",
              "name": "Employee",
              "type": "string[]"
            }
          ],
          "internalType": "struct DeID.Company",
          "name": "",
          "type": "tuple"
        }
      ],
      "stateMutability": "view",
      "type": "function"
    },
    {
      "inputs": [
        {
          "internalType": "uint64",
          "name": "Phone",
          "type": "uint64"
        },
        {
          "internalType": "string",
          "name": "RegistrationId",
          "type": "string"
        },
        {
          "internalType": "string",
          "name": "Name",
          "type": "string"
        },
        {
          "internalType": "string",
          "name": "Image",
          "type": "string"
        }
      ],
      "name": "createCompany",
      "outputs": [],
      "stateMutability": "nonpayable",
      "type": "function"
    },
    {
      "inputs": [
        {
          "internalType": "string",
          "name": "DOB",
          "type": "string"
        },
        {
          "internalType": "uint64",
          "name": "Phone",
          "type": "uint64"
        },
        {
          "internalType": "string",
          "name": "Name",
          "type": "string"
        },
        {
          "internalType": "string",
          "name": "Image",
          "type": "string"
        }
      ],
      "name": "createUser",
      "outputs": [],
      "stateMutability": "nonpayable",
      "type": "function"
    },
    {
      "inputs": [],
      "name": "ifRegistered",
      "outputs": [
        {
          "internalType": "uint256",
          "name": "",
          "type": "uint256"
        }
      ],
      "stateMutability": "view",
      "type": "function"
    },
    {
      "inputs": [],
      "name": "owner",
      "outputs": [
        {
          "internalType": "address",
          "name": "",
          "type": "address"
        }
      ],
      "stateMutability": "view",
      "type": "function"
    },
    {
      "inputs": [
        {
          "internalType": "uint256",
          "name": "_id",
          "type": "uint256"
        }
      ],
      "name": "rejectDetails",
      "outputs": [],
      "stateMutability": "nonpayable",
      "type": "function"
    },
    {
      "inputs": [
        {
          "internalType": "address",
          "name": "_address",
          "type": "address"
        },
        {
          "internalType": "bool",
          "name": "DOB",
          "type": "bool"
        },
        {
          "internalType": "bool",
          "name": "Phone",
          "type": "bool"
        },
        {
          "internalType": "bool",
          "name": "Name",
          "type": "bool"
        },
        {
          "internalType": "bool",
          "name": "Image",
          "type": "bool"
        },
        {
          "internalType": "bool[]",
          "name": "_Folders",
          "type": "bool[]"
        }
      ],
      "name": "requestDetails",
      "outputs": [],
      "stateMutability": "nonpayable",
      "type": "function"
    },
    {
      "inputs": [
        {
          "internalType": "uint256",
          "name": "_id",
          "type": "uint256"
        }
      ],
      "name": "returnDocs",
      "outputs": [
        {
          "components": [
            {
              "internalType": "string",
              "name": "Hash",
              "type": "string"
            },
            {
              "internalType": "uint256",
              "name": "TimeAdded",
              "type": "uint256"
            }
          ],
          "internalType": "struct DeID.Documents[]",
          "name": "",
          "type": "tuple[]"
        }
      ],
      "stateMutability": "view",
      "type": "function"
    },
    {
      "inputs": [
        {
          "internalType": "address",
          "name": "Address",
          "type": "address"
        }
      ],
      "name": "returnUserDocs",
      "outputs": [
        {
          "components": [
            {
              "internalType": "string",
              "name": "Hash",
              "type": "string"
            },
            {
              "internalType": "uint256",
              "name": "TimeAdded",
              "type": "uint256"
            }
          ],
          "internalType": "struct DeID.Documents[]",
          "name": "",
          "type": "tuple[]"
        }
      ],
      "stateMutability": "view",
      "type": "function"
    },
    {
      "inputs": [],
      "name": "returnUserRequests",
      "outputs": [
        {
          "components": [
            {
              "internalType": "address",
              "name": "Address",
              "type": "address"
            },
            {
              "internalType": "bool",
              "name": "DOB",
              "type": "bool"
            },
            {
              "internalType": "bool",
              "name": "Phone",
              "type": "bool"
            },
            {
              "internalType": "bool",
              "name": "Name",
              "type": "bool"
            },
            {
              "internalType": "bool",
              "name": "Image",
              "type": "bool"
            },
            {
              "internalType": "bool[]",
              "name": "Folders",
              "type": "bool[]"
            }
          ],
          "internalType": "struct DeID.Request[]",
          "name": "",
          "type": "tuple[]"
        }
      ],
      "stateMutability": "view",
      "type": "function"
    },
    {
      "inputs": [],
      "name": "returnUsersData",
      "outputs": [
        {
          "components": [
            {
              "internalType": "string",
              "name": "DOB",
              "type": "string"
            },
            {
              "internalType": "uint64",
              "name": "_foldCount",
              "type": "uint64"
            },
            {
              "internalType": "uint64",
              "name": "Phone",
              "type": "uint64"
            },
            {
              "internalType": "address",
              "name": "Address",
              "type": "address"
            },
            {
              "internalType": "string",
              "name": "Name",
              "type": "string"
            },
            {
              "internalType": "string",
              "name": "Image",
              "type": "string"
            },
            {
              "internalType": "string[]",
              "name": "Folders",
              "type": "string[]"
            }
          ],
          "internalType": "struct DeID.User[]",
          "name": "",
          "type": "tuple[]"
        }
      ],
      "stateMutability": "view",
      "type": "function"
    },
    {
      "inputs": [
        {
          "internalType": "address",
          "name": "Address",
          "type": "address"
        }
      ],
      "name": "revokeAccess",
      "outputs": [],
      "stateMutability": "nonpayable",
      "type": "function"
    },
    {
      "inputs": [],
      "name": "userDetails",
      "outputs": [
        {
          "components": [
            {
              "internalType": "string",
              "name": "DOB",
              "type": "string"
            },
            {
              "internalType": "uint64",
              "name": "_foldCount",
              "type": "uint64"
            },
            {
              "internalType": "uint64",
              "name": "Phone",
              "type": "uint64"
            },
            {
              "internalType": "address",
              "name": "Address",
              "type": "address"
            },
            {
              "internalType": "string",
              "name": "Name",
              "type": "string"
            },
            {
              "internalType": "string",
              "name": "Image",
              "type": "string"
            },
            {
              "internalType": "string[]",
              "name": "Folders",
              "type": "string[]"
            }
          ],
          "internalType": "struct DeID.User",
          "name": "",
          "type": "tuple"
        }
      ],
      "stateMutability": "view",
      "type": "function"
    }
  ],
  "bytecode": "0x608060405234801561001057600080fd5b50336000806101000a81548173ffffffffffffffffffffffffffffffffffffffff021916908373ffffffffffffffffffffffffffffffffffffffff160217905550615b6a80620000616000396000f3fe608060405234801561001057600080fd5b50600436106100f55760003560e01c80638da5cb5b11610097578063b9ceddb111610066578063b9ceddb11461024c578063df56fbe014610268578063e5851b0814610284578063efcc2029146102b4576100f5565b80638da5cb5b146101d857806394732e6f146101f65780639c3c593414610214578063a128a9dc14610230576100f5565b80632b46a9b9116100d35780632b46a9b91461015257806342f39804146101825780637b931cf31461019e57806385e68531146101bc576100f5565b80630882f03c146100fa5780630bccac01146101185780631c6ee06414610136575b600080fd5b6101026102e4565b60405161010f919061461a565b60405180910390f35b61012061074f565b60405161012d9190614655565b60405180910390f35b610150600480360381019061014b919061470b565b61080f565b005b61016c60048036038101906101679190614800565b610a71565b604051610179919061493b565b60405180910390f35b61019c60048036038101906101979190614800565b610bb6565b005b6101a6610ee9565b6040516101b39190614a0e565b60405180910390f35b6101d660048036038101906101d19190614a5c565b61130f565b005b6101e0611f08565b6040516101ed9190614a98565b60405180910390f35b6101fe611f2c565b60405161020b9190614cc8565b60405180910390f35b61022e60048036038101906102299190614cea565b612193565b005b61024a60048036038101906102459190614800565b6125f9565b005b61026660048036038101906102619190614e35565b6133e3565b005b610282600480360381019061027d9190614ee4565b61371e565b005b61029e60048036038101906102999190614a5c565b6138f7565b6040516102ab9190614fcf565b60405180910390f35b6102ce60048036038101906102c99190614a5c565b613c0b565b6040516102db919061493b565b60405180910390f35b6060600660003373ffffffffffffffffffffffffffffffffffffffff1673ffffffffffffffffffffffffffffffffffffffff16815260200190815260200160002060009054906101000a900460ff16610372576040517f08c379a00000000000000000000000000000000000000000000000000000000081526004016103699061504e565b60405180910390fd5b600860003360405160200161038791906150b6565b604051602081830303815290604052805190602001208152602001908152602001600020805480602002602001604051908101604052809291908181526020016000905b8282101561074657838290600052602060002090600602016040518060e00160405290816000820180546103fe90615100565b80601f016020809104026020016040519081016040528092919081815260200182805461042a90615100565b80156104775780601f1061044c57610100808354040283529160200191610477565b820191906000526020600020905b81548152906001019060200180831161045a57829003601f168201915b505050505081526020016001820160009054906101000a900467ffffffffffffffff1667ffffffffffffffff1667ffffffffffffffff1681526020016001820160089054906101000a900467ffffffffffffffff1667ffffffffffffffff1667ffffffffffffffff1681526020016002820160009054906101000a900473ffffffffffffffffffffffffffffffffffffffff1673ffffffffffffffffffffffffffffffffffffffff1673ffffffffffffffffffffffffffffffffffffffff16815260200160038201805461054a90615100565b80601f016020809104026020016040519081016040528092919081815260200182805461057690615100565b80156105c35780601f10610598576101008083540402835291602001916105c3565b820191906000526020600020905b8154815290600101906020018083116105a657829003601f168201915b505050505081526020016004820180546105dc90615100565b80601f016020809104026020016040519081016040528092919081815260200182805461060890615100565b80156106555780601f1061062a57610100808354040283529160200191610655565b820191906000526020600020905b81548152906001019060200180831161063857829003601f168201915b5050505050815260200160058201805480602002602001604051908101604052809291908181526020016000905b8282101561072f5783829060005260206000200180546106a290615100565b80601f01602080910402602001604051908101604052809291908181526020018280546106ce90615100565b801561071b5780601f106106f05761010080835404028352916020019161071b565b820191906000526020600020905b8154815290600101906020018083116106fe57829003601f168201915b505050505081526020019060010190610683565b5050505081525050815260200190600101906103cb565b50505050905090565b6000600360003373ffffffffffffffffffffffffffffffffffffffff1673ffffffffffffffffffffffffffffffffffffffff16815260200190815260200160002060009054906101000a900460ff16156107ac576000905061080c565b600660003373ffffffffffffffffffffffffffffffffffffffff1673ffffffffffffffffffffffffffffffffffffffff16815260200190815260200160002060009054906101000a900460ff1615610807576001905061080c565b600290505b90565b60001515600360003373ffffffffffffffffffffffffffffffffffffffff1673ffffffffffffffffffffffffffffffffffffffff16815260200190815260200160002060009054906101000a900460ff161515146108a2576040517f08c379a00000000000000000000000000000000000000000000000000000000081526004016108999061517d565b60405180910390fd5b60001515600660003373ffffffffffffffffffffffffffffffffffffffff1673ffffffffffffffffffffffffffffffffffffffff16815260200190815260200160002060009054906101000a900460ff16151514610935576040517f08c379a000000000000000000000000000000000000000000000000000000000815260040161092c906151e9565b60405180910390fd5b60003360405160200161094891906150b6565b604051602081830303815290604052805190602001209050876004600083815260200190815260200160002060000160006101000a81548167ffffffffffffffff021916908367ffffffffffffffff16021790555086866004600084815260200190815260200160002060010191826109c29291906153ef565b5084846004600084815260200190815260200160002060020191826109e89291906153ef565b508282600460008481526020019081526020016000206003019182610a0e9291906153ef565b506001600660003373ffffffffffffffffffffffffffffffffffffffff1673ffffffffffffffffffffffffffffffffffffffff16815260200190815260200160002060006101000a81548160ff0219169083151502179055505050505050505050565b60606002600033604051602001610a8891906150b6565b6040516020818303038152906040528051906020012081526020019081526020016000206000838152602001908152602001600020805480602002602001604051908101604052809291908181526020016000905b82821015610bab5783829060005260206000209060020201604051806040016040529081600082018054610b1090615100565b80601f0160208091040260200160405190810160405280929190818152602001828054610b3c90615100565b8015610b895780601f10610b5e57610100808354040283529160200191610b89565b820191906000526020600020905b815481529060010190602001808311610b6c57829003601f168201915b5050505050815260200160018201548152505081526020019060010190610add565b505050509050919050565b600760003373ffffffffffffffffffffffffffffffffffffffff1673ffffffffffffffffffffffffffffffffffffffff1681526020019081526020016000206001600760003373ffffffffffffffffffffffffffffffffffffffff1673ffffffffffffffffffffffffffffffffffffffff16815260200190815260200160002080549050610c4491906154ee565b81548110610c5557610c54615522565b5b9060005260206000209060020201600760003373ffffffffffffffffffffffffffffffffffffffff1673ffffffffffffffffffffffffffffffffffffffff1681526020019081526020016000208281548110610cb457610cb3615522565b5b90600052602060002090600202016000820160009054906101000a900473ffffffffffffffffffffffffffffffffffffffff168160000160006101000a81548173ffffffffffffffffffffffffffffffffffffffff021916908373ffffffffffffffffffffffffffffffffffffffff1602179055506000820160149054906101000a900460ff168160000160146101000a81548160ff0219169083151502179055506000820160159054906101000a900460ff168160000160156101000a81548160ff0219169083151502179055506000820160169054906101000a900460ff168160000160166101000a81548160ff0219169083151502179055506000820160179054906101000a900460ff168160000160176101000a81548160ff0219169083151502179055506001820181600101908054610df3929190613ed1565b50905050600760003373ffffffffffffffffffffffffffffffffffffffff1673ffffffffffffffffffffffffffffffffffffffff168152602001908152602001600020805480610e4657610e45615551565b5b6001900381819060005260206000209060020201600080820160006101000a81549073ffffffffffffffffffffffffffffffffffffffff02191690556000820160146101000a81549060ff02191690556000820160156101000a81549060ff02191690556000820160166101000a81549060ff02191690556000820160176101000a81549060ff0219169055600182016000610ee29190613f31565b5050905550565b610ef1613f59565b600360003373ffffffffffffffffffffffffffffffffffffffff1673ffffffffffffffffffffffffffffffffffffffff16815260200190815260200160002060009054906101000a900460ff16610f7d576040517f08c379a0000000000000000000000000000000000000000000000000000000008152600401610f74906155cc565b60405180910390fd5b6001600033604051602001610f9291906150b6565b6040516020818303038152906040528051906020012081526020019081526020016000206040518060e0016040529081600082018054610fd190615100565b80601f0160208091040260200160405190810160405280929190818152602001828054610ffd90615100565b801561104a5780601f1061101f5761010080835404028352916020019161104a565b820191906000526020600020905b81548152906001019060200180831161102d57829003601f168201915b505050505081526020016001820160009054906101000a900467ffffffffffffffff1667ffffffffffffffff1667ffffffffffffffff1681526020016001820160089054906101000a900467ffffffffffffffff1667ffffffffffffffff1667ffffffffffffffff1681526020016002820160009054906101000a900473ffffffffffffffffffffffffffffffffffffffff1673ffffffffffffffffffffffffffffffffffffffff1673ffffffffffffffffffffffffffffffffffffffff16815260200160038201805461111d90615100565b80601f016020809104026020016040519081016040528092919081815260200182805461114990615100565b80156111965780601f1061116b57610100808354040283529160200191611196565b820191906000526020600020905b81548152906001019060200180831161117957829003601f168201915b505050505081526020016004820180546111af90615100565b80601f01602080910402602001604051908101604052809291908181526020018280546111db90615100565b80156112285780601f106111fd57610100808354040283529160200191611228565b820191906000526020600020905b81548152906001019060200180831161120b57829003601f168201915b5050505050815260200160058201805480602002602001604051908101604052809291908181526020016000905b8282101561130257838290600052602060002001805461127590615100565b80601f01602080910402602001604051908101604052809291908181526020018280546112a190615100565b80156112ee5780601f106112c3576101008083540402835291602001916112ee565b820191906000526020600020905b8154815290600101906020018083116112d157829003601f168201915b505050505081526020019060010190611256565b5050505081525050905090565b600a60008273ffffffffffffffffffffffffffffffffffffffff1673ffffffffffffffffffffffffffffffffffffffff16815260200190815260200160002060003373ffffffffffffffffffffffffffffffffffffffff1673ffffffffffffffffffffffffffffffffffffffff16815260200190815260200160002060009054906101000a900460ff166113d8576040517f08c379a00000000000000000000000000000000000000000000000000000000081526004016113cf90615638565b60405180910390fd5b6000600a60008373ffffffffffffffffffffffffffffffffffffffff1673ffffffffffffffffffffffffffffffffffffffff16815260200190815260200160002060003373ffffffffffffffffffffffffffffffffffffffff1673ffffffffffffffffffffffffffffffffffffffff16815260200190815260200160002060006101000a81548160ff02191690831515021790555060005b6001600960003373ffffffffffffffffffffffffffffffffffffffff1673ffffffffffffffffffffffffffffffffffffffff168152602001908152602001600020805490506114bf91906154ee565b811015611aba578173ffffffffffffffffffffffffffffffffffffffff16600960003373ffffffffffffffffffffffffffffffffffffffff1673ffffffffffffffffffffffffffffffffffffffff168152602001908152602001600020828154811061152e5761152d615522565b5b906000526020600020906002020160000160009054906101000a900473ffffffffffffffffffffffffffffffffffffffff1673ffffffffffffffffffffffffffffffffffffffff1603611aa757600c60003373ffffffffffffffffffffffffffffffffffffffff1673ffffffffffffffffffffffffffffffffffffffff168152602001908152602001600020600960003373ffffffffffffffffffffffffffffffffffffffff1673ffffffffffffffffffffffffffffffffffffffff168152602001908152602001600020828154811061160b5761160a615522565b5b906000526020600020906002020190806001815401808255809150506001900390600052602060002090600202016000909190919091506000820160009054906101000a900473ffffffffffffffffffffffffffffffffffffffff168160000160006101000a81548173ffffffffffffffffffffffffffffffffffffffff021916908373ffffffffffffffffffffffffffffffffffffffff1602179055506000820160149054906101000a900460ff168160000160146101000a81548160ff0219169083151502179055506000820160159054906101000a900460ff168160000160156101000a81548160ff0219169083151502179055506000820160169054906101000a900460ff168160000160166101000a81548160ff0219169083151502179055506000820160179054906101000a900460ff168160000160176101000a81548160ff0219169083151502179055506001820181600101908054611773929190613ed1565b505050600960003373ffffffffffffffffffffffffffffffffffffffff1673ffffffffffffffffffffffffffffffffffffffff1681526020019081526020016000206001600960003373ffffffffffffffffffffffffffffffffffffffff1673ffffffffffffffffffffffffffffffffffffffff1681526020019081526020016000208054905061180491906154ee565b8154811061181557611814615522565b5b9060005260206000209060020201600960003373ffffffffffffffffffffffffffffffffffffffff1673ffffffffffffffffffffffffffffffffffffffff168152602001908152602001600020828154811061187457611873615522565b5b90600052602060002090600202016000820160009054906101000a900473ffffffffffffffffffffffffffffffffffffffff168160000160006101000a81548173ffffffffffffffffffffffffffffffffffffffff021916908373ffffffffffffffffffffffffffffffffffffffff1602179055506000820160149054906101000a900460ff168160000160146101000a81548160ff0219169083151502179055506000820160159054906101000a900460ff168160000160156101000a81548160ff0219169083151502179055506000820160169054906101000a900460ff168160000160166101000a81548160ff0219169083151502179055506000820160179054906101000a900460ff168160000160176101000a81548160ff02191690831515021790555060018201816001019080546119b3929190613ed1565b50905050600960003373ffffffffffffffffffffffffffffffffffffffff1673ffffffffffffffffffffffffffffffffffffffff168152602001908152602001600020805480611a0657611a05615551565b5b6001900381819060005260206000209060020201600080820160006101000a81549073ffffffffffffffffffffffffffffffffffffffff02191690556000820160146101000a81549060ff02191690556000820160156101000a81549060ff02191690556000820160166101000a81549060ff02191690556000820160176101000a81549060ff0219169055600182016000611aa29190613f31565b505090555b8080611ab290615658565b915050611470565b5060005b6008600083604051602001611ad391906150b6565b60405160208183030381529060405280519060200120815260200190815260200160002080549050811015611f04573373ffffffffffffffffffffffffffffffffffffffff166008600084604051602001611b2e91906150b6565b6040516020818303038152906040528051906020012081526020019081526020016000208281548110611b6457611b63615522565b5b906000526020600020906006020160020160009054906101000a900473ffffffffffffffffffffffffffffffffffffffff1673ffffffffffffffffffffffffffffffffffffffff1603611ef1576008600083604051602001611bc691906150b6565b60405160208183030381529060405280519060200120815260200190815260200160002060016008600085604051602001611c0191906150b6565b60405160208183030381529060405280519060200120815260200190815260200160002080549050611c3391906154ee565b81548110611c4457611c43615522565b5b90600052602060002090600602016008600084604051602001611c6791906150b6565b6040516020818303038152906040528051906020012081526020019081526020016000208281548110611c9d57611c9c615522565b5b906000526020600020906006020160008201816000019081611cbf91906156b6565b506001820160009054906101000a900467ffffffffffffffff168160010160006101000a81548167ffffffffffffffff021916908367ffffffffffffffff1602179055506001820160089054906101000a900467ffffffffffffffff168160010160086101000a81548167ffffffffffffffff021916908367ffffffffffffffff1602179055506002820160009054906101000a900473ffffffffffffffffffffffffffffffffffffffff168160020160006101000a81548173ffffffffffffffffffffffffffffffffffffffff021916908373ffffffffffffffffffffffffffffffffffffffff16021790555060038201816003019081611dc191906156b6565b5060048201816004019081611dd691906156b6565b506005820181600501908054611ded929190613fc0565b509050506008600083604051602001611e0691906150b6565b604051602081830303815290604052805190602001208152602001908152602001600020805480611e3a57611e39615551565b5b600190038181906000526020600020906006020160008082016000611e5f919061401d565b6001820160006101000a81549067ffffffffffffffff02191690556001820160086101000a81549067ffffffffffffffff02191690556002820160006101000a81549073ffffffffffffffffffffffffffffffffffffffff0219169055600382016000611ecc919061401d565b600482016000611edc919061401d565b600582016000611eec919061405d565b505090555b8080611efc90615658565b915050611abe565b5050565b60008054906101000a900473ffffffffffffffffffffffffffffffffffffffff1681565b6060600360003373ffffffffffffffffffffffffffffffffffffffff1673ffffffffffffffffffffffffffffffffffffffff16815260200190815260200160002060009054906101000a900460ff16611fba576040517f08c379a0000000000000000000000000000000000000000000000000000000008152600401611fb1906157ea565b60405180910390fd5b600760003373ffffffffffffffffffffffffffffffffffffffff1673ffffffffffffffffffffffffffffffffffffffff168152602001908152602001600020805480602002602001604051908101604052809291908181526020016000905b8282101561218a57838290600052602060002090600202016040518060c00160405290816000820160009054906101000a900473ffffffffffffffffffffffffffffffffffffffff1673ffffffffffffffffffffffffffffffffffffffff1673ffffffffffffffffffffffffffffffffffffffff1681526020016000820160149054906101000a900460ff161515151581526020016000820160159054906101000a900460ff161515151581526020016000820160169054906101000a900460ff161515151581526020016000820160179054906101000a900460ff161515151581526020016001820180548060200260200160405190810160405280929190818152602001828054801561217257602002820191906000526020600020906000905b82829054906101000a900460ff1615158152602001906001019060208260000104928301926001038202915080841161213c5790505b50505050508152505081526020019060010190612019565b50505050905090565b60001515600360003373ffffffffffffffffffffffffffffffffffffffff1673ffffffffffffffffffffffffffffffffffffffff16815260200190815260200160002060009054906101000a900460ff16151514612226576040517f08c379a000000000000000000000000000000000000000000000000000000000815260040161221d90615856565b60405180910390fd5b60001515600660003373ffffffffffffffffffffffffffffffffffffffff1673ffffffffffffffffffffffffffffffffffffffff16815260200190815260200160002060009054906101000a900460ff161515146122b9576040517f08c379a00000000000000000000000000000000000000000000000000000000081526004016122b0906158c2565b60405180910390fd5b6000336040516020016122cc91906150b6565b60405160208183030381529060405280519060200120905087876001600084815260200190815260200160002060000191826123099291906153ef565b5060036001600083815260200190815260200160002060010160006101000a81548167ffffffffffffffff021916908367ffffffffffffffff1602179055506001600082815260200190815260200160002060050180600181540180825580915050600190039060005260206000200160006040518060400160405280600781526020017f4d65646963616c00000000000000000000000000000000000000000000000000815250909190915090816123c291906158e2565b506001600082815260200190815260200160002060050180600181540180825580915050600190039060005260206000200160006040518060400160405280600981526020017f41636164656d69637300000000000000000000000000000000000000000000008152509091909150908161243d91906158e2565b506001600082815260200190815260200160002060050180600181540180825580915050600190039060005260206000200160006040518060400160405280600481526020017f42616e6b00000000000000000000000000000000000000000000000000000000815250909190915090816124b891906158e2565b50856001600083815260200190815260200160002060010160086101000a81548167ffffffffffffffff021916908367ffffffffffffffff160217905550848460016000848152602001908152602001600020600301918261251b9291906153ef565b50336001600083815260200190815260200160002060020160006101000a81548173ffffffffffffffffffffffffffffffffffffffff021916908373ffffffffffffffffffffffffffffffffffffffff16021790555082826001600084815260200190815260200160002060040191826125969291906153ef565b506001600360003373ffffffffffffffffffffffffffffffffffffffff1673ffffffffffffffffffffffffffffffffffffffff16815260200190815260200160002060006101000a81548160ff0219169083151502179055505050505050505050565b6000600760003373ffffffffffffffffffffffffffffffffffffffff1673ffffffffffffffffffffffffffffffffffffffff168152602001908152602001600020828154811061264c5761264b615522565b5b90600052602060002090600202016040518060c00160405290816000820160009054906101000a900473ffffffffffffffffffffffffffffffffffffffff1673ffffffffffffffffffffffffffffffffffffffff1673ffffffffffffffffffffffffffffffffffffffff1681526020016000820160149054906101000a900460ff161515151581526020016000820160159054906101000a900460ff161515151581526020016000820160169054906101000a900460ff161515151581526020016000820160179054906101000a900460ff161515151581526020016001820180548060200260200160405190810160405280929190818152602001828054801561279b57602002820191906000526020600020906000905b82829054906101000a900460ff161515815260200190600101906020826000010492830192600103820291508084116127655790505b5050505050815250509050600060016000336040516020016127bd91906150b6565b6040516020818303038152906040528051906020012081526020019081526020016000206040518060e00160405290816000820180546127fc90615100565b80601f016020809104026020016040519081016040528092919081815260200182805461282890615100565b80156128755780601f1061284a57610100808354040283529160200191612875565b820191906000526020600020905b81548152906001019060200180831161285857829003601f168201915b505050505081526020016001820160009054906101000a900467ffffffffffffffff1667ffffffffffffffff1667ffffffffffffffff1681526020016001820160089054906101000a900467ffffffffffffffff1667ffffffffffffffff1667ffffffffffffffff1681526020016002820160009054906101000a900473ffffffffffffffffffffffffffffffffffffffff1673ffffffffffffffffffffffffffffffffffffffff1673ffffffffffffffffffffffffffffffffffffffff16815260200160038201805461294890615100565b80601f016020809104026020016040519081016040528092919081815260200182805461297490615100565b80156129c15780601f10612996576101008083540402835291602001916129c1565b820191906000526020600020905b8154815290600101906020018083116129a457829003601f168201915b505050505081526020016004820180546129da90615100565b80601f0160208091040260200160405190810160405280929190818152602001828054612a0690615100565b8015612a535780601f10612a2857610100808354040283529160200191612a53565b820191906000526020600020905b815481529060010190602001808311612a3657829003601f168201915b5050505050815260200160058201805480602002602001604051908101604052809291908181526020016000905b82821015612b2d578382906000526020600020018054612aa090615100565b80601f0160208091040260200160405190810160405280929190818152602001828054612acc90615100565b8015612b195780601f10612aee57610100808354040283529160200191612b19565b820191906000526020600020905b815481529060010190602001808311612afc57829003601f168201915b505050505081526020019060010190612a81565b50505050815250509050612b3f613f59565b8160200151816020019067ffffffffffffffff16908167ffffffffffffffff16815250508160600151816060019073ffffffffffffffffffffffffffffffffffffffff16908173ffffffffffffffffffffffffffffffffffffffff16815250508160c001518160c00181905250826020015115612bc457816000015181600001819052505b826040015115612bf3578160400151816040019067ffffffffffffffff16908167ffffffffffffffff16815250505b826060015115612c0b57816080015181608001819052505b826080015115612c23578160a001518160a001819052505b60005b60018360200151612c3791906159b4565b67ffffffffffffffff16811015612d57578360a001518181518110612c5f57612c5e615522565b5b602002602001015115612d44576002600033604051602001612c8191906150b6565b6040516020818303038152906040528051906020012081526020019081526020016000206000828152602001908152602001600020600560008660000151604051602001612ccf91906150b6565b60405160208183030381529060405280519060200120815260200190815260200160002060003373ffffffffffffffffffffffffffffffffffffffff1673ffffffffffffffffffffffffffffffffffffffff168152602001908152602001600020908054612d3e92919061407e565b50612d57565b8080612d4f90615658565b915050612c26565b50600860008460000151604051602001612d7191906150b6565b6040516020818303038152906040528051906020012081526020019081526020016000208190806001815401808255809150506001900390600052602060002090600602016000909190919091506000820151816000019081612dd491906158e2565b5060208201518160010160006101000a81548167ffffffffffffffff021916908367ffffffffffffffff16021790555060408201518160010160086101000a81548167ffffffffffffffff021916908367ffffffffffffffff16021790555060608201518160020160006101000a81548173ffffffffffffffffffffffffffffffffffffffff021916908373ffffffffffffffffffffffffffffffffffffffff1602179055506080820151816003019081612e8f91906158e2565b5060a0820151816004019081612ea591906158e2565b5060c0820151816005019080519060200190612ec29291906140f5565b505050600960003373ffffffffffffffffffffffffffffffffffffffff1673ffffffffffffffffffffffffffffffffffffffff16815260200190815260200160002083908060018154018082558091505060019003906000526020600020906002020160009091909190915060008201518160000160006101000a81548173ffffffffffffffffffffffffffffffffffffffff021916908373ffffffffffffffffffffffffffffffffffffffff16021790555060208201518160000160146101000a81548160ff02191690831515021790555060408201518160000160156101000a81548160ff02191690831515021790555060608201518160000160166101000a81548160ff02191690831515021790555060808201518160000160176101000a81548160ff02191690831515021790555060a082015181600101908051906020019061301192919061414e565b5050506001600a6000856000015173ffffffffffffffffffffffffffffffffffffffff1673ffffffffffffffffffffffffffffffffffffffff16815260200190815260200160002060003373ffffffffffffffffffffffffffffffffffffffff1673ffffffffffffffffffffffffffffffffffffffff16815260200190815260200160002060006101000a81548160ff021916908315150217905550600760003373ffffffffffffffffffffffffffffffffffffffff1673ffffffffffffffffffffffffffffffffffffffff1681526020019081526020016000206001600760003373ffffffffffffffffffffffffffffffffffffffff1673ffffffffffffffffffffffffffffffffffffffff1681526020019081526020016000208054905061313b91906154ee565b8154811061314c5761314b615522565b5b9060005260206000209060020201600760003373ffffffffffffffffffffffffffffffffffffffff1673ffffffffffffffffffffffffffffffffffffffff16815260200190815260200160002085815481106131ab576131aa615522565b5b90600052602060002090600202016000820160009054906101000a900473ffffffffffffffffffffffffffffffffffffffff168160000160006101000a81548173ffffffffffffffffffffffffffffffffffffffff021916908373ffffffffffffffffffffffffffffffffffffffff1602179055506000820160149054906101000a900460ff168160000160146101000a81548160ff0219169083151502179055506000820160159054906101000a900460ff168160000160156101000a81548160ff0219169083151502179055506000820160169054906101000a900460ff168160000160166101000a81548160ff0219169083151502179055506000820160179054906101000a900460ff168160000160176101000a81548160ff02191690831515021790555060018201816001019080546132ea929190613ed1565b50905050600760003373ffffffffffffffffffffffffffffffffffffffff1673ffffffffffffffffffffffffffffffffffffffff16815260200190815260200160002080548061333d5761333c615551565b5b6001900381819060005260206000209060020201600080820160006101000a81549073ffffffffffffffffffffffffffffffffffffffff02191690556000820160146101000a81549060ff02191690556000820160156101000a81549060ff02191690556000820160166101000a81549060ff02191690556000820160176101000a81549060ff02191690556001820160006133d99190613f31565b5050905550505050565b600660003373ffffffffffffffffffffffffffffffffffffffff1673ffffffffffffffffffffffffffffffffffffffff16815260200190815260200160002060009054906101000a900460ff1661346f576040517f08c379a000000000000000000000000000000000000000000000000000000000815260040161346690615a3c565b60405180910390fd5b600360008873ffffffffffffffffffffffffffffffffffffffff1673ffffffffffffffffffffffffffffffffffffffff16815260200190815260200160002060009054906101000a900460ff166134fb576040517f08c379a00000000000000000000000000000000000000000000000000000000081526004016134f290615aa8565b60405180910390fd5b6135036141f4565b33816000019073ffffffffffffffffffffffffffffffffffffffff16908173ffffffffffffffffffffffffffffffffffffffff168152505086816020019015159081151581525050858160400190151590811515815250508481606001901515908115158152505083816080019015159081151581525050828280806020026020016040519081016040528093929190818152602001838360200280828437600081840152601f19601f820116905080830192505050505050508160a00181905250600760008973ffffffffffffffffffffffffffffffffffffffff1673ffffffffffffffffffffffffffffffffffffffff16815260200190815260200160002081908060018154018082558091505060019003906000526020600020906002020160009091909190915060008201518160000160006101000a81548173ffffffffffffffffffffffffffffffffffffffff021916908373ffffffffffffffffffffffffffffffffffffffff16021790555060208201518160000160146101000a81548160ff02191690831515021790555060408201518160000160156101000a81548160ff02191690831515021790555060608201518160000160166101000a81548160ff02191690831515021790555060808201518160000160176101000a81548160ff02191690831515021790555060a082015181600101908051906020019061371192919061414e565b5050505050505050505050565b600360003373ffffffffffffffffffffffffffffffffffffffff1673ffffffffffffffffffffffffffffffffffffffff16815260200190815260200160002060009054906101000a900460ff16806137bf5750600660003373ffffffffffffffffffffffffffffffffffffffff1673ffffffffffffffffffffffffffffffffffffffff16815260200190815260200160002060009054906101000a900460ff165b6137fe576040517f08c379a00000000000000000000000000000000000000000000000000000000081526004016137f5906155cc565b60405180910390fd5b6000604051806040016040528084848080601f016020809104026020016040519081016040528093929190818152602001838380828437600081840152601f19601f820116905080830192505050505050508152602001428152509050600260003360405160200161387091906150b6565b604051602081830303815290604052805190602001208152602001908152602001600020600085815260200190815260200160002081908060018154018082558091505060019003906000526020600020906002020160009091909190915060008201518160000190816138e491906158e2565b5060208201518160010155505050505050565b6138ff614248565b600460008360405160200161391491906150b6565b6040516020818303038152906040528051906020012081526020019081526020016000206040518060a00160405290816000820160009054906101000a900467ffffffffffffffff1667ffffffffffffffff1667ffffffffffffffff16815260200160018201805461398590615100565b80601f01602080910402602001604051908101604052809291908181526020018280546139b190615100565b80156139fe5780601f106139d3576101008083540402835291602001916139fe565b820191906000526020600020905b8154815290600101906020018083116139e157829003601f168201915b50505050508152602001600282018054613a1790615100565b80601f0160208091040260200160405190810160405280929190818152602001828054613a4390615100565b8015613a905780601f10613a6557610100808354040283529160200191613a90565b820191906000526020600020905b815481529060010190602001808311613a7357829003601f168201915b50505050508152602001600382018054613aa990615100565b80601f0160208091040260200160405190810160405280929190818152602001828054613ad590615100565b8015613b225780601f10613af757610100808354040283529160200191613b22565b820191906000526020600020905b815481529060010190602001808311613b0557829003601f168201915b5050505050815260200160048201805480602002602001604051908101604052809291908181526020016000905b82821015613bfc578382906000526020600020018054613b6f90615100565b80601f0160208091040260200160405190810160405280929190818152602001828054613b9b90615100565b8015613be85780601f10613bbd57610100808354040283529160200191613be8565b820191906000526020600020905b815481529060010190602001808311613bcb57829003601f168201915b505050505081526020019060010190613b50565b50505050815250509050919050565b6060600660003373ffffffffffffffffffffffffffffffffffffffff1673ffffffffffffffffffffffffffffffffffffffff16815260200190815260200160002060009054906101000a900460ff16613c99576040517f08c379a0000000000000000000000000000000000000000000000000000000008152600401613c909061504e565b60405180910390fd5b600a60003373ffffffffffffffffffffffffffffffffffffffff1673ffffffffffffffffffffffffffffffffffffffff16815260200190815260200160002060008373ffffffffffffffffffffffffffffffffffffffff1673ffffffffffffffffffffffffffffffffffffffff16815260200190815260200160002060009054906101000a900460ff16613d62576040517f08c379a0000000000000000000000000000000000000000000000000000000008152600401613d5990615b14565b60405180910390fd5b6005600033604051602001613d7791906150b6565b60405160208183030381529060405280519060200120815260200190815260200160002060008373ffffffffffffffffffffffffffffffffffffffff1673ffffffffffffffffffffffffffffffffffffffff168152602001908152602001600020805480602002602001604051908101604052809291908181526020016000905b82821015613ec65783829060005260206000209060020201604051806040016040529081600082018054613e2b90615100565b80601f0160208091040260200160405190810160405280929190818152602001828054613e5790615100565b8015613ea45780601f10613e7957610100808354040283529160200191613ea4565b820191906000526020600020905b815481529060010190602001808311613e8757829003601f168201915b5050505050815260200160018201548152505081526020019060010190613df8565b505050509050919050565b82805482825590600052602060002090601f01602090048101928215613f2057600052602060002091601f016020900482015b82811115613f1f578254825591600101919060010190613f04565b5b509050613f2d9190614281565b5090565b50805460008255601f016020900490600052602060002090810190613f569190614281565b50565b6040518060e0016040528060608152602001600067ffffffffffffffff168152602001600067ffffffffffffffff168152602001600073ffffffffffffffffffffffffffffffffffffffff1681526020016060815260200160608152602001606081525090565b82805482825590600052602060002090810192821561400c5760005260206000209182015b8281111561400b5782829081613ffb91906156b6565b5091600101919060010190613fe5565b5b509050614019919061429e565b5090565b50805461402990615100565b6000825580601f1061403b575061405a565b601f0160209004906000526020600020908101906140599190614281565b5b50565b508054600082559060005260206000209081019061407b919061429e565b50565b8280548282559060005260206000209060020281019282156140e45760005260206000209160020282015b828111156140e3578282600082018160000190816140c791906156b6565b50600182015481600101555050916002019190600201906140a9565b5b5090506140f191906142c2565b5090565b82805482825590600052602060002090810192821561413d579160200282015b8281111561413c57825182908161412c91906158e2565b5091602001919060010190614115565b5b50905061414a919061429e565b5090565b82805482825590600052602060002090601f016020900481019282156141e35791602002820160005b838211156141b457835183826101000a81548160ff0219169083151502179055509260200192600101602081600001049283019260010302614177565b80156141e15782816101000a81549060ff02191690556001016020816000010492830192600103026141b4565b505b5090506141f09190614281565b5090565b6040518060c00160405280600073ffffffffffffffffffffffffffffffffffffffff168152602001600015158152602001600015158152602001600015158152602001600015158152602001606081525090565b6040518060a00160405280600067ffffffffffffffff168152602001606081526020016060815260200160608152602001606081525090565b5b8082111561429a576000816000905550600101614282565b5090565b5b808211156142be57600081816142b5919061401d565b5060010161429f565b5090565b5b808211156142ed57600080820160006142dc919061401d565b6001820160009055506002016142c3565b5090565b600081519050919050565b600082825260208201905092915050565b6000819050602082019050919050565b600081519050919050565b600082825260208201905092915050565b60005b8381101561435757808201518184015260208101905061433c565b60008484015250505050565b6000601f19601f8301169050919050565b600061437f8261431d565b6143898185614328565b9350614399818560208601614339565b6143a281614363565b840191505092915050565b600067ffffffffffffffff82169050919050565b6143ca816143ad565b82525050565b600073ffffffffffffffffffffffffffffffffffffffff82169050919050565b60006143fb826143d0565b9050919050565b61440b816143f0565b82525050565b600081519050919050565b600082825260208201905092915050565b6000819050602082019050919050565b60006144498383614374565b905092915050565b6000602082019050919050565b600061446982614411565b614473818561441c565b9350836020820285016144858561442d565b8060005b858110156144c157848403895281516144a2858261443d565b94506144ad83614451565b925060208a01995050600181019050614489565b50829750879550505050505092915050565b600060e08301600083015184820360008601526144f08282614374565b915050602083015161450560208601826143c1565b50604083015161451860408601826143c1565b50606083015161452b6060860182614402565b50608083015184820360808601526145438282614374565b91505060a083015184820360a086015261455d8282614374565b91505060c083015184820360c0860152614577828261445e565b9150508091505092915050565b600061459083836144d3565b905092915050565b6000602082019050919050565b60006145b0826142f1565b6145ba81856142fc565b9350836020820285016145cc8561430d565b8060005b8581101561460857848403895281516145e98582614584565b94506145f483614598565b925060208a019950506001810190506145d0565b50829750879550505050505092915050565b6000602082019050818103600083015261463481846145a5565b905092915050565b6000819050919050565b61464f8161463c565b82525050565b600060208201905061466a6000830184614646565b92915050565b600080fd5b600080fd5b614683816143ad565b811461468e57600080fd5b50565b6000813590506146a08161467a565b92915050565b600080fd5b600080fd5b600080fd5b60008083601f8401126146cb576146ca6146a6565b5b8235905067ffffffffffffffff8111156146e8576146e76146ab565b5b602083019150836001820283011115614704576147036146b0565b5b9250929050565b60008060008060008060006080888a03121561472a57614729614670565b5b60006147388a828b01614691565b975050602088013567ffffffffffffffff81111561475957614758614675565b5b6147658a828b016146b5565b9650965050604088013567ffffffffffffffff81111561478857614787614675565b5b6147948a828b016146b5565b9450945050606088013567ffffffffffffffff8111156147b7576147b6614675565b5b6147c38a828b016146b5565b925092505092959891949750929550565b6147dd8161463c565b81146147e857600080fd5b50565b6000813590506147fa816147d4565b92915050565b60006020828403121561481657614815614670565b5b6000614824848285016147eb565b91505092915050565b600081519050919050565b600082825260208201905092915050565b6000819050602082019050919050565b6148628161463c565b82525050565b600060408301600083015184820360008601526148858282614374565b915050602083015161489a6020860182614859565b508091505092915050565b60006148b18383614868565b905092915050565b6000602082019050919050565b60006148d18261482d565b6148db8185614838565b9350836020820285016148ed85614849565b8060005b85811015614929578484038952815161490a85826148a5565b9450614915836148b9565b925060208a019950506001810190506148f1565b50829750879550505050505092915050565b6000602082019050818103600083015261495581846148c6565b905092915050565b600060e083016000830151848203600086015261497a8282614374565b915050602083015161498f60208601826143c1565b5060408301516149a260408601826143c1565b5060608301516149b56060860182614402565b50608083015184820360808601526149cd8282614374565b91505060a083015184820360a08601526149e78282614374565b91505060c083015184820360c0860152614a01828261445e565b9150508091505092915050565b60006020820190508181036000830152614a28818461495d565b905092915050565b614a39816143f0565b8114614a4457600080fd5b50565b600081359050614a5681614a30565b92915050565b600060208284031215614a7257614a71614670565b5b6000614a8084828501614a47565b91505092915050565b614a92816143f0565b82525050565b6000602082019050614aad6000830184614a89565b92915050565b600081519050919050565b600082825260208201905092915050565b6000819050602082019050919050565b60008115159050919050565b614af481614adf565b82525050565b600081519050919050565b600082825260208201905092915050565b6000819050602082019050919050565b6000614b328383614aeb565b60208301905092915050565b6000602082019050919050565b6000614b5682614afa565b614b608185614b05565b9350614b6b83614b16565b8060005b83811015614b9c578151614b838882614b26565b9750614b8e83614b3e565b925050600181019050614b6f565b5085935050505092915050565b600060c083016000830151614bc16000860182614402565b506020830151614bd46020860182614aeb565b506040830151614be76040860182614aeb565b506060830151614bfa6060860182614aeb565b506080830151614c0d6080860182614aeb565b5060a083015184820360a0860152614c258282614b4b565b9150508091505092915050565b6000614c3e8383614ba9565b905092915050565b6000602082019050919050565b6000614c5e82614ab3565b614c688185614abe565b935083602082028501614c7a85614acf565b8060005b85811015614cb65784840389528151614c978582614c32565b9450614ca283614c46565b925060208a01995050600181019050614c7e565b50829750879550505050505092915050565b60006020820190508181036000830152614ce28184614c53565b905092915050565b60008060008060008060006080888a031215614d0957614d08614670565b5b600088013567ffffffffffffffff811115614d2757614d26614675565b5b614d338a828b016146b5565b97509750506020614d468a828b01614691565b955050604088013567ffffffffffffffff811115614d6757614d66614675565b5b614d738a828b016146b5565b9450945050606088013567ffffffffffffffff811115614d9657614d95614675565b5b614da28a828b016146b5565b925092505092959891949750929550565b614dbc81614adf565b8114614dc757600080fd5b50565b600081359050614dd981614db3565b92915050565b60008083601f840112614df557614df46146a6565b5b8235905067ffffffffffffffff811115614e1257614e116146ab565b5b602083019150836020820283011115614e2e57614e2d6146b0565b5b9250929050565b600080600080600080600060c0888a031215614e5457614e53614670565b5b6000614e628a828b01614a47565b9750506020614e738a828b01614dca565b9650506040614e848a828b01614dca565b9550506060614e958a828b01614dca565b9450506080614ea68a828b01614dca565b93505060a088013567ffffffffffffffff811115614ec757614ec6614675565b5b614ed38a828b01614ddf565b925092505092959891949750929550565b600080600060408486031215614efd57614efc614670565b5b6000614f0b868287016147eb565b935050602084013567ffffffffffffffff811115614f2c57614f2b614675565b5b614f38868287016146b5565b92509250509250925092565b600060a083016000830151614f5c60008601826143c1565b5060208301518482036020860152614f748282614374565b91505060408301518482036040860152614f8e8282614374565b91505060608301518482036060860152614fa88282614374565b91505060808301518482036080860152614fc2828261445e565b9150508091505092915050565b60006020820190508181036000830152614fe98184614f44565b905092915050565b600082825260208201905092915050565b7f4e6f742061205265676973746572656420436f6d70616e790000000000000000600082015250565b6000615038601883614ff1565b915061504382615002565b602082019050919050565b600060208201905081810360008301526150678161502b565b9050919050565b60008160601b9050919050565b60006150868261506e565b9050919050565b60006150988261507b565b9050919050565b6150b06150ab826143f0565b61508d565b82525050565b60006150c2828461509f565b60148201915081905092915050565b7f4e487b7100000000000000000000000000000000000000000000000000000000600052602260045260246000fd5b6000600282049050600182168061511857607f821691505b60208210810361512b5761512a6150d1565b5b50919050565b7f436f6d70616e7920416c72656164792052656769737465726564000000000000600082015250565b6000615167601a83614ff1565b915061517282615131565b602082019050919050565b600060208201905081810360008301526151968161515a565b9050919050565b7f5265676973746572656420617320557365720000000000000000000000000000600082015250565b60006151d3601283614ff1565b91506151de8261519d565b602082019050919050565b60006020820190508181036000830152615202816151c6565b9050919050565b600082905092915050565b7f4e487b7100000000000000000000000000000000000000000000000000000000600052604160045260246000fd5b60008190508160005260206000209050919050565b60006020601f8301049050919050565b600082821b905092915050565b6000600883026152a57fffffffffffffffffffffffffffffffffffffffffffffffffffffffffffffffff82615268565b6152af8683615268565b95508019841693508086168417925050509392505050565b6000819050919050565b60006152ec6152e76152e28461463c565b6152c7565b61463c565b9050919050565b6000819050919050565b615306836152d1565b61531a615312826152f3565b848454615275565b825550505050565b600090565b61532f615322565b61533a8184846152fd565b505050565b5b8181101561535e57615353600082615327565b600181019050615340565b5050565b601f8211156153a35761537481615243565b61537d84615258565b8101602085101561538c578190505b6153a061539885615258565b83018261533f565b50505b505050565b600082821c905092915050565b60006153c6600019846008026153a8565b1980831691505092915050565b60006153df83836153b5565b9150826002028217905092915050565b6153f98383615209565b67ffffffffffffffff81111561541257615411615214565b5b61541c8254615100565b615427828285615362565b6000601f8311600181146154565760008415615444578287013590505b61544e85826153d3565b8655506154b6565b601f19841661546486615243565b60005b8281101561548c57848901358255600182019150602085019450602081019050615467565b868310156154a957848901356154a5601f8916826153b5565b8355505b6001600288020188555050505b50505050505050565b7f4e487b7100000000000000000000000000000000000000000000000000000000600052601160045260246000fd5b60006154f98261463c565b91506155048361463c565b925082820390508181111561551c5761551b6154bf565b5b92915050565b7f4e487b7100000000000000000000000000000000000000000000000000000000600052603260045260246000fd5b7f4e487b7100000000000000000000000000000000000000000000000000000000600052603160045260246000fd5b7f4e6f742052656769737465726564000000000000000000000000000000000000600082015250565b60006155b6600e83614ff1565b91506155c182615580565b602082019050919050565b600060208201905081810360008301526155e5816155a9565b9050919050565b7f41636365737320416c7265616479205265766f6b656400000000000000000000600082015250565b6000615622601683614ff1565b915061562d826155ec565b602082019050919050565b6000602082019050818103600083015261565181615615565b9050919050565b60006156638261463c565b91507fffffffffffffffffffffffffffffffffffffffffffffffffffffffffffffffff8203615695576156946154bf565b5b600182019050919050565b6000815490506156af81615100565b9050919050565b8181036156c457505061579c565b6156cd826156a0565b67ffffffffffffffff8111156156e6576156e5615214565b5b6156f08254615100565b6156fb828285615362565b6000601f83116001811461572a5760008415615718578287015490505b61572285826153d3565b865550615795565b601f19841661573887615243565b965061574386615243565b60005b8281101561576b57848901548255600182019150600185019450602081019050615746565b868310156157885784890154615784601f8916826153b5565b8355505b6001600288020188555050505b5050505050505b565b7f5265676973746572206173205573657200000000000000000000000000000000600082015250565b60006157d4601083614ff1565b91506157df8261579e565b602082019050919050565b60006020820190508181036000830152615803816157c7565b9050919050565b7f5573657220416c72656164792052656769737465726564000000000000000000600082015250565b6000615840601783614ff1565b915061584b8261580a565b602082019050919050565b6000602082019050818103600083015261586f81615833565b9050919050565b7f5265676973746572656420617320636f6d70616e790000000000000000000000600082015250565b60006158ac601583614ff1565b91506158b782615876565b602082019050919050565b600060208201905081810360008301526158db8161589f565b9050919050565b6158eb8261431d565b67ffffffffffffffff81111561590457615903615214565b5b61590e8254615100565b615919828285615362565b600060209050601f83116001811461594c576000841561593a578287015190505b61594485826153d3565b8655506159ac565b601f19841661595a86615243565b60005b828110156159825784890151825560018201915060208501945060208101905061595d565b8683101561599f578489015161599b601f8916826153b5565b8355505b6001600288020188555050505b505050505050565b60006159bf826143ad565b91506159ca836143ad565b9250828203905067ffffffffffffffff8111156159ea576159e96154bf565b5b92915050565b7f4f6e6c7920436f6d70616e6965732043616e2052657175657374000000000000600082015250565b6000615a26601a83614ff1565b9150615a31826159f0565b602082019050919050565b60006020820190508181036000830152615a5581615a19565b9050919050565b7f55736572204e6f74207265676973746572656400000000000000000000000000600082015250565b6000615a92601383614ff1565b9150615a9d82615a5c565b602082019050919050565b60006020820190508181036000830152615ac181615a85565b9050919050565b7f596f7520446f6e277420486176652041636365737320746f2055736572000000600082015250565b6000615afe601d83614ff1565b9150615b0982615ac8565b602082019050919050565b60006020820190508181036000830152615b2d81615af1565b905091905056fea26469706673582212209dc23964311f9219be7ce7f6493b03c8f882f66f01b409dfe746902e48d0b9de64736f6c63430008130033",
  "linkReferences": {},
  "deployedLinkReferences": {}
}