{
  "_format": "hh-sol-artifact-1",
  "contractName": "DeID",
  "sourceName": "contracts/DeID.sol",
  "abi": [
    {
      "inputs": [],
      "stateMutability": "nonpayable",
      "type": "constructor"
    },
    {
      "inputs": [
        {
          "internalType": "uint256",
          "name": "_id",
          "type": "uint256"
        }
      ],
      "name": "acceptDetails",
      "outputs": [],
      "stateMutability": "nonpayable",
      "type": "function"
    },
    {
      "inputs": [
        {
          "internalType": "uint256",
          "name": "_id",
          "type": "uint256"
        },
        {
          "internalType": "string",
          "name": "_hash",
          "type": "string"
        }
      ],
      "name": "addDocs",
      "outputs": [],
      "stateMutability": "nonpayable",
      "type": "function"
    },
    {
      "inputs": [
        {
          "internalType": "address",
          "name": "_address",
          "type": "address"
        }
      ],
      "name": "companyDetails",
      "outputs": [
        {
          "components": [
            {
              "internalType": "uint64",
              "name": "Phone",
              "type": "uint64"
            },
            {
              "internalType": "uint64",
              "name": "RegistrationId",
              "type": "uint64"
            },
            {
              "internalType": "string",
              "name": "Name",
              "type": "string"
            },
            {
              "internalType": "string",
              "name": "Image",
              "type": "string"
            },
            {
              "internalType": "string[]",
              "name": "Employee",
              "type": "string[]"
            }
          ],
          "internalType": "struct DeID.Company",
          "name": "",
          "type": "tuple"
        }
      ],
      "stateMutability": "view",
      "type": "function"
    },
    {
      "inputs": [
        {
          "internalType": "uint64",
          "name": "Phone",
          "type": "uint64"
        },
        {
          "internalType": "uint64",
          "name": "RegistrationId",
          "type": "uint64"
        },
        {
          "internalType": "string",
          "name": "Name",
          "type": "string"
        },
        {
          "internalType": "string",
          "name": "Image",
          "type": "string"
        }
      ],
      "name": "createCompany",
      "outputs": [],
      "stateMutability": "nonpayable",
      "type": "function"
    },
    {
      "inputs": [
        {
          "internalType": "string",
          "name": "DOB",
          "type": "string"
        },
        {
          "internalType": "uint64",
          "name": "Phone",
          "type": "uint64"
        },
        {
          "internalType": "string",
          "name": "Name",
          "type": "string"
        },
        {
          "internalType": "string",
          "name": "Image",
          "type": "string"
        }
      ],
      "name": "createUser",
      "outputs": [],
      "stateMutability": "nonpayable",
      "type": "function"
    },
    {
      "inputs": [],
      "name": "owner",
      "outputs": [
        {
          "internalType": "address",
          "name": "",
          "type": "address"
        }
      ],
      "stateMutability": "view",
      "type": "function"
    },
    {
      "inputs": [
        {
          "internalType": "uint256",
          "name": "_id",
          "type": "uint256"
        }
      ],
      "name": "rejectDetails",
      "outputs": [],
      "stateMutability": "nonpayable",
      "type": "function"
    },
    {
      "inputs": [
        {
          "internalType": "address",
          "name": "_address",
          "type": "address"
        },
        {
          "internalType": "bool",
          "name": "DOB",
          "type": "bool"
        },
        {
          "internalType": "bool",
          "name": "Phone",
          "type": "bool"
        },
        {
          "internalType": "bool",
          "name": "Name",
          "type": "bool"
        },
        {
          "internalType": "bool",
          "name": "Image",
          "type": "bool"
        },
        {
          "internalType": "bool[]",
          "name": "_Folders",
          "type": "bool[]"
        }
      ],
      "name": "requestDetails",
      "outputs": [],
      "stateMutability": "nonpayable",
      "type": "function"
    },
    {
      "inputs": [
        {
          "internalType": "uint256",
          "name": "_id",
          "type": "uint256"
        }
      ],
      "name": "returnDocs",
      "outputs": [
        {
          "components": [
            {
              "internalType": "string",
              "name": "Hash",
              "type": "string"
            },
            {
              "internalType": "uint256",
              "name": "TimeAdded",
              "type": "uint256"
            }
          ],
          "internalType": "struct DeID.Documents[]",
          "name": "",
          "type": "tuple[]"
        }
      ],
      "stateMutability": "view",
      "type": "function"
    },
    {
      "inputs": [
        {
          "internalType": "address",
          "name": "Address",
          "type": "address"
        }
      ],
      "name": "returnUserDocs",
      "outputs": [
        {
          "components": [
            {
              "internalType": "string",
              "name": "Hash",
              "type": "string"
            },
            {
              "internalType": "uint256",
              "name": "TimeAdded",
              "type": "uint256"
            }
          ],
          "internalType": "struct DeID.Documents[]",
          "name": "",
          "type": "tuple[]"
        }
      ],
      "stateMutability": "view",
      "type": "function"
    },
    {
      "inputs": [],
      "name": "returnUserRequests",
      "outputs": [
        {
          "components": [
            {
              "internalType": "address",
              "name": "Address",
              "type": "address"
            },
            {
              "internalType": "bool",
              "name": "DOB",
              "type": "bool"
            },
            {
              "internalType": "bool",
              "name": "Phone",
              "type": "bool"
            },
            {
              "internalType": "bool",
              "name": "Name",
              "type": "bool"
            },
            {
              "internalType": "bool",
              "name": "Image",
              "type": "bool"
            },
            {
              "internalType": "bool[]",
              "name": "Folders",
              "type": "bool[]"
            }
          ],
          "internalType": "struct DeID.Request[]",
          "name": "",
          "type": "tuple[]"
        }
      ],
      "stateMutability": "view",
      "type": "function"
    },
    {
      "inputs": [],
      "name": "returnUsersData",
      "outputs": [
        {
          "components": [
            {
              "internalType": "string",
              "name": "DOB",
              "type": "string"
            },
            {
              "internalType": "uint64",
              "name": "_foldCount",
              "type": "uint64"
            },
            {
              "internalType": "uint64",
              "name": "Phone",
              "type": "uint64"
            },
            {
              "internalType": "address",
              "name": "Address",
              "type": "address"
            },
            {
              "internalType": "string",
              "name": "Name",
              "type": "string"
            },
            {
              "internalType": "string",
              "name": "Image",
              "type": "string"
            },
            {
              "internalType": "string[]",
              "name": "Folders",
              "type": "string[]"
            }
          ],
          "internalType": "struct DeID.User[]",
          "name": "",
          "type": "tuple[]"
        }
      ],
      "stateMutability": "view",
      "type": "function"
    },
    {
      "inputs": [
        {
          "internalType": "address",
          "name": "Address",
          "type": "address"
        }
      ],
      "name": "revokeAccess",
      "outputs": [],
      "stateMutability": "nonpayable",
      "type": "function"
    },
    {
      "inputs": [],
      "name": "userDetails",
      "outputs": [
        {
          "components": [
            {
              "internalType": "string",
              "name": "DOB",
              "type": "string"
            },
            {
              "internalType": "uint64",
              "name": "_foldCount",
              "type": "uint64"
            },
            {
              "internalType": "uint64",
              "name": "Phone",
              "type": "uint64"
            },
            {
              "internalType": "address",
              "name": "Address",
              "type": "address"
            },
            {
              "internalType": "string",
              "name": "Name",
              "type": "string"
            },
            {
              "internalType": "string",
              "name": "Image",
              "type": "string"
            },
            {
              "internalType": "string[]",
              "name": "Folders",
              "type": "string[]"
            }
          ],
          "internalType": "struct DeID.User",
          "name": "",
          "type": "tuple"
        }
      ],
      "stateMutability": "view",
      "type": "function"
    }
  ],
  "bytecode": "0x608060405234801561001057600080fd5b50336000806101000a81548173ffffffffffffffffffffffffffffffffffffffff021916908373ffffffffffffffffffffffffffffffffffffffff16021790555061532b806100606000396000f3fe608060405234801561001057600080fd5b50600436106100ea5760003560e01c806394732e6f1161008c578063b9ceddb111610066578063b9ceddb114610223578063df56fbe01461023f578063e5851b081461025b578063efcc20291461028b576100ea565b806394732e6f146101cd5780639c3c5934146101eb578063a128a9dc14610207576100ea565b80637b931cf3116100c85780637b931cf31461015957806385e68531146101775780638a0a2b94146101935780638da5cb5b146101af576100ea565b80630882f03c146100ef5780632b46a9b91461010d57806342f398041461013d575b600080fd5b6100f76102bb565b6040516101049190613e2e565b60405180910390f35b61012760048036038101906101229190613e90565b610726565b6040516101349190613fcb565b60405180910390f35b61015760048036038101906101529190613e90565b61086b565b005b610161610b9e565b60405161016e919061409e565b60405180910390f35b610191600480360381019061018c91906140ec565b610fc4565b005b6101ad60048036038101906101a891906141aa565b611578565b005b6101b76117f0565b6040516101c49190614260565b60405180910390f35b6101d5611814565b6040516101e29190614490565b60405180910390f35b610205600480360381019061020091906144b2565b611a7b565b005b610221600480360381019061021c9190613e90565b611ee1565b005b61023d600480360381019061023891906145fd565b612ccb565b005b610259600480360381019061025491906146ac565b613006565b005b610275600480360381019061027091906140ec565b6131df565b6040516102829190614790565b60405180910390f35b6102a560048036038101906102a091906140ec565b613493565b6040516102b29190613fcb565b60405180910390f35b6060600660003373ffffffffffffffffffffffffffffffffffffffff1673ffffffffffffffffffffffffffffffffffffffff16815260200190815260200160002060009054906101000a900460ff16610349576040517f08c379a00000000000000000000000000000000000000000000000000000000081526004016103409061480f565b60405180910390fd5b600860003360405160200161035e9190614877565b604051602081830303815290604052805190602001208152602001908152602001600020805480602002602001604051908101604052809291908181526020016000905b8282101561071d57838290600052602060002090600602016040518060e00160405290816000820180546103d5906148c1565b80601f0160208091040260200160405190810160405280929190818152602001828054610401906148c1565b801561044e5780601f106104235761010080835404028352916020019161044e565b820191906000526020600020905b81548152906001019060200180831161043157829003601f168201915b505050505081526020016001820160009054906101000a900467ffffffffffffffff1667ffffffffffffffff1667ffffffffffffffff1681526020016001820160089054906101000a900467ffffffffffffffff1667ffffffffffffffff1667ffffffffffffffff1681526020016002820160009054906101000a900473ffffffffffffffffffffffffffffffffffffffff1673ffffffffffffffffffffffffffffffffffffffff1673ffffffffffffffffffffffffffffffffffffffff168152602001600382018054610521906148c1565b80601f016020809104026020016040519081016040528092919081815260200182805461054d906148c1565b801561059a5780601f1061056f5761010080835404028352916020019161059a565b820191906000526020600020905b81548152906001019060200180831161057d57829003601f168201915b505050505081526020016004820180546105b3906148c1565b80601f01602080910402602001604051908101604052809291908181526020018280546105df906148c1565b801561062c5780601f106106015761010080835404028352916020019161062c565b820191906000526020600020905b81548152906001019060200180831161060f57829003601f168201915b5050505050815260200160058201805480602002602001604051908101604052809291908181526020016000905b82821015610706578382906000526020600020018054610679906148c1565b80601f01602080910402602001604051908101604052809291908181526020018280546106a5906148c1565b80156106f25780601f106106c7576101008083540402835291602001916106f2565b820191906000526020600020905b8154815290600101906020018083116106d557829003601f168201915b50505050508152602001906001019061065a565b5050505081525050815260200190600101906103a2565b50505050905090565b6060600260003360405160200161073d9190614877565b6040516020818303038152906040528051906020012081526020019081526020016000206000838152602001908152602001600020805480602002602001604051908101604052809291908181526020016000905b8282101561086057838290600052602060002090600202016040518060400160405290816000820180546107c5906148c1565b80601f01602080910402602001604051908101604052809291908181526020018280546107f1906148c1565b801561083e5780601f106108135761010080835404028352916020019161083e565b820191906000526020600020905b81548152906001019060200180831161082157829003601f168201915b5050505050815260200160018201548152505081526020019060010190610792565b505050509050919050565b600760003373ffffffffffffffffffffffffffffffffffffffff1673ffffffffffffffffffffffffffffffffffffffff1681526020019081526020016000206001600760003373ffffffffffffffffffffffffffffffffffffffff1673ffffffffffffffffffffffffffffffffffffffff168152602001908152602001600020805490506108f99190614921565b8154811061090a57610909614955565b5b9060005260206000209060020201600760003373ffffffffffffffffffffffffffffffffffffffff1673ffffffffffffffffffffffffffffffffffffffff168152602001908152602001600020828154811061096957610968614955565b5b90600052602060002090600202016000820160009054906101000a900473ffffffffffffffffffffffffffffffffffffffff168160000160006101000a81548173ffffffffffffffffffffffffffffffffffffffff021916908373ffffffffffffffffffffffffffffffffffffffff1602179055506000820160149054906101000a900460ff168160000160146101000a81548160ff0219169083151502179055506000820160159054906101000a900460ff168160000160156101000a81548160ff0219169083151502179055506000820160169054906101000a900460ff168160000160166101000a81548160ff0219169083151502179055506000820160179054906101000a900460ff168160000160176101000a81548160ff0219169083151502179055506001820181600101908054610aa8929190613759565b50905050600760003373ffffffffffffffffffffffffffffffffffffffff1673ffffffffffffffffffffffffffffffffffffffff168152602001908152602001600020805480610afb57610afa614984565b5b6001900381819060005260206000209060020201600080820160006101000a81549073ffffffffffffffffffffffffffffffffffffffff02191690556000820160146101000a81549060ff02191690556000820160156101000a81549060ff02191690556000820160166101000a81549060ff02191690556000820160176101000a81549060ff0219169055600182016000610b9791906137b9565b5050905550565b610ba66137e1565b600360003373ffffffffffffffffffffffffffffffffffffffff1673ffffffffffffffffffffffffffffffffffffffff16815260200190815260200160002060009054906101000a900460ff16610c32576040517f08c379a0000000000000000000000000000000000000000000000000000000008152600401610c29906149ff565b60405180910390fd5b6001600033604051602001610c479190614877565b6040516020818303038152906040528051906020012081526020019081526020016000206040518060e0016040529081600082018054610c86906148c1565b80601f0160208091040260200160405190810160405280929190818152602001828054610cb2906148c1565b8015610cff5780601f10610cd457610100808354040283529160200191610cff565b820191906000526020600020905b815481529060010190602001808311610ce257829003601f168201915b505050505081526020016001820160009054906101000a900467ffffffffffffffff1667ffffffffffffffff1667ffffffffffffffff1681526020016001820160089054906101000a900467ffffffffffffffff1667ffffffffffffffff1667ffffffffffffffff1681526020016002820160009054906101000a900473ffffffffffffffffffffffffffffffffffffffff1673ffffffffffffffffffffffffffffffffffffffff1673ffffffffffffffffffffffffffffffffffffffff168152602001600382018054610dd2906148c1565b80601f0160208091040260200160405190810160405280929190818152602001828054610dfe906148c1565b8015610e4b5780601f10610e2057610100808354040283529160200191610e4b565b820191906000526020600020905b815481529060010190602001808311610e2e57829003601f168201915b50505050508152602001600482018054610e64906148c1565b80601f0160208091040260200160405190810160405280929190818152602001828054610e90906148c1565b8015610edd5780601f10610eb257610100808354040283529160200191610edd565b820191906000526020600020905b815481529060010190602001808311610ec057829003601f168201915b5050505050815260200160058201805480602002602001604051908101604052809291908181526020016000905b82821015610fb7578382906000526020600020018054610f2a906148c1565b80601f0160208091040260200160405190810160405280929190818152602001828054610f56906148c1565b8015610fa35780601f10610f7857610100808354040283529160200191610fa3565b820191906000526020600020905b815481529060010190602001808311610f8657829003601f168201915b505050505081526020019060010190610f0b565b5050505081525050905090565b600a60008273ffffffffffffffffffffffffffffffffffffffff1673ffffffffffffffffffffffffffffffffffffffff16815260200190815260200160002060003373ffffffffffffffffffffffffffffffffffffffff1673ffffffffffffffffffffffffffffffffffffffff16815260200190815260200160002060009054906101000a900460ff1661108d576040517f08c379a000000000000000000000000000000000000000000000000000000000815260040161108490614a6b565b60405180910390fd5b6000600a60008373ffffffffffffffffffffffffffffffffffffffff1673ffffffffffffffffffffffffffffffffffffffff16815260200190815260200160002060003373ffffffffffffffffffffffffffffffffffffffff1673ffffffffffffffffffffffffffffffffffffffff16815260200190815260200160002060006101000a81548160ff02191690831515021790555060005b6001600960003373ffffffffffffffffffffffffffffffffffffffff1673ffffffffffffffffffffffffffffffffffffffff168152602001908152602001600020805490506111749190614921565b811015611574578173ffffffffffffffffffffffffffffffffffffffff16600960003373ffffffffffffffffffffffffffffffffffffffff1673ffffffffffffffffffffffffffffffffffffffff16815260200190815260200160002082815481106111e3576111e2614955565b5b906000526020600020906002020160000160009054906101000a900473ffffffffffffffffffffffffffffffffffffffff1673ffffffffffffffffffffffffffffffffffffffff160361156157600960003373ffffffffffffffffffffffffffffffffffffffff1673ffffffffffffffffffffffffffffffffffffffff1681526020019081526020016000206001600960003373ffffffffffffffffffffffffffffffffffffffff1673ffffffffffffffffffffffffffffffffffffffff168152602001908152602001600020805490506112be9190614921565b815481106112cf576112ce614955565b5b9060005260206000209060020201600960003373ffffffffffffffffffffffffffffffffffffffff1673ffffffffffffffffffffffffffffffffffffffff168152602001908152602001600020828154811061132e5761132d614955565b5b90600052602060002090600202016000820160009054906101000a900473ffffffffffffffffffffffffffffffffffffffff168160000160006101000a81548173ffffffffffffffffffffffffffffffffffffffff021916908373ffffffffffffffffffffffffffffffffffffffff1602179055506000820160149054906101000a900460ff168160000160146101000a81548160ff0219169083151502179055506000820160159054906101000a900460ff168160000160156101000a81548160ff0219169083151502179055506000820160169054906101000a900460ff168160000160166101000a81548160ff0219169083151502179055506000820160179054906101000a900460ff168160000160176101000a81548160ff021916908315150217905550600182018160010190805461146d929190613759565b50905050600960003373ffffffffffffffffffffffffffffffffffffffff1673ffffffffffffffffffffffffffffffffffffffff1681526020019081526020016000208054806114c0576114bf614984565b5b6001900381819060005260206000209060020201600080820160006101000a81549073ffffffffffffffffffffffffffffffffffffffff02191690556000820160146101000a81549060ff02191690556000820160156101000a81549060ff02191690556000820160166101000a81549060ff02191690556000820160176101000a81549060ff021916905560018201600061155c91906137b9565b505090555b808061156c90614a8b565b915050611125565b5050565b60001515600360003373ffffffffffffffffffffffffffffffffffffffff1673ffffffffffffffffffffffffffffffffffffffff16815260200190815260200160002060009054906101000a900460ff1615151461160b576040517f08c379a000000000000000000000000000000000000000000000000000000000815260040161160290614b1f565b60405180910390fd5b60001515600660003373ffffffffffffffffffffffffffffffffffffffff1673ffffffffffffffffffffffffffffffffffffffff16815260200190815260200160002060009054906101000a900460ff1615151461169e576040517f08c379a000000000000000000000000000000000000000000000000000000000815260040161169590614b8b565b60405180910390fd5b6000336040516020016116b19190614877565b604051602081830303815290604052805190602001209050866004600083815260200190815260200160002060000160006101000a81548167ffffffffffffffff021916908367ffffffffffffffff160217905550856004600083815260200190815260200160002060000160086101000a81548167ffffffffffffffff021916908367ffffffffffffffff1602179055508484600460008481526020019081526020016000206001019182611768929190614d91565b50828260046000848152602001908152602001600020600201918261178e929190614d91565b506001600660003373ffffffffffffffffffffffffffffffffffffffff1673ffffffffffffffffffffffffffffffffffffffff16815260200190815260200160002060006101000a81548160ff02191690831515021790555050505050505050565b60008054906101000a900473ffffffffffffffffffffffffffffffffffffffff1681565b6060600360003373ffffffffffffffffffffffffffffffffffffffff1673ffffffffffffffffffffffffffffffffffffffff16815260200190815260200160002060009054906101000a900460ff166118a2576040517f08c379a000000000000000000000000000000000000000000000000000000000815260040161189990614ead565b60405180910390fd5b600760003373ffffffffffffffffffffffffffffffffffffffff1673ffffffffffffffffffffffffffffffffffffffff168152602001908152602001600020805480602002602001604051908101604052809291908181526020016000905b82821015611a7257838290600052602060002090600202016040518060c00160405290816000820160009054906101000a900473ffffffffffffffffffffffffffffffffffffffff1673ffffffffffffffffffffffffffffffffffffffff1673ffffffffffffffffffffffffffffffffffffffff1681526020016000820160149054906101000a900460ff161515151581526020016000820160159054906101000a900460ff161515151581526020016000820160169054906101000a900460ff161515151581526020016000820160179054906101000a900460ff1615151515815260200160018201805480602002602001604051908101604052809291908181526020018280548015611a5a57602002820191906000526020600020906000905b82829054906101000a900460ff16151581526020019060010190602082600001049283019260010382029150808411611a245790505b50505050508152505081526020019060010190611901565b50505050905090565b60001515600360003373ffffffffffffffffffffffffffffffffffffffff1673ffffffffffffffffffffffffffffffffffffffff16815260200190815260200160002060009054906101000a900460ff16151514611b0e576040517f08c379a0000000000000000000000000000000000000000000000000000000008152600401611b0590614f19565b60405180910390fd5b60001515600660003373ffffffffffffffffffffffffffffffffffffffff1673ffffffffffffffffffffffffffffffffffffffff16815260200190815260200160002060009054906101000a900460ff16151514611ba1576040517f08c379a0000000000000000000000000000000000000000000000000000000008152600401611b9890614f85565b60405180910390fd5b600033604051602001611bb49190614877565b6040516020818303038152906040528051906020012090508787600160008481526020019081526020016000206000019182611bf1929190614d91565b5060036001600083815260200190815260200160002060010160006101000a81548167ffffffffffffffff021916908367ffffffffffffffff1602179055506001600082815260200190815260200160002060050180600181540180825580915050600190039060005260206000200160006040518060400160405280600781526020017f4d65646963616c0000000000000000000000000000000000000000000000000081525090919091509081611caa9190614fa5565b506001600082815260200190815260200160002060050180600181540180825580915050600190039060005260206000200160006040518060400160405280600981526020017f41636164656d696373000000000000000000000000000000000000000000000081525090919091509081611d259190614fa5565b506001600082815260200190815260200160002060050180600181540180825580915050600190039060005260206000200160006040518060400160405280600481526020017f42616e6b0000000000000000000000000000000000000000000000000000000081525090919091509081611da09190614fa5565b50856001600083815260200190815260200160002060010160086101000a81548167ffffffffffffffff021916908367ffffffffffffffff1602179055508484600160008481526020019081526020016000206003019182611e03929190614d91565b50336001600083815260200190815260200160002060020160006101000a81548173ffffffffffffffffffffffffffffffffffffffff021916908373ffffffffffffffffffffffffffffffffffffffff1602179055508282600160008481526020019081526020016000206004019182611e7e929190614d91565b506001600360003373ffffffffffffffffffffffffffffffffffffffff1673ffffffffffffffffffffffffffffffffffffffff16815260200190815260200160002060006101000a81548160ff0219169083151502179055505050505050505050565b6000600760003373ffffffffffffffffffffffffffffffffffffffff1673ffffffffffffffffffffffffffffffffffffffff1681526020019081526020016000208281548110611f3457611f33614955565b5b90600052602060002090600202016040518060c00160405290816000820160009054906101000a900473ffffffffffffffffffffffffffffffffffffffff1673ffffffffffffffffffffffffffffffffffffffff1673ffffffffffffffffffffffffffffffffffffffff1681526020016000820160149054906101000a900460ff161515151581526020016000820160159054906101000a900460ff161515151581526020016000820160169054906101000a900460ff161515151581526020016000820160179054906101000a900460ff161515151581526020016001820180548060200260200160405190810160405280929190818152602001828054801561208357602002820191906000526020600020906000905b82829054906101000a900460ff1615158152602001906001019060208260000104928301926001038202915080841161204d5790505b5050505050815250509050600060016000336040516020016120a59190614877565b6040516020818303038152906040528051906020012081526020019081526020016000206040518060e00160405290816000820180546120e4906148c1565b80601f0160208091040260200160405190810160405280929190818152602001828054612110906148c1565b801561215d5780601f106121325761010080835404028352916020019161215d565b820191906000526020600020905b81548152906001019060200180831161214057829003601f168201915b505050505081526020016001820160009054906101000a900467ffffffffffffffff1667ffffffffffffffff1667ffffffffffffffff1681526020016001820160089054906101000a900467ffffffffffffffff1667ffffffffffffffff1667ffffffffffffffff1681526020016002820160009054906101000a900473ffffffffffffffffffffffffffffffffffffffff1673ffffffffffffffffffffffffffffffffffffffff1673ffffffffffffffffffffffffffffffffffffffff168152602001600382018054612230906148c1565b80601f016020809104026020016040519081016040528092919081815260200182805461225c906148c1565b80156122a95780601f1061227e576101008083540402835291602001916122a9565b820191906000526020600020905b81548152906001019060200180831161228c57829003601f168201915b505050505081526020016004820180546122c2906148c1565b80601f01602080910402602001604051908101604052809291908181526020018280546122ee906148c1565b801561233b5780601f106123105761010080835404028352916020019161233b565b820191906000526020600020905b81548152906001019060200180831161231e57829003601f168201915b5050505050815260200160058201805480602002602001604051908101604052809291908181526020016000905b82821015612415578382906000526020600020018054612388906148c1565b80601f01602080910402602001604051908101604052809291908181526020018280546123b4906148c1565b80156124015780601f106123d657610100808354040283529160200191612401565b820191906000526020600020905b8154815290600101906020018083116123e457829003601f168201915b505050505081526020019060010190612369565b505050508152505090506124276137e1565b8160200151816020019067ffffffffffffffff16908167ffffffffffffffff16815250508160600151816060019073ffffffffffffffffffffffffffffffffffffffff16908173ffffffffffffffffffffffffffffffffffffffff16815250508160c001518160c001819052508260200151156124ac57816000015181600001819052505b8260400151156124db578160400151816040019067ffffffffffffffff16908167ffffffffffffffff16815250505b8260600151156124f357816080015181608001819052505b82608001511561250b578160a001518160a001819052505b60005b6001836020015161251f9190615077565b67ffffffffffffffff1681101561263f578360a00151818151811061254757612546614955565b5b60200260200101511561262c5760026000336040516020016125699190614877565b60405160208183030381529060405280519060200120815260200190815260200160002060008281526020019081526020016000206005600086600001516040516020016125b79190614877565b60405160208183030381529060405280519060200120815260200190815260200160002060003373ffffffffffffffffffffffffffffffffffffffff1673ffffffffffffffffffffffffffffffffffffffff168152602001908152602001600020908054612626929190613848565b5061263f565b808061263790614a8b565b91505061250e565b506008600084600001516040516020016126599190614877565b60405160208183030381529060405280519060200120815260200190815260200160002081908060018154018082558091505060019003906000526020600020906006020160009091909190915060008201518160000190816126bc9190614fa5565b5060208201518160010160006101000a81548167ffffffffffffffff021916908367ffffffffffffffff16021790555060408201518160010160086101000a81548167ffffffffffffffff021916908367ffffffffffffffff16021790555060608201518160020160006101000a81548173ffffffffffffffffffffffffffffffffffffffff021916908373ffffffffffffffffffffffffffffffffffffffff16021790555060808201518160030190816127779190614fa5565b5060a082015181600401908161278d9190614fa5565b5060c08201518160050190805190602001906127aa9291906138bf565b505050600960003373ffffffffffffffffffffffffffffffffffffffff1673ffffffffffffffffffffffffffffffffffffffff16815260200190815260200160002083908060018154018082558091505060019003906000526020600020906002020160009091909190915060008201518160000160006101000a81548173ffffffffffffffffffffffffffffffffffffffff021916908373ffffffffffffffffffffffffffffffffffffffff16021790555060208201518160000160146101000a81548160ff02191690831515021790555060408201518160000160156101000a81548160ff02191690831515021790555060608201518160000160166101000a81548160ff02191690831515021790555060808201518160000160176101000a81548160ff02191690831515021790555060a08201518160010190805190602001906128f9929190613918565b5050506001600a6000856000015173ffffffffffffffffffffffffffffffffffffffff1673ffffffffffffffffffffffffffffffffffffffff16815260200190815260200160002060003373ffffffffffffffffffffffffffffffffffffffff1673ffffffffffffffffffffffffffffffffffffffff16815260200190815260200160002060006101000a81548160ff021916908315150217905550600760003373ffffffffffffffffffffffffffffffffffffffff1673ffffffffffffffffffffffffffffffffffffffff1681526020019081526020016000206001600760003373ffffffffffffffffffffffffffffffffffffffff1673ffffffffffffffffffffffffffffffffffffffff16815260200190815260200160002080549050612a239190614921565b81548110612a3457612a33614955565b5b9060005260206000209060020201600760003373ffffffffffffffffffffffffffffffffffffffff1673ffffffffffffffffffffffffffffffffffffffff1681526020019081526020016000208581548110612a9357612a92614955565b5b90600052602060002090600202016000820160009054906101000a900473ffffffffffffffffffffffffffffffffffffffff168160000160006101000a81548173ffffffffffffffffffffffffffffffffffffffff021916908373ffffffffffffffffffffffffffffffffffffffff1602179055506000820160149054906101000a900460ff168160000160146101000a81548160ff0219169083151502179055506000820160159054906101000a900460ff168160000160156101000a81548160ff0219169083151502179055506000820160169054906101000a900460ff168160000160166101000a81548160ff0219169083151502179055506000820160179054906101000a900460ff168160000160176101000a81548160ff0219169083151502179055506001820181600101908054612bd2929190613759565b50905050600760003373ffffffffffffffffffffffffffffffffffffffff1673ffffffffffffffffffffffffffffffffffffffff168152602001908152602001600020805480612c2557612c24614984565b5b6001900381819060005260206000209060020201600080820160006101000a81549073ffffffffffffffffffffffffffffffffffffffff02191690556000820160146101000a81549060ff02191690556000820160156101000a81549060ff02191690556000820160166101000a81549060ff02191690556000820160176101000a81549060ff0219169055600182016000612cc191906137b9565b5050905550505050565b600660003373ffffffffffffffffffffffffffffffffffffffff1673ffffffffffffffffffffffffffffffffffffffff16815260200190815260200160002060009054906101000a900460ff16612d57576040517f08c379a0000000000000000000000000000000000000000000000000000000008152600401612d4e906150ff565b60405180910390fd5b600360008873ffffffffffffffffffffffffffffffffffffffff1673ffffffffffffffffffffffffffffffffffffffff16815260200190815260200160002060009054906101000a900460ff16612de3576040517f08c379a0000000000000000000000000000000000000000000000000000000008152600401612dda9061516b565b60405180910390fd5b612deb6139be565b33816000019073ffffffffffffffffffffffffffffffffffffffff16908173ffffffffffffffffffffffffffffffffffffffff168152505086816020019015159081151581525050858160400190151590811515815250508481606001901515908115158152505083816080019015159081151581525050828280806020026020016040519081016040528093929190818152602001838360200280828437600081840152601f19601f820116905080830192505050505050508160a00181905250600760008973ffffffffffffffffffffffffffffffffffffffff1673ffffffffffffffffffffffffffffffffffffffff16815260200190815260200160002081908060018154018082558091505060019003906000526020600020906002020160009091909190915060008201518160000160006101000a81548173ffffffffffffffffffffffffffffffffffffffff021916908373ffffffffffffffffffffffffffffffffffffffff16021790555060208201518160000160146101000a81548160ff02191690831515021790555060408201518160000160156101000a81548160ff02191690831515021790555060608201518160000160166101000a81548160ff02191690831515021790555060808201518160000160176101000a81548160ff02191690831515021790555060a0820151816001019080519060200190612ff9929190613918565b5050505050505050505050565b600360003373ffffffffffffffffffffffffffffffffffffffff1673ffffffffffffffffffffffffffffffffffffffff16815260200190815260200160002060009054906101000a900460ff16806130a75750600660003373ffffffffffffffffffffffffffffffffffffffff1673ffffffffffffffffffffffffffffffffffffffff16815260200190815260200160002060009054906101000a900460ff165b6130e6576040517f08c379a00000000000000000000000000000000000000000000000000000000081526004016130dd906149ff565b60405180910390fd5b6000604051806040016040528084848080601f016020809104026020016040519081016040528093929190818152602001838380828437600081840152601f19601f82011690508083019250505050505050815260200142815250905060026000336040516020016131589190614877565b604051602081830303815290604052805190602001208152602001908152602001600020600085815260200190815260200160002081908060018154018082558091505060019003906000526020600020906002020160009091909190915060008201518160000190816131cc9190614fa5565b5060208201518160010155505050505050565b6131e7613a12565b60046000836040516020016131fc9190614877565b6040516020818303038152906040528051906020012081526020019081526020016000206040518060a00160405290816000820160009054906101000a900467ffffffffffffffff1667ffffffffffffffff1667ffffffffffffffff1681526020016000820160089054906101000a900467ffffffffffffffff1667ffffffffffffffff1667ffffffffffffffff16815260200160018201805461329f906148c1565b80601f01602080910402602001604051908101604052809291908181526020018280546132cb906148c1565b80156133185780601f106132ed57610100808354040283529160200191613318565b820191906000526020600020905b8154815290600101906020018083116132fb57829003601f168201915b50505050508152602001600282018054613331906148c1565b80601f016020809104026020016040519081016040528092919081815260200182805461335d906148c1565b80156133aa5780601f1061337f576101008083540402835291602001916133aa565b820191906000526020600020905b81548152906001019060200180831161338d57829003601f168201915b5050505050815260200160038201805480602002602001604051908101604052809291908181526020016000905b828210156134845783829060005260206000200180546133f7906148c1565b80601f0160208091040260200160405190810160405280929190818152602001828054613423906148c1565b80156134705780601f1061344557610100808354040283529160200191613470565b820191906000526020600020905b81548152906001019060200180831161345357829003601f168201915b5050505050815260200190600101906133d8565b50505050815250509050919050565b6060600660003373ffffffffffffffffffffffffffffffffffffffff1673ffffffffffffffffffffffffffffffffffffffff16815260200190815260200160002060009054906101000a900460ff16613521576040517f08c379a00000000000000000000000000000000000000000000000000000000081526004016135189061480f565b60405180910390fd5b600a60003373ffffffffffffffffffffffffffffffffffffffff1673ffffffffffffffffffffffffffffffffffffffff16815260200190815260200160002060008373ffffffffffffffffffffffffffffffffffffffff1673ffffffffffffffffffffffffffffffffffffffff16815260200190815260200160002060009054906101000a900460ff166135ea576040517f08c379a00000000000000000000000000000000000000000000000000000000081526004016135e1906151d7565b60405180910390fd5b60056000336040516020016135ff9190614877565b60405160208183030381529060405280519060200120815260200190815260200160002060008373ffffffffffffffffffffffffffffffffffffffff1673ffffffffffffffffffffffffffffffffffffffff168152602001908152602001600020805480602002602001604051908101604052809291908181526020016000905b8282101561374e57838290600052602060002090600202016040518060400160405290816000820180546136b3906148c1565b80601f01602080910402602001604051908101604052809291908181526020018280546136df906148c1565b801561372c5780601f106137015761010080835404028352916020019161372c565b820191906000526020600020905b81548152906001019060200180831161370f57829003601f168201915b5050505050815260200160018201548152505081526020019060010190613680565b505050509050919050565b82805482825590600052602060002090601f016020900481019282156137a857600052602060002091601f016020900482015b828111156137a757825482559160010191906001019061378c565b5b5090506137b59190613a55565b5090565b50805460008255601f0160209004906000526020600020908101906137de9190613a55565b50565b6040518060e0016040528060608152602001600067ffffffffffffffff168152602001600067ffffffffffffffff168152602001600073ffffffffffffffffffffffffffffffffffffffff1681526020016060815260200160608152602001606081525090565b8280548282559060005260206000209060020281019282156138ae5760005260206000209160020282015b828111156138ad57828260008201816000019081613891919061520d565b5060018201548160010155505091600201919060020190613873565b5b5090506138bb9190613a72565b5090565b828054828255906000526020600020908101928215613907579160200282015b828111156139065782518290816138f69190614fa5565b50916020019190600101906138df565b5b5090506139149190613aa1565b5090565b82805482825590600052602060002090601f016020900481019282156139ad5791602002820160005b8382111561397e57835183826101000a81548160ff0219169083151502179055509260200192600101602081600001049283019260010302613941565b80156139ab5782816101000a81549060ff021916905560010160208160000104928301926001030261397e565b505b5090506139ba9190613a55565b5090565b6040518060c00160405280600073ffffffffffffffffffffffffffffffffffffffff168152602001600015158152602001600015158152602001600015158152602001600015158152602001606081525090565b6040518060a00160405280600067ffffffffffffffff168152602001600067ffffffffffffffff1681526020016060815260200160608152602001606081525090565b5b80821115613a6e576000816000905550600101613a56565b5090565b5b80821115613a9d5760008082016000613a8c9190613ac5565b600182016000905550600201613a73565b5090565b5b80821115613ac15760008181613ab89190613ac5565b50600101613aa2565b5090565b508054613ad1906148c1565b6000825580601f10613ae35750613b02565b601f016020900490600052602060002090810190613b019190613a55565b5b50565b600081519050919050565b600082825260208201905092915050565b6000819050602082019050919050565b600081519050919050565b600082825260208201905092915050565b60005b83811015613b6b578082015181840152602081019050613b50565b60008484015250505050565b6000601f19601f8301169050919050565b6000613b9382613b31565b613b9d8185613b3c565b9350613bad818560208601613b4d565b613bb681613b77565b840191505092915050565b600067ffffffffffffffff82169050919050565b613bde81613bc1565b82525050565b600073ffffffffffffffffffffffffffffffffffffffff82169050919050565b6000613c0f82613be4565b9050919050565b613c1f81613c04565b82525050565b600081519050919050565b600082825260208201905092915050565b6000819050602082019050919050565b6000613c5d8383613b88565b905092915050565b6000602082019050919050565b6000613c7d82613c25565b613c878185613c30565b935083602082028501613c9985613c41565b8060005b85811015613cd55784840389528151613cb68582613c51565b9450613cc183613c65565b925060208a01995050600181019050613c9d565b50829750879550505050505092915050565b600060e0830160008301518482036000860152613d048282613b88565b9150506020830151613d196020860182613bd5565b506040830151613d2c6040860182613bd5565b506060830151613d3f6060860182613c16565b5060808301518482036080860152613d578282613b88565b91505060a083015184820360a0860152613d718282613b88565b91505060c083015184820360c0860152613d8b8282613c72565b9150508091505092915050565b6000613da48383613ce7565b905092915050565b6000602082019050919050565b6000613dc482613b05565b613dce8185613b10565b935083602082028501613de085613b21565b8060005b85811015613e1c5784840389528151613dfd8582613d98565b9450613e0883613dac565b925060208a01995050600181019050613de4565b50829750879550505050505092915050565b60006020820190508181036000830152613e488184613db9565b905092915050565b600080fd5b600080fd5b6000819050919050565b613e6d81613e5a565b8114613e7857600080fd5b50565b600081359050613e8a81613e64565b92915050565b600060208284031215613ea657613ea5613e50565b5b6000613eb484828501613e7b565b91505092915050565b600081519050919050565b600082825260208201905092915050565b6000819050602082019050919050565b613ef281613e5a565b82525050565b60006040830160008301518482036000860152613f158282613b88565b9150506020830151613f2a6020860182613ee9565b508091505092915050565b6000613f418383613ef8565b905092915050565b6000602082019050919050565b6000613f6182613ebd565b613f6b8185613ec8565b935083602082028501613f7d85613ed9565b8060005b85811015613fb95784840389528151613f9a8582613f35565b9450613fa583613f49565b925060208a01995050600181019050613f81565b50829750879550505050505092915050565b60006020820190508181036000830152613fe58184613f56565b905092915050565b600060e083016000830151848203600086015261400a8282613b88565b915050602083015161401f6020860182613bd5565b5060408301516140326040860182613bd5565b5060608301516140456060860182613c16565b506080830151848203608086015261405d8282613b88565b91505060a083015184820360a08601526140778282613b88565b91505060c083015184820360c08601526140918282613c72565b9150508091505092915050565b600060208201905081810360008301526140b88184613fed565b905092915050565b6140c981613c04565b81146140d457600080fd5b50565b6000813590506140e6816140c0565b92915050565b60006020828403121561410257614101613e50565b5b6000614110848285016140d7565b91505092915050565b61412281613bc1565b811461412d57600080fd5b50565b60008135905061413f81614119565b92915050565b600080fd5b600080fd5b600080fd5b60008083601f84011261416a57614169614145565b5b8235905067ffffffffffffffff8111156141875761418661414a565b5b6020830191508360018202830111156141a3576141a261414f565b5b9250929050565b600080600080600080608087890312156141c7576141c6613e50565b5b60006141d589828a01614130565b96505060206141e689828a01614130565b955050604087013567ffffffffffffffff81111561420757614206613e55565b5b61421389828a01614154565b9450945050606087013567ffffffffffffffff81111561423657614235613e55565b5b61424289828a01614154565b92509250509295509295509295565b61425a81613c04565b82525050565b60006020820190506142756000830184614251565b92915050565b600081519050919050565b600082825260208201905092915050565b6000819050602082019050919050565b60008115159050919050565b6142bc816142a7565b82525050565b600081519050919050565b600082825260208201905092915050565b6000819050602082019050919050565b60006142fa83836142b3565b60208301905092915050565b6000602082019050919050565b600061431e826142c2565b61432881856142cd565b9350614333836142de565b8060005b8381101561436457815161434b88826142ee565b975061435683614306565b925050600181019050614337565b5085935050505092915050565b600060c0830160008301516143896000860182613c16565b50602083015161439c60208601826142b3565b5060408301516143af60408601826142b3565b5060608301516143c260608601826142b3565b5060808301516143d560808601826142b3565b5060a083015184820360a08601526143ed8282614313565b9150508091505092915050565b60006144068383614371565b905092915050565b6000602082019050919050565b60006144268261427b565b6144308185614286565b93508360208202850161444285614297565b8060005b8581101561447e578484038952815161445f85826143fa565b945061446a8361440e565b925060208a01995050600181019050614446565b50829750879550505050505092915050565b600060208201905081810360008301526144aa818461441b565b905092915050565b60008060008060008060006080888a0312156144d1576144d0613e50565b5b600088013567ffffffffffffffff8111156144ef576144ee613e55565b5b6144fb8a828b01614154565b9750975050602061450e8a828b01614130565b955050604088013567ffffffffffffffff81111561452f5761452e613e55565b5b61453b8a828b01614154565b9450945050606088013567ffffffffffffffff81111561455e5761455d613e55565b5b61456a8a828b01614154565b925092505092959891949750929550565b614584816142a7565b811461458f57600080fd5b50565b6000813590506145a18161457b565b92915050565b60008083601f8401126145bd576145bc614145565b5b8235905067ffffffffffffffff8111156145da576145d961414a565b5b6020830191508360208202830111156145f6576145f561414f565b5b9250929050565b600080600080600080600060c0888a03121561461c5761461b613e50565b5b600061462a8a828b016140d7565b975050602061463b8a828b01614592565b965050604061464c8a828b01614592565b955050606061465d8a828b01614592565b945050608061466e8a828b01614592565b93505060a088013567ffffffffffffffff81111561468f5761468e613e55565b5b61469b8a828b016145a7565b925092505092959891949750929550565b6000806000604084860312156146c5576146c4613e50565b5b60006146d386828701613e7b565b935050602084013567ffffffffffffffff8111156146f4576146f3613e55565b5b61470086828701614154565b92509250509250925092565b600060a0830160008301516147246000860182613bd5565b5060208301516147376020860182613bd5565b506040830151848203604086015261474f8282613b88565b915050606083015184820360608601526147698282613b88565b915050608083015184820360808601526147838282613c72565b9150508091505092915050565b600060208201905081810360008301526147aa818461470c565b905092915050565b600082825260208201905092915050565b7f4e6f742061205265676973746572656420436f6d70616e790000000000000000600082015250565b60006147f96018836147b2565b9150614804826147c3565b602082019050919050565b60006020820190508181036000830152614828816147ec565b9050919050565b60008160601b9050919050565b60006148478261482f565b9050919050565b60006148598261483c565b9050919050565b61487161486c82613c04565b61484e565b82525050565b60006148838284614860565b60148201915081905092915050565b7f4e487b7100000000000000000000000000000000000000000000000000000000600052602260045260246000fd5b600060028204905060018216806148d957607f821691505b6020821081036148ec576148eb614892565b5b50919050565b7f4e487b7100000000000000000000000000000000000000000000000000000000600052601160045260246000fd5b600061492c82613e5a565b915061493783613e5a565b925082820390508181111561494f5761494e6148f2565b5b92915050565b7f4e487b7100000000000000000000000000000000000000000000000000000000600052603260045260246000fd5b7f4e487b7100000000000000000000000000000000000000000000000000000000600052603160045260246000fd5b7f4e6f742052656769737465726564000000000000000000000000000000000000600082015250565b60006149e9600e836147b2565b91506149f4826149b3565b602082019050919050565b60006020820190508181036000830152614a18816149dc565b9050919050565b7f41636365737320416c7265616479205265766f6b656400000000000000000000600082015250565b6000614a556016836147b2565b9150614a6082614a1f565b602082019050919050565b60006020820190508181036000830152614a8481614a48565b9050919050565b6000614a9682613e5a565b91507fffffffffffffffffffffffffffffffffffffffffffffffffffffffffffffffff8203614ac857614ac76148f2565b5b600182019050919050565b7f436f6d70616e7920416c72656164792052656769737465726564000000000000600082015250565b6000614b09601a836147b2565b9150614b1482614ad3565b602082019050919050565b60006020820190508181036000830152614b3881614afc565b9050919050565b7f5265676973746572656420617320557365720000000000000000000000000000600082015250565b6000614b756012836147b2565b9150614b8082614b3f565b602082019050919050565b60006020820190508181036000830152614ba481614b68565b9050919050565b600082905092915050565b7f4e487b7100000000000000000000000000000000000000000000000000000000600052604160045260246000fd5b60008190508160005260206000209050919050565b60006020601f8301049050919050565b600082821b905092915050565b600060088302614c477fffffffffffffffffffffffffffffffffffffffffffffffffffffffffffffffff82614c0a565b614c518683614c0a565b95508019841693508086168417925050509392505050565b6000819050919050565b6000614c8e614c89614c8484613e5a565b614c69565b613e5a565b9050919050565b6000819050919050565b614ca883614c73565b614cbc614cb482614c95565b848454614c17565b825550505050565b600090565b614cd1614cc4565b614cdc818484614c9f565b505050565b5b81811015614d0057614cf5600082614cc9565b600181019050614ce2565b5050565b601f821115614d4557614d1681614be5565b614d1f84614bfa565b81016020851015614d2e578190505b614d42614d3a85614bfa565b830182614ce1565b50505b505050565b600082821c905092915050565b6000614d6860001984600802614d4a565b1980831691505092915050565b6000614d818383614d57565b9150826002028217905092915050565b614d9b8383614bab565b67ffffffffffffffff811115614db457614db3614bb6565b5b614dbe82546148c1565b614dc9828285614d04565b6000601f831160018114614df85760008415614de6578287013590505b614df08582614d75565b865550614e58565b601f198416614e0686614be5565b60005b82811015614e2e57848901358255600182019150602085019450602081019050614e09565b86831015614e4b5784890135614e47601f891682614d57565b8355505b6001600288020188555050505b50505050505050565b7f5265676973746572206173205573657200000000000000000000000000000000600082015250565b6000614e976010836147b2565b9150614ea282614e61565b602082019050919050565b60006020820190508181036000830152614ec681614e8a565b9050919050565b7f5573657220416c72656164792052656769737465726564000000000000000000600082015250565b6000614f036017836147b2565b9150614f0e82614ecd565b602082019050919050565b60006020820190508181036000830152614f3281614ef6565b9050919050565b7f5265676973746572656420617320636f6d70616e790000000000000000000000600082015250565b6000614f6f6015836147b2565b9150614f7a82614f39565b602082019050919050565b60006020820190508181036000830152614f9e81614f62565b9050919050565b614fae82613b31565b67ffffffffffffffff811115614fc757614fc6614bb6565b5b614fd182546148c1565b614fdc828285614d04565b600060209050601f83116001811461500f5760008415614ffd578287015190505b6150078582614d75565b86555061506f565b601f19841661501d86614be5565b60005b8281101561504557848901518255600182019150602085019450602081019050615020565b86831015615062578489015161505e601f891682614d57565b8355505b6001600288020188555050505b505050505050565b600061508282613bc1565b915061508d83613bc1565b9250828203905067ffffffffffffffff8111156150ad576150ac6148f2565b5b92915050565b7f4f6e6c7920436f6d70616e6965732043616e2052657175657374000000000000600082015250565b60006150e9601a836147b2565b91506150f4826150b3565b602082019050919050565b60006020820190508181036000830152615118816150dc565b9050919050565b7f55736572204e6f74207265676973746572656400000000000000000000000000600082015250565b60006151556013836147b2565b91506151608261511f565b602082019050919050565b6000602082019050818103600083015261518481615148565b9050919050565b7f596f7520446f6e277420486176652041636365737320746f2055736572000000600082015250565b60006151c1601d836147b2565b91506151cc8261518b565b602082019050919050565b600060208201905081810360008301526151f0816151b4565b9050919050565b600081549050615206816148c1565b9050919050565b81810361521b5750506152f3565b615224826151f7565b67ffffffffffffffff81111561523d5761523c614bb6565b5b61524782546148c1565b615252828285614d04565b6000601f831160018114615281576000841561526f578287015490505b6152798582614d75565b8655506152ec565b601f19841661528f87614be5565b965061529a86614be5565b60005b828110156152c25784890154825560018201915060018501945060208101905061529d565b868310156152df57848901546152db601f891682614d57565b8355505b6001600288020188555050505b5050505050505b56fea2646970667358221220bd986e370d98d677234990c0439e0153c192db25ac66e563602189c18f4afb3b64736f6c63430008130033",
  "linkReferences": {},
  "deployedLinkReferences": {}
}